:100000000C94EF060C9436070C9436070C94F233DC
:100010000C9436070C9436070C9436070C9436076C
:100020000C9436070C9436070C945B170C941F1D28
:100030000C94AD2B0C9436070C9436070C943607B1
:100040000C9436070C9436070C9436070C9436073C
:100050000C9436070C9432180C9436070C9436071F
:100060000C9436070C9436070C9436070C9436071C
:100070000C9436070C9436070C9436070C9436070C
:100080000C9436070C9436070C9436070C943607FC
:100090000C9436070C9436070C9436070C943607EC
:1000A0000C9436070C9436070C9436070001EA804E
:1000B0001E2301EA801E0106EA80FF2406EA80FF73
:1000C0000704EA80FF2A04EA80FF1902EA80FF3C65
:1000D00002EA80FFFF00000000000155FF1E23011F
:1000E00055FF1E010655FFFF240655FFFF07045567
:1000F000FFFF2A0455FFFF190255FFFF3C0255FF81
:10010000FF0A0255FFFF140255FFFF1E0255FFFFB5
:100110002D0255FFFF370255FFFF410255FFFFFF3C
:100120000000000000011CFF1E23011CFFFF010650
:100130001CFFFF24061CFFFF3205AAFFFF3903AA9C
:10014000FFFF3E03AAFFFF07041CFFFF19021CFF6D
:10015000FF29041CFFFF3C021CFFFFFF0000000002
:100160000001BFFF1E2301BFFF1E0106BFFFFF24CA
:1001700006BFFFFF0704BFFFFF2A04BFFFFF1902EE
:10018000BFFFFF3C02BFFFFFFF000000000001AA0D
:10019000FF1E2301AAFF1E0106AAFFFF2406AAFFD5
:1001A000FF0704AAFFFF2A04AAFFFF1902AAFFFF04
:1001B0003C02AAFFFFFF00000000000180FF1E2399
:1001C0000180FF1E010680FF80240680FF80070457
:1001D00080FF802A0480FF80190280FF803C02801B
:1001E000FF80FF00000000000100FF1E230100FF50
:1001F0001E010600FFFF240600FFFF070400FFFFAB
:100200002A0400FFFF190200FFFF3C0200FFFFFF6E
:1002100000000000000501050205030504050505B1
:10022000000601060206030604060506000701078C
:10023000020703070407050700080108020803086E
:100240000408050800090109020903090409050950
:10025000000001000200030004000500000101018C
:10026000020103010401050100020102020203026E
:100270000402050200030103020303030403050350
:1002800000040104020403040404050429001E0000
:100290001F002000210022002B0014001A0008007B
:1002A00015001700005704001600070009000A0097
:1002B000E0001D001B000600190005002F00E300F0
:1002C000645D2C002800A8003500270026002500CA
:1002D000240023003100130012000C0018001C0041
:1002E000340033000F000E000D000B00E600380054
:1002F00037003600100011003000E400655D280072
:100300002C00675D01003A003B003C003D003E00D0
:10031000010035002D022E022F0230020100640080
:10032000025703572D001F02010025022602015724
:1003300000000000010001000100010001000100B7
:100340000100000054002202000006028000AC0000
:100350005500610060005F007F00AE0056005E0047
:100360005D005C008100AB0057005B005A00590043
:100370006700370001006200010001000100010078
:10038000010001000100010001003A003B003C00B7
:100390003D003E0001003F0040004100420043009C
:1003A000010044004500680069006A000100010086
:1003B0000100010001000100010001000100010035
:1003C000010001004B004A00000052000000000044
:1003D0004E004D004F0051005000000000004C0046
:1003E0000000000000000000010001000100010009
:1003F00001000100010000000000000000000000FA
:1004000001000000000000000000C35C0100C65CA9
:10041000C85CCA5CCC5CC45C0100C75CC95CCB5CDA
:10042000CD5C00000100010001000100010001009D
:1004300000000000000000000000000000000000BC
:100440000000000000000000005C00004F090000F8
:100450000000500900000000AB00AE00AC0000003E
:1004600001000100010001000100010000DA028129
:10047000FFD9F1DB20A4A62EAF00A0C000A1C800C8
:10048000AED580A81FD300408D142000E701BA012B
:100490008D0160012401D900AC0000007F3F1F6482
:1004A00032141E140A05536F666C65000A008081C1
:1004B000828384A0A1A2A3A4C0C1C2C3C400556EFC
:1004C0006465660041646A0A004C6F776572005289
:1004D0006169736500426173650A004C4159455278
:1004E000000A0A000A000A008081828384858687C8
:1004F00088898A8B8C8D8E8F9091929394A0A1A2E3
:10050000A3A4A5A6A7A8A9AAABACADAEAFB0B1B243
:10051000B3B4C0C1C2C3C4C5C6C7C8C9CACBCCCD99
:10052000CECFD0D1D2D3D40000AE00010101010161
:10053000010101010202020202020202020303039C
:10054000030303030304040404040404050505056C
:10055000050606060606070707070708080808092C
:100560000909090A0A0A0B0B0B0C0C0C0D0D0D0ED8
:100570000E0E0F0F0F10101111111212131314146D
:10058000151516161717181819191A1A1B1B1C1DE2
:100590001D1E1E1F2020212222232424252626273B
:1005A0002829292A2B2C2D2D2E2F3031323233346D
:1005B00035363738393A3B3C3D3E3F404142434473
:1005C00045464748494A4C4D4E4F50515354555655
:1005D00058595A5B5D5E5F616264656668696B6C01
:1005E0006D6F7072737577787A7B7D7E808283857C
:1005F00087888A8C8E8F91939596989A9C9EA0A2BC
:10060000A3A5A7A9ABADAFB1B3B5B7BABCBEC0C2C5
:10061000C4C6C9CBCDCFD1D4D6D8DBDDDFE2E4E789
:10062000E9EBEEF0F3F5F8FAFDFF22232526282961
:100630002A2C2D2F3032333536383A3B3D3E40425E
:10064000434547494A4C4E5051535557595A5C5EA1
:100650006062646668696B6D6F71737577797B7DB5
:100660007F81838587898A8C8E90929496989A9CB4
:100670009E9FA1A3A5A7A8AAACAEAFB1B3B4B6B8CC
:10068000B9BBBCBEBFC1C2C3C5C6C7C9CACBCCCD2E
:10069000CED0D1D2D2D3D4D5D6D7D7D8D9D9DADA09
:1006A000DBDBDBDCDCDCDCDCDDDDDDDDDCDCDCDC89
:1006B000DCDBDBDBDADAD9D9D8D7D7D6D5D4D3D2BD
:1006C000D2D1D0CECDCCCBCAC9C7C6C5C3C2C1BF9B
:1006D000BEBCBBB9B8B6B4B3B1AFAEACAAA8A7A5FF
:1006E000A3A19F9E9C9A98969492908E8C8A8987BB
:1006F0008583817F7D7B79777573716F6D6B696899
:10070000666462605E5C5A5957555351504E4C4A6C
:100710004947454342403E3D3B3A38363533323017
:100720002F2D2C2A29282625232200AF0501090276
:10073000A10185020901A100050919012908150077
:1007400025019508750181020501093009311581DE
:10075000257F95027508810609381581257F950149
:1007600075088106050C0A38021581257F950175EB
:10077000088106C0C005010980A101850319012A6D
:10078000B700150126B700950175108100C0050C52
:100790000901A101850419012AA002150126A00260
:1007A000950175108100C005010906A101850505A7
:1007B0000719E029E7150025019508750181020553
:1007C00007190029EF1500250195F0750181020533
:1007D0000819012905950575019102950175039187
:1007E00001C005010906A101050719E029E7150067
:1007F000250195087501810295017508810105079C
:10080000190029FF150026FF0095067508810005CF
:100810000819012905950575019102950175039146
:1008200001C009023B00020100A0FA090400000116
:100830000301010009211101000122400007058187
:100840000308000A09040100010300000009211146
:1008500001000122B6000705820320000A120100F0
:10086000020000000832FC87020100010200010CB6
:100870000353006F0066006C00650000001A034A15
:10088000006F007300650066004100640061006D48
:1008900000630069006B0000000403090407087F7F
:1008A0000807003E5B4F5B3E003E6B4F6B3E001CFB
:1008B0003E7C3E1C00183C7E3C18001C577D571C9B
:1008C000001C5E7F5E1C0000183C180000FFE7C3A0
:1008D000E7FF00001824180000FFE7DBE7FF003007
:1008E000483A060E00262979292600407F0505078B
:1008F00000407F05253F005A3CE73C5A007F3E1CE4
:100900001C0800081C1C3E7F0014227F2214005F7C
:100910005F005F5F0006097F017F00006689956ABE
:100920000060606060600094A2FFA2940008047EF2
:1009300004080010207E20100008082A1C08000867
:100940001C2A0808001E10101010000C1E0C1E0C93
:100950000030383E383000060E3E0E060000000023
:1009600000000000005F0000000007000700001406
:100970007F147F1400242A7F2A1200231308646244
:1009800000364956205000000807030000001C22D2
:100990004100000041221C00002A1C7F1C2A000884
:1009A000083E0808000080703000000808080808A9
:1009B000000000606000002010080402003E514961
:1009C000453E0000427F40000072494949460021EF
:1009D00041494D33001814127F1000274545453911
:1009E000003C4A4949310041211109070036494973
:1009F000493600464949291E000000140000000045
:100A0000403400000000081422410014141414148F
:100A1000000041221408000201590906003E415D10
:100A2000594E007C1211127C007F49494936003E24
:100A300041414122007F4141413E007F49494941B6
:100A4000007F09090901003E41415173007F0808F8
:100A5000087F0000417F4100002040413F01007FAE
:100A600008142241007F40404040007F021C027F6A
:100A7000007F0408107F003E4141413E007F09098C
:100A80000906003E4151215E007F091929460026D2
:100A9000494949320003017F0103003F4040403F84
:100AA000001F2040201F003F4038403F00631408D3
:100AB0001463000304780403006159494D430000A6
:100AC0007F41414100020408102000004141417F64
:100AD00000040201020400404040404000000307BF
:100AE0000800002054547840007F284444380038DF
:100AF0004444442800384444287F0038545454184F
:100B00000000087E09020018A4A49C78007F080455
:100B100004780000447D4000002040403D00007FFC
:100B2000102844000000417F4000007C04780478D5
:100B3000007C0804047800384444443800FC18243D
:100B400024180018242418FC007C08040408004819
:100B5000545454240004043F4424003C4040207C6E
:100B6000001C2040201C003C4030403C0044281029
:100B70002844004C9090907C004464544C44000005
:100B800008364100000000770000000041360800F0
:100B9000000201020402003C2623263C0000000063
:100BA000000000404040F0F8F8FF38FFF8F83FF848
:100BB000F8FF38FFF8F8F040404000000000000067
:100BC00080C0C0C0800000C0C08000000080C0C0E5
:100BD00000C0C0000080C0C00000000000C0C0C055
:100BE000C0C000C0C0000000000000000000000005
:100BF00000000000000000000000000000000000F5
:100C000000000000000000000000000000000000E4
:100C1000000000000000000000000000C0F0F8FC30
:100C20003E1E06010000007F4141417F007F41419F
:100C3000417F000080C0E07E5B4F5BFEC00000C0D3
:100C400000DCD7DEDEDED7DC00C0000000000000E4
:100C50000000000000000000000000000000000094
:100C6000000000494949FFFFFFFFE0DFBFBF00BFB1
:100C7000BFDFE0FFFFFFFF49494900000000001F00
:100C80003F6060E0BF1F007F7F071E381E077F7F29
:100C9000007F7F0E1F3B716000000000007F7F0C13
:100CA0000C0C007E7E007F7E0303007F7E03037EAC
:100CB0007E03037F7E000F3E703C063C703E0F00BB
:100CC000327B49493F7E007F7E0303001E3F6969F6
:100CD0006F2600000000000000000000030F1F3F0F
:100CE0003C7870600000007F4141417F007F4141BE
:100CF000417F00307B7F7830202030787F3B0003BD
:100D0000000F7F0F0F0F7F0F000300000000000097
:100D100000000000000000000000000000000000D3
:100D2000000000010101070F0F7F0F7F0F0F7E0FE3
:100D30000F7F0F7F0F0F070101010000000000006F
:100D400000000000010100000000000000000000A1
:100D50000000000000000000000000000000000093
:100D60000000000000000000000000000000000083
:100D70000000000000000000000000000000000073
:100D80000000000000000000000000000000000063
:100D90000000000000000000000000000000000053
:100DA0000000000000000000000000000000000043
:100DB0000000000000000000000000000000000033
:100DC0000000000000000000000000000000000023
:100DD00000000000000000000000000000001124DE
:100DE0001FBECFEFDAE0DEBFCDBF04B603FE27C0E3
:100DF00080919D0690919E06A0919F06B091A006BD
:100E00008730904BA740B04BD1F410929D061092C2
:100E10009E0610929F061092A00614BE84B7877F8C
:100E200084BF0FB6F894A895809160008861809384
:100E30006000109260000FBEE0E0F8E3099512E058
:100E4000A0E0B1E0E4E3FDE602C005900D92AE3211
:100E5000B107D9F726E0AEE2B2E001C01D92AD398C
:100E6000B207E1F70E94D42B0C946D360C9400006D
:100E7000E8EDF0E080818E7F80831092E200109296
:100E8000DA001092E100A0EEB0E08C9181608C93CA
:100E900080818F77808319BCA7EDB0E08C918E7F25
:100EA0008C9380818F7E808310925C0408952091C2
:100EB000E4003091E50095E6A9012091EC00822F35
:100EC000817020FF06C08091E80080FF06C080E0AE
:100ED00008952091E80022FD1AC0809181048823A2
:100EE00089F0853089F08091EB0085FD0FC020915D
:100EF000E4003091E50042175307F9F29150E1F612
:100F000084E0089582E0089583E0089581E00895E3
:100F1000EF92FF920F931F93CF937C018B010E945E
:100F20005707C82F811117C08091E80085FD0BC0BD
:100F30008091E8008E778093E8000E94570788230D
:100F400099F3C82F08C0F70181917F018093F100C8
:100F50000150110949F78C2FCF911F910F91FF90EC
:100F6000EF9008958091830487FF13C08091E8007B
:100F700082FF06C08091E8008B778093E80004C070
:100F8000809181048111F2CF08958091810488239A
:100F9000D9F38091E80080FFF8CF8091E8008E7748
:100FA000ECCF982F9093E900242F762F50E08917EB
:100FB00031F07091EC002091ED005091F00021FD96
:100FC00007C09F5F973071F78093E90081E0089533
:100FD0003091EB003E7F3093EB003091ED003D7F90
:100FE0003093ED003091EB0031603093EB00709363
:100FF000EC002093ED005093F0002091EE0027FDCF
:10100000E0CF80E00895CF92DF92EF92FF920F93AE
:101010001F93CF93DF93C8EDD0E088818F7E8883C4
:10102000E7EDF0E080818160808384E082BF81E031
:1010300080935C0488818E7F888302EE10E0F80143
:1010400010821092DA0081EEC82ED12CF6011082A7
:1010500088818F77888388818068888388818F7D65
:10106000888319BC1092810410928204109280042B
:1010700010927F0490EEE92EF12CF70180818B7F96
:10108000808388818160888342E060E080E00E9404
:10109000D107F60180818E7F8083F8018081816095
:1010A0008083808188608083F70180818E7F808348
:1010B000888180618883DF91CF911F910F91FF908C
:1010C000EF90DF90CF900895FC018091890490917A
:1010D0008A0486179707A0F06115710529F490918D
:1010E000E8009E779093E80090E06115710551F457
:1010F000911108C08091E80082FF34C080E008951B
:10110000BC01F2CF809181048823C1F18530C1F107
:101110008091E80083FD30C08091E80082FDEACF35
:101120008091E80080FFE1CF8091F3002091F200F0
:10113000382F6115710519F02830310558F091E00C
:101140002830310509F090E02091E8002E772093B7
:10115000E800CBCF81918093F100615071092F5F3E
:101160003F4FE7CF80918104882341F0853041F0E3
:101170008091E80083FFBECF81E0089582E008956A
:1011800083E0089580915E04089587E797E7909340
:1011900001088093000888E19AE00FB6F894A895BA
:1011A000809360000FBE90936000FFCF2FB7F8943C
:1011B00060915304709154048091550490915604A9
:1011C0002FBF08952091C2012223C9F02091570416
:1011D00027FF15C0E62FE695E695E695EE31D8F4A3
:1011E000E80FF92FF11D677021E030E001C0220FF8
:1011F0006A95EAF720958281282322830895FC01CD
:10120000329608962191621303C0DF0111971C9258
:10121000E817F907B9F708952091C2012223C1F018
:101220002091570427FF14C0E62FE695E695E69532
:10123000EE31F8F4E80FF92FF11D677021E030E08E
:1012400001C0220F6A95EAF78281822B828308957A
:10125000FC0132962FEF30E04191641751F02F3F9F
:1012600019F4411101C0232F3F5F3630A9F72F3FFA
:1012700009F40895820F911D27FD9A95FC01628360
:10128000089520914C0430914D042817390771F0CE
:1012900090934D0480934C04E0914A04F0914B04E8
:1012A000309721F00084F185E02D09940895209174
:1012B0004804309149042817390771F09093490484
:1012C00080934804E0914A04F0914B04309721F058
:1012D0000680F781E02D09940895FC01680F791FBD
:1012E0008FEF91E32191822728E030E087FF09C04A
:1012F000880F892721503109C9F7E617F70791F7B9
:101300000895880FF7CFFA01811101C0FB010994FC
:101310000895E2E6F3E01182828184608283089579
:1013200080913904982F9E7F61F481708260809350
:10133000390480913C04893718F088E780933C0495
:1013400008958032B0F381708E61F1CFAF92BF9279
:10135000DF92EF92FF920F931F93CF93DF93082FAB
:10136000162FE901E42FF0E0E65DFA4F611110C09D
:10137000E4915E2F4E2F4983E8835A83DF91CF910A
:101380001F910F91FF90EF90DF90BF90AF90089565
:10139000E62EF12C4491D42EE42FF0E026E0829F3B
:1013A000C00111242FEF30E0B9010E946C35802F6D
:1013B00090E0880F991F55E5569FD001579FB00DBB
:1013C00011248A1B9B0B982F990F890F5901AE1876
:1013D000BF08AE9ED001AF9EB00DBE9EB00D1124D1
:1013E0005B2F189F80011124012F11275901A01A8A
:1013F000B10AAE9E8001AF9E100DBE9E100D11244D
:101400005901A81AB108AE9CC001AF9C900DBE9CBA
:10141000900D1124892F9927281B390B2E9FC0016D
:101420002F9F900D3E9F900D1124E92F6230710582
:10143000A1F050F46115710509F49DCF613071057B
:1014400081F0EB2F512F97CF6430710569F080F058
:101450006630710509F48FCFF4CFE42F4B2F592F4D
:101460008ACFE42F412F87CFEB2F542F492F83CFE3
:101470004B2F5D2DE12F7FCF409156038D3E59F4C8
:101480008091570387FF0DC01092570341110BC085
:1014900010924E0308C08E3E81F4809157031816B7
:1014A0009CF3442381F08091580390915903892B38
:1014B00009F05AC010924D0308958F3E49F447FF3A
:1014C000F0CF10925603809157038111ECCFE0CFFB
:1014D000803F19F41416ACF3E4CF90915803893F80
:1014E00029F41916F4F610925803DBCF8A3F19F449
:1014F00097FFD7CFF8CF909159038B3F29F497FFEF
:10150000D0CF10925903CDCF8C3F19F41916CCF3DC
:10151000C8CF9FE0980F983090F4815F990B21E03D
:1015200030E0B90102C0660F771F8A95E2F7CB0160
:10153000809590915503892380935503B2CF8D3FB9
:1015400031F480914F038E7F80934F03AACF8E3F5B
:1015500021F480914F038D7FF7CF8F3F09F0A1CF0A
:1015600080914F038B7FF0CF089580914F0380FDD2
:1015700016C081FD16C082FD16C080914D038823E0
:10158000A1F0883280F428E0829FC001112468E233
:1015900070E00E948C35862F672B39F0089582E029
:1015A000089584E0089588E0089581E00895809189
:1015B0004F0380FD14C081FD14C082FD16C08091D0
:1015C0004E03882381F0843180F422E3829FC0019E
:1015D000112464E170E00E948C35862F08958CE020
:1015E000089589E1089585E0089582E308958D3E88
:1015F00031F40E94D70A81958093570308958E3E57
:1016000019F40E94D70AF8CF8F3E31F40E94D70A0E
:101610008195809356030895803F19F40E94D70A5C
:10162000F8CF893F29F40E94B50A809358030895A2
:101630008A3F21F40E94B50A8195F7CF8B3F31F4A0
:101640000E94B50A81958093590308958C3F19F43F
:101650000E94B50AF8CF9FE0980F983070F4815F30
:10166000990B21E030E001C0220F8A95EAF78091C2
:101670005503822B8093550308958D3F31F480915B
:101680004F03816080934F0308958E3F21F4809132
:101690004F038260F7CF8F3FB9F780914F0384608B
:1016A000F1CF80E0089578940895F894E82FE295BA
:1016B000EF70F0E031A1282F2F7081E090E001C0A1
:1016C000880F2A95EAF7982F9095932391A392A1DA
:1016D000892B82A30C94530B9091570492FF06C060
:1016E000282F28712830F9F4877F846093FF06C083
:1016F000282F28712831F1F4877E846120915804C5
:1017000020FF06C0382F38713830D9F4877F8160C8
:1017100021FF06C0282F28712831D1F4877E8161EE
:1017200094FD877E0895282F24712430F9F68B7F4D
:101730008860DCCF282F2471243101F78B7E8861EB
:10174000DDCF382F3171313019F78E7F8860E0CFCF
:10175000282F2171213121F78E7E8861E1CFCF932F
:10176000DF93EC0182389105A9F1D8F58133910519
:1017700009F496C048F58932910509F48AC08A9720
:1017800009F495C0C11522E5D20708F0C1C0C11502
:1017900031E5D30708F031C1C83ED10508F09CC03F
:1017A000C03ED10560F5C83AD10508F087C0C53AFA
:1017B000D10508F0FDC0C130D10509F12097F9F03D
:1017C000C430D105E0F440C08533910509F45AC016
:1017D000C997C1F680915704837089F0C0EED0E0BC
:1017E0000EC0833E910599F170F4803E910501F1A0
:1017F000823E910539F68091570482FD21C0CE01C9
:10180000DF91CF910895863E910561F1873E910564
:1018100071F1843E910509F0B5CF8091580481FFA4
:10182000EECF80915704C7EED0E084FD0DC0E7CF26
:101830008091570480FD17C19091580490FFDFCF2D
:10184000C3EED0E084FFDBCFD0E0C0E0D8CF809102
:10185000570482FD0BC19091580490FDBFCF84FFC7
:10186000CECFF2CF8091570483FDDDCFC8CF8091DA
:10187000570483FDFEC09091580491FFF0CFC4EE51
:10188000D0E0BDCF8091570485FFB9CFC9E2D0E049
:10189000B6CF8091570485FFB2CFC5E3D0E0AFCF7C
:1018A0008091570486FFABCFCAE2D0E0A8CF8091E9
:1018B000570486FFA4CFC1E3D0E0A1CFCF3BD10531
:1018C00018F6C85AD0E0CC0FDD1FCA53DE4F09907E
:1018D000D881C02DD46493CFC11540E2D40758F409
:1018E000C11581E0D80708F08ACFCD3ED10508F4B4
:1018F000ABCFD06584CFC11590E4D90708F4A4CF4D
:10190000C11520E5D20708F05BC0DF70D06A77CF41
:10191000C11536E5D30718F5C11545E5D40708F01C
:1019200084C0C11584E5D80708F07AC09C2F96952D
:1019300096959E0123703327C115D34508F462C0E4
:10194000C1E0D0E002C0CC0FDD1F2A95E2F730E203
:10195000939FC0011124C82BD92BDA6850CFC11531
:1019600089E5D80768F4C11598E5D90708F068C07B
:10197000C11527E5D20708F067CFDD27D0663FCF36
:10198000C1153AE5D30708F460C0CE019056811521
:10199000904208F059CF8D2F8F710E946C0B90E010
:1019A000982F882788279F719C012C2BE90146C01E
:1019B000C55AD0E0CD53DE4FC881D0E0D0641FCFF0
:1019C000CE01E4E096958795EA95E1F783702C2F98
:1019D00026952695237090E2299F90011124382B9B
:1019E0008C2F8370C1E0D0E002C0CC0FDD1F8A9540
:1019F000E2F7C22BD32BDC6802CFDC2FCC27C16FE0
:101A0000D06AFDCEC1E0D0E002C0CC0FDD1F2A9528
:101A1000E2F720E2929FC0011124C82BD92BEBCF13
:101A2000DC2FCC27C46FD06AEACE8C2F0E946C0BBF
:101A3000C82FD0E0DC2FCC27CC27DF71D062DFCEDF
:101A4000DC2FCC27C06FD06ADACE8C2F8F700E942B
:101A50006C0B34E0D695C7953A95E1F7CF709C2F83
:101A6000EC01D069CCCEC9E3D0E0C9CEC2EED0E063
:101A7000C6CEC6EED0E0C3CE0C94D6088091C1028B
:101A800081111092C1020895809590914704982386
:101A90009093470408958091470490914604892BC0
:101AA0009091C002892B809330029091C1029923BA
:101AB000A1F0892B809330028091C201882341F1EB
:101AC0008091570487FF24C08EE1E2E3F2E090E0CA
:101AD000815000F591110E943E0DE0914A04F09171
:101AE0004B043097E1F08091C201882359F0809136
:101AF000570487FF07C0809130028093310285E050
:101B0000809330020280F381E02D80E392E009941B
:101B100086E0DBCF21912223D9F29F5FD9CF0895B0
:101B2000CF93DF93EC0181E0898B809147049F8103
:101B3000892B80934704809146049885892B809354
:101B400046040E944B0DEA81FB81309739F06C8985
:101B50007D89CE010696DF91CF910994DF91CF91D7
:101B60000895EF92FF920F931F93CF93DF93EC01B1
:101B70008A85811139C0EB80FC8087E5F81A26E15F
:101B80002E9DC0012F9D900D1124DC01A659BE4F42
:101B90001496ED91FC911597309731F054966D9114
:101BA0007C9180599E4F099586E18E9D80018F9D85
:101BB000100D112406591E4FF80187810E94440D13
:101BC000F8018085982F9095809146048923809311
:101BD00046040E944B0D188219861B861E821D82A8
:101BE0001092450410924404DF91CF911F910F9100
:101BF000FF90EF9008958091BE0290918D0298130E
:101C000001C008958F5F8770FACFAF92BF92CF92D5
:101C1000DF92EF92FF920F931F93CF93DF93C090C9
:101C20008E04D0908F04E0909004F0909104409145
:101C3000C2025091C3026091C4027091C502C42ACD
:101C4000D52AE62AF72ACFE1D0E0082F10E026E0D7
:101C5000929F000D111D11249CE3A92EBC2ED701CB
:101C6000C6010C2E04C0B695A795979587950A9442
:101C7000D2F780FD0FC0219788F7B12C8B2DDF9113
:101C8000CF911F910F91FF90EF90DF90CF90BF9079
:101C9000AF900895AC9EF001AD9EF00D1124E00FC1
:101CA000F11FEE0FFF1FE457FD4F859194910E94A5
:101CB000AF0B019701F3E2CFCF93DF93EC010E94CA
:101CC000050EEC2FF0E096E0D99FE00DF11D1124F8
:101CD0009CE3899FE00DF11D1124EE0FFF1FE457D7
:101CE000FD4F85919491DF91CF910C94AF0BE92F2B
:101CF000EE0FE90FEE0F8E0F982F97708695869551
:101D0000869525E0829FF0011124E35AFD4F50E0B3
:101D100040E080E0219130E0092E02C03695279501
:101D20000A94E2F721703327042E01C0220F0A948F
:101D3000EAF7822B4F5F5F4F4530510559F7089501
:101D4000E92FEE0FE90FEE0F8E0F982F977041E0FD
:101D500001C0440F9A95EAF786958695869595E099
:101D6000899FF0011124E35AFD4F30E020E070E03C
:101D70005191DF011197CB01022E02C096958795F4
:101D80000A94E2F7817081958527842385278C93B7
:101D90002F5F3F4F2530310559F70895FC018081B1
:101DA00091810E945C0E292F2F7092959F70925006
:101DB0009E3078F4E92FF0E0E159F94C0C94C235EB
:101DC000803F19F020F4883E20F481E00895843F9C
:101DD000E1F380E00895883EC0F3813FD1F7F5CF6D
:101DE000822F8695869586950895882341F0809563
:101DF000909146048923809346040C944B0D0895DA
:101E0000882339F090914604982B909346040C94C3
:101E10004B0D0895882321F00E94440D0C944B0D26
:101E20000895882339F090914704982B90934704A4
:101E30000C944B0D08959C013A9521153F4150F5A6
:101E4000FC01EE27F170BC0166277270AC014427DB
:101E500054709C012227387094FF0EC080E1EF2B54
:101E600009F480E0672B09F08062452B09F080645B
:101E7000232B89F08068089581E0EF2B09F480E03E
:101E8000672B09F08260452B09F08460232B19F041
:101E90008860089580E00895CF93DF93682F81E0F4
:101EA0006A3019F06D3029F480E0DF91CF910C9405
:101EB000DB0F80919B0690919C0626E0FC01A5E932
:101EC000B6E001900D922A95E1F7603E08F45AC001
:101ED00026E0FC0111922A95E9F7C0919B06D0916A
:101EE0009C0646E050E0BE0185E996E00E940F3670
:101EF0009E0125593440892B41F1C90145E0969551
:101F000087954A95E1F741E050E0BA0102C0660FBB
:101F1000771F8A95E2F7CB01609193047091940446
:101F2000862B972BB9016B5F7F4FE5E07695679520
:101F3000EA95E1F702C0440F551F6A95E2F7842B3A
:101F4000952B90939404809393042A5F3F4F409184
:101F50009204642F70E0C9010E946C35481B463022
:101F600010F4240F311D211572E0370710F030E016
:101F700020E02B563B4F30939C0620939B06DF912D
:101F8000CF910895F6E06F9FB00111246356774F0B
:101F900046E050E00E94F935A0CFCF93DF93EC01EB
:101FA000FE018491811103C0DF91CF9108950E94B9
:101FB0004C0F2196F5CFCF93382FE0919B06F091EF
:101FC0009C06E559F44020919204622F70E0CF0105
:101FD0000E946C35281B822F332361F066E00E943B
:101FE0008035C82FC15010F4CF91089580E20E942F
:101FF0004C0FF8CF9F01280F311D2115324018F0EA
:1020000080E0F0E0E0E08E0F9F2F911D8B569B4FFC
:1020100090939C0680939B06E7CFCF92DF92EF923E
:10202000FF920F931F93CF93DF936C017B0164E6C4
:1020300070E088E70E944932EC0197FD12C010E081
:1020400000E0F601E00FF11F849164E670E00E9469
:10205000C332EC01892B29F40F5F1F4F0E151F05AA
:1020600081F70E944633CE01DF91CF911F910F91EE
:10207000FF90EF90DF90CF900895CF93C0914204EE
:10208000809143048823D1F00E94D608605A75419C
:102090008F4F9F4F60933E0470933F0480934004A2
:1020A00090934104C11108C062E070E08AE297E0B9
:1020B0000E940D10892B29F0C09142048C2FCF91E2
:1020C000089581E080934204F7CF90918104943089
:1020D00031F58093590470935B0460935A0482E055
:1020E0008093E9008FEF9091E800815095FD06C044
:1020F00095ED9A95F1F700008111F5CF8091E800F8
:1021000085FF0DC050E040E063E070E089E594E0B9
:102110000E9488078091E8008E778093E8000895F8
:10212000BC0184E00C946510BC0183E00C94651044
:102130009C0182E08093E9009FEF8091E80091503C
:1021400085FD06C085ED8A95F1F700009111F5CF68
:102150008091E80085FF0CC050E040E066E070E050
:10216000C9010E9488078091E8008E778093E8007B
:102170000895CF93DF93EC018091C2018823B1F1E0
:102180008091570487FF32C060E282E08093E900CB
:102190008FEF9091E800815095FD06C095ED9A95DE
:1021A000F1F700008111F5CF8091E80085FF1BC099
:1021B0008091C20170E050E040E0811104C050E025
:1021C00040E068E070E0CE010E9488078091E8005E
:1021D0008E778093E80080E2FE01AFE5B4E00190E5
:1021E0000D928A95E1F7DF91CF91089568E081E043
:1021F000CDCF4F925F926F927F928F929F92AF92CC
:10220000BF92CF92DF92EF92FF920F931F93CF93E3
:10221000DF9300D000D00F92CDB7DEB750906601AB
:102220009091390490FF3DC080905A0390905B03D9
:102230008114910409F048C08091650143E0849FB6
:10224000C001112489599C4F539A2BB1277F3BB170
:1022500038605FB7F894BC01549E600D711D112465
:102260008617970709F08CC05FBF8FE594E0019750
:10227000F1F700C000000F900F900F900F900F909B
:10228000DF91CF911F910F91FF90EF90DF90CF9052
:10229000BF90AF909F908F907F906F905F904F9086
:1022A0000895809167012091680133E0839FF001D8
:1022B0001124E959FC4F821708F0B6CF1182108221
:1022C00012828F5F3396F7CF90FFB6CFD12CC12CFF
:1022D00066246394712C53E0452E8091650393012D
:1022E0000C2C01C0220F0A94EAF7822309F43FC0A4
:1022F000F601EE0FFF1FE80DF91DE590F490E114D3
:10230000F10409F499CF45E050E0B701CE01019600
:102310000E94F93509810F3F51F18A81800F992779
:10232000991F8734910514F086E490E05C01AA0CB3
:10233000BB1C8A0D9B1DFC01E959FC4F5F01049DEC
:102340008001112409591C4F0A151B0520F0F5E0E6
:10235000EF0EF11CD8CF4D81493708F048E79801BE
:102360006C818B810E94A6090D5F1F4FEDCF2FEF6F
:10237000C21AD20A38E0C316D10409F0AECF5CCF3E
:10238000FC014191CF01E8E03BB9000000C047FFEC
:102390002BB9440F000000C000C000C02BB900C022
:1023A000EA9591F75DCF8F929F92AF92BF92CF92B5
:1023B000DF92EF92FF920F931F93CF93DF93EC0185
:1023C0004C81042F10E09801D8010E94D0359B0168
:1023D000AC010E94E6354B015C01E0E2F0E0E01B5D
:1023E000F10BA5E5B0E0AC019B010E94E6356B0165
:1023F0007C019F01DF010E94C8359B01AC010E9456
:10240000F1359B01AC01280D391D4A1D5B1DC7012B
:10241000B6010E94A035F22E822F90E039E23F15DE
:1024200060F143E0249F9001112435952795122FE8
:10243000109500E085E5E82EEF18809169010817F6
:1024400058F10E94F9109C8181E0992319F0903293
:1024500019F48FEF8093640180916401890F8C835C
:10246000DF91CF911F910F91FF90EF90DF90CF9070
:10247000BF90AF909F908F90089525E530E0B9010F
:10248000681B790B9B01220F331F260F371F37FF65
:10249000CCCF2F5F3F4FC9CF8E2D01FD8F2D2091C7
:1024A0006701622F600F7727771F9B01220F331F71
:1024B000260F371F29593C4F412F193708F048E79D
:1024C00060913B040E94A6090F5FB7CFEF92FF9285
:1024D0000F931F93CF93DF93EC018C81811109C07F
:1024E00081E08C831092660392E090936301809365
:1024F0006201809167019091680123E0829FF00161
:102500001124E959FC4F891768F110E003E060914C
:102510006901161768F10E94F910809162012091FB
:102520006603280F2093660390916301980F9093A0
:102530006301191654F4022E000C330B409169010B
:102540004150550B2417350734F081958093620173
:10255000813009F41C82DF91CF911F910F91FF9080
:10256000EF9008951182108212828F5F3396CBCF45
:10257000E12EF12C70E0C7010E948C35209167019B
:10258000820F482F50E020916603022E000C330B7F
:10259000E216F306D4F020916301022E000C330BF7
:1025A0002E153F0594F0809F9001112429593C4F2E
:1025B00040913C04493708F048E760913B04809122
:1025C0003A040E94A6091F5FA2CFFA01EE0FFF1F77
:1025D000E40FF51FE959FC4F118210821282F3CFEC
:1025E000EF92FF921F93CF93DF93EC0110E0EE2464
:1025F000EA94F12C60916901161770F00E94F910AD
:102600009A818C8190FF2AC08F5F8C83DF91CF915C
:102610001F91FF90EF90089520916701422F410F85
:102620005527551FCA019A01220F331F280F391F42
:1026300029593C4F40913C04493708F048E770E085
:10264000C7010E948C35962F8C8160913B04199FA5
:10265000800D11240E94A6091F5FCCCF8150D5CFD9
:102660009091390490FF14C0909167012091680106
:1026700033E0939FF0011124E959FC4F921710F0B9
:102680000C94F9108183608342839F5F3396F6CF69
:1026900008950F931F93CF93DF9300D00F92CDB780
:1026A000DEB78C01DC011496EC91F0E0E65DF94FA9
:1026B00044918091390480FF11C0493708F048E700
:1026C0009E012F5F3F4F60913B0480913A040E942E
:1026D000A6094B8169818A810E943013F8018481A7
:1026E0008F5F84830F900F900F90DF91CF911F9198
:1026F0000F910895E9E3F4E080818E7F80830E944A
:102700008909E2E6F3E08281816082832FEF80E72E
:1027100092E0215080409040E1F700C000000C940E
:10272000F9109F92AF92BF92CF92DF92EF92FF92F9
:102730000F931F93CF93DF937C015B016A0180911C
:10274000FA0201E010E08A3010F40AE010E0C1E083
:10275000D0E0F894B501C701F6010995982E0E94C2
:10276000530B911004C021960C171D076CF4892D92
:10277000DF91CF911F910F91FF90EF90DF90CF905D
:10278000BF90AF909F900895CC9F9001CD9F300D4A
:10279000300D112490E080E045E34A95F1F7000008
:1027A000019682179307C1F7D4CF8091CF02811190
:1027B00010C08091D80080618093D8008AE18A950A
:1027C000F1F700C08091D90080FF0AC081E08093BA
:1027D000CF0281E09091CF02913009F080E008951E
:1027E00082E08093CF020E94380710928104F1CFDB
:1027F0000F931F930E94D513882321F01F910F91EF
:102800000C94D6080E94D60800914E0410914F04F3
:102810002091500430915104600F711F821F931F4B
:102820001F910F9108950E94D513882351F0E091D4
:102830004A04F0914B04309721F00190F081E02D93
:10284000099480E00895CF92DF92EF92FF926B019E
:102850007C010E949009B701A60188E090E0FF90FA
:10286000EF90DF90CF900C944B36EF92FF920F9346
:102870001F93CF93DF9300D00F92CDB7DEB7082F11
:10288000F62E142FE22E8091390480FF3DC0E82FF0
:10289000E695F0E0E25EFD4F9081909362038E7FBB
:1028A0008230E1F5493708F048E79E012F5F3F4F3E
:1028B0006F2D802F0E94A6094B8169818A810E9419
:1028C000301380913A04801308C080913B048F112B
:1028D00004C080913C04811729F0809164038260D8
:1028E0008093640300933A04F0923B0410933C04F9
:1028F000EE2051F06091390470913A0480913B04CC
:1029000090913C040E9423140F900F900F90DF9140
:10291000CF911F910F91FF90EF900895923019F48D
:1029200010913C04CECF963061F600913A04C9CFA5
:10293000E9E3F4E0438121E1421B08F440E021E0B7
:10294000628181810C943514E9E3F4E0438121E153
:10295000420F08F44FEF21E0628181810C9435141D
:10296000E9E3F4E0628121E1621B08F460E021E028
:10297000438181810C943514E9E3F4E0628121E123
:10298000620F08F46FEF21E0438181810C943514CC
:10299000E9E3F4E0818121E0438162818A500C9473
:1029A0003514E9E3F4E0818121E043816281865FAF
:1029B0000C94351480913D04882319F08150809344
:1029C0003D046091390470913A0480913B049091E8
:1029D0003C040C94231480913D04833018F48F5FE1
:1029E00080933D046091390470913A0480913B04D6
:1029F00090913C040C942314E9E3F4E083E0808399
:102A000011828FEF828388E783831482A2E6B3E08A
:102A100012968C911297836012968C9360817181CB
:102A2000828193810C942314CF9384E090E00E94E0
:102A30002536C82F82E290E00E942536982F8C2FF1
:102A4000CF910895CF93DF93CDB7DEB729970FB617
:102A5000F894DEBF0FBECDBF85E0E9E3F4E0DE0110
:102A6000119601900D928A95E1F780916203909101
:102A70006303A0916403B09165038E839F83A8874D
:102A8000B98728854091F6025091F7026091F802CB
:102A90007091F9023FB7F8948091530490915404D7
:102AA000A0915504B09156043FBF841B950BA60B13
:102AB000B70B84369105A105B10510F4222319F155
:102AC00080914601909147018F519D4F4091450162
:102AD00050E04A30510510F049E050E0BE016F5F10
:102AE0007F4F0E941C3685E090E00E94B834892B0D
:102AF000B1F40E94D6086093F6027093F7028093B7
:102B0000F8029093F9021092640381E029960FB6BF
:102B1000F894DEBF0FBECDBFDF91CF91089580E066
:102B2000F5CFCF93DF9300D000D0CDB7DEB7409183
:102B3000DD025091DE026091DF027091E0022FB75A
:102B4000F8948091530490915404A0915504B0914D
:102B500056042FBF841B950BA60BB70B843691052B
:102B6000A105B10568F10E94F8136E5F7F4F8F4F8A
:102B70009F4F69837A838B839C8380913C019091E2
:102B80003D018F519D4F40913B0150E04530510533
:102B900010F044E050E0BE016F5F7F4F0E941C3692
:102BA00084E090E00E94B834892B61F40E94D6083A
:102BB0006093DD027093DE028093DF029093E00267
:102BC00081E001C080E00F900F900F900F90DF9197
:102BD000CF9108956F927F928F929F92AF92BF9202
:102BE000CF92DF92EF92FF920F931F93CF93DF93D9
:102BF0000F92CDB7DEB7862E5A016901682E880F75
:102C00007708C3010E94B834892B09F088C08AE094
:102C1000869DF001879DF00D1124EF5EFE4F4581EA
:102C200050E04115510511F041E050E08AE0869DE9
:102C3000F001879DF00D1124EF5EFE4F66817781D4
:102C40006F517D4FCE0101960E941C36F5014081E7
:102C50005181628173812FB7F894809153049091D0
:102C60005404A0915504B09156042FBF841B950BBA
:102C7000A60BB70B84369105A105B10540F4B70149
:102C8000C8010E946D099981891709F44FC0082C69
:102C9000000C9908C4010E94B834892B91F0B12C22
:102CA0008B2D0F90DF91CF911F910F91FF90EF909F
:102CB000DF90CF90BF90AF909F908F907F906F905C
:102CC00008958AE0889DF001899DF00D1124EF5E42
:102CD000FE4F458150E0E416F50608F4A7018AE0AE
:102CE000889DF001899DF00D1124EF5EFE4F6681F5
:102CF00077816F517D4FC6010E941C36B701C80114
:102D00000E946D0999818913CACF0E94D608F501E6
:102D10006083718382839383BB24B394C1CFB12C2E
:102D2000A701B801C6010E941C36BACFBB24B394D8
:102D3000F7CFCF92DF92EF92FF920F931F93CF9333
:102D4000DF9300D000D00F92CDB7DEB76B0185E0E6
:102D5000E82EF12C02EE12E09E012F5F3F4F45ED71
:102D600052E061E080E00E94EA15882349F095E096
:102D7000FE013196A0EDB2E001900D929A95E1F737
:102D800095E0E0EDF2E0D60101900D929A95E1F721
:102D90000F900F900F900F900F90DF91CF911F9198
:102DA0000F91FF90EF90DF90CF90089569EE7EEF46
:102DB00090E080E00E94573660E082E090E00E9460
:102DC000393660E083E090E00E9439361092C2020A
:102DD0001092C3021092C4021092C50260E084E017
:102DE00090E00E94393660E082E290E00E9439363D
:102DF00060E085E090E00E94393660E086E090E097
:102E00000E9439366FEF87E090E00E94393640E04B
:102E100050E0BA0188E090E00E944B3660E08DE01F
:102E200090E00E94393640E050E0BA0188E190E03D
:102E30000E944B3660E087E190E00E94393640E026
:102E400050E0BA018CE190E00E944B3670E060E007
:102E500080E290E00E94573640E050E0BA0188E1FD
:102E600090E00E944B3640E050E0BA018FE090E0E5
:102E70000E944B3640E050E0BA0183E190E00C94B0
:102E80004B36CF93C0915804C2FB992790F99817FD
:102E900081F080FBC2F9C09358046091570484E02C
:102EA00090E00E9439366C2F82E290E0CF910C9432
:102EB0003936CF9108951F920F920FB60F921124B9
:102EC0002F933F934F935F936F937F938F939F9332
:102ED000AF93BF93EF93FF938091E10082FF09C00E
:102EE0008091E20082FF05C08091E1008B7F80939A
:102EF000E1008091DA0080FF24C08091D80080FF3B
:102F000020C08091DA008E7F8093DA008091D90012
:102F100080FF9BC080E189BD82E189BD09B400FECC
:102F2000FDCF81E08093810480915C04811109C010
:102F30000E9438070E9403088091E2008460809319
:102F4000E2008091E10080FF17C08091E20080FFE5
:102F500013C08091E2008E7F8093E2008091E200B6
:102F600080618093E2008091D80080628093D800D5
:102F700019BC85E0809381048091E10084FF29C021
:102F80008091E20084FF25C080E189BD82E189BD96
:102F900089B5982F917080FFFBCF8091D8008F7DED
:102FA0008093D8008091E1008F7E8093E100809132
:102FB000E2008F7E8093E2008091E2008160809346
:102FC000E20080918204882309F445C084E0809364
:102FD00081048091E10083FF27C08091E20083FF9C
:102FE00023C08091E100877F8093E10082E080939D
:102FF0008104109282048091E1008E7F8093E10031
:103000008091E2008E7F8093E2008091E2008061F7
:103010008093E20042E060E080E00E94D10780916E
:10302000F00088608093F000FF91EF91BF91AF9125
:103030009F918F917F916F915F914F913F912F91D0
:103040000F900FBE0F901F90189519BC109281041D
:1030500010925C0476CF8091E30087FD93E090931B
:103060008104B7CF78941F921FB61F9211248F93BB
:103070009F93AF93BF938091530490915404A09178
:103080005504B09156040196A11DB11D80935304BF
:1030900090935404A0935504B0935604BF91AF91FC
:1030A0009F918F911F901FBE1F9018959C014FB745
:1030B000F8948091530490915404A0915504B091D8
:1030C00056044FBF821B930B08952FB7F89480913D
:1030D000530490915404A0915504B09156042FBF0D
:1030E00008950E94D51381110C9465180E94F8135D
:1030F000CB01089560913904669570E041E050E09D
:1031000081E691E00E940236892B19F481E08093D8
:1031100063030E94711890935D0380935C03809118
:10312000640384608093640308959091390490FF50
:103130003BC0917081112EC09260909339048091B0
:103140006403816080936403662351F060913904C5
:1031500070913A0480913B0490913C040E942314A6
:1031600060913904669570E041E050E081E691E0BD
:103170000E940236892BA9F00E94890981E0809380
:103180005F0320E040913C0460913B0480913A044D
:103190000C943514803110F09E61CFCF880F982B9E
:1031A000CCCF0E947A18EACF089521E030E0A9013F
:1031B00002C0440F551F8A95E2F7CA0120916503AA
:1031C000662391F0822B8093650380916403806174
:1031D0008093640380916303811109C08091390455
:1031E00060E086950C94951880958223ECCF089525
:1031F000CF92DF92EF92FF926B017C01C114D10458
:10320000E104F10419F060E0C0FE10C08091C20238
:103210009091C302A091C402B091C50261E070E038
:103220000097A105B10511F08170682F617080E0F1
:103230000E94D51860E0C114D104E104F10441F00A
:10324000D701C601B695A79597958795682F6170A8
:1032500081E00E94D51860E0C114D104E104F104BA
:1032600059F0D701C60132E0B695A7959795879595
:103270003A95D1F7682F617082E00E94D51860E01E
:10328000C114D104E104F10459F0D701C60123E0CF
:10329000B695A795979587952A95D1F7682F617070
:1032A00083E00E94D518C701B601FF90EF90DF9030
:1032B000CF900895809139048695815009F48FE06C
:1032C00061E00C9495188091390486958F5F803168
:1032D00008F081E061E00C9495189091390490FF1A
:1032E00007C09695981720F0961710F40C94631960
:1032F00061E00C9495180E9465189C01909156030A
:1033000080915703982B21F030935303209352035D
:103310009091580380915903982B21F030935103D9
:1033200020935003E0914A04F0914B04309749F008
:1033300082E0809354030480F581E02D84E593E0DE
:103340000994089590E080E00E94570990E080E0A1
:103350000E944109109246041092C0020E944B0D37
:1033600086E0E4E5F3E0DF011D928A95E9F710922B
:103370004E0310924D0310924F030C947B190E9440
:10338000F81860938E0470938F0480939004909348
:1033900091040C94A2190F931F9360918E04709165
:1033A0008F0480919004909191048B019C01067090
:1033B000112722273327063011052105310529F46D
:1033C00068601F910F910C94BF19677FFACF0F931C
:1033D0001F9341E050E060E070E004C0440F551FCF
:1033E000661F771F8A95D2F7CB01BA016095709559
:1033F0008095909500918E0410918F0420919004F7
:103400003091910460237123822393231F910F91A4
:103410000C94BF199091BF02809589238093BF02BD
:10342000282F277039F4282F082E000C330B921701
:10343000130621F49091580492FF07C08595859555
:1034400085950E94E7191092BF0208950F931F936C
:1034500041E050E060E070E004C0440F551F661F7B
:10346000771F8A95D2F780918E0490918F04A09156
:103470009004B09191048A019B01082B192B2A2BEF
:103480003B2BC901B8011F910F910C94BF19609398
:10349000C2027093C3028093C4029093C5020C943D
:1034A000A219109247048091C201E2E3F2E088235E
:1034B00059F08091570487FF07C08EE1DF011D920C
:1034C0008A95E9F70C94A21986E0F8CF1F93CF9361
:1034D000DF93CDB7DEB7AA970FB6F894DEBF0FBE65
:1034E000CDBF83E894E02091F100FC012193CF014E
:1034F000F4E08B389F07B9F780918404833009F496
:103500006FC0B8F4813009F446C0823009F4B0C00D
:103510008091E80083FF7BC28091830490918404B2
:103520009A3008F074C2E92FF0E0E358F94C0C949B
:10353000C2358A3009F48BC08B3009F46EC08930F3
:1035400039F780918304813219F780918704909133
:1035500088040297E8F68091E800877F8093E8006E
:103560008091E80082FF37C09091F3008091F200D3
:10357000029729F48091F1008B7F813021F48091B2
:10358000F10080935E048091E8008B778093E800DF
:103590000E94B207BDCF80918304813A09F0B8CF71
:1035A0008091E800877F8093E80080918704909164
:1035B0008804892B61F460E28FE594E070E00E945A
:1035C00064088091E8008B778093E800A1CF60E0E9
:1035D00090E080E0F3CF809181048111C1CF98CF3A
:1035E00080918304813A09F093CF80918704909170
:1035F0008804892B09F08CCF8091E800877F809325
:10360000E8008091E80080FFFCCF8091C2018093A8
:10361000F1008091E8008E77B9CF809183048132E8
:1036200009F076CF8091870490918804892B09F066
:103630006FCF8091E800877F8093E8000E94B207F7
:10364000809185048093C2010E94511A61CF8091BC
:103650008304813209F05CCF8091E800877F8093FA
:10366000E8000E94B2078091860480935D0450CFE9
:1036700080918304813A09F04BCF8091E800877FE5
:103680008093E8008091E80080FFFCCF80915D048A
:10369000BECF803899F0823809F0B9C18091870493
:1036A0008F70873008F0B3C18093E9008091EB0000
:1036B00085FB882780F91092E90006C080917F047D
:1036C00090918004911182609091E800977F90938F
:1036D000E8008093F1001092F1008091E8008E776D
:1036E00092C1882309F480C1823009F090C1809191
:1036F0008504811183C1809187048F702FEF280F7B
:10370000263008F084C18093E9002091EB0020FF6F
:1037100075C1933031F48091EB0080628093EB00AF
:103720006DC19091EB0090619093EB0021E030E04F
:1037300001C0220F8A95EAF72093EA001092EA006E
:103740008091EB008860EACF811161C110918504FE
:103750001F778091E3008078812B8093E300809134
:10376000E800877F8093E8000E94B2078091E8001C
:1037700080FFFCCF8091E30080688093E30082E0CB
:10378000111183E08093810442C18058823008F097
:103790003EC180918504909186048C3D23E0920780
:1037A000A1F583E08A838AE289834FB7F894DE012A
:1037B000139620E03EE051E2E32FF0E050935700F3
:1037C000E49120FF03C0E295EF703F5FEF708E2F12
:1037D00090E0EA30C0F0C7968D939D932F5F24311F
:1037E00059F74FBF8091E800877F8093E8006AE235
:1037F00070E0CE0101960E9464088091E8008B770A
:103800008093E80004C1C096E7CF409187045091AF
:103810008804292F33272330310509F444C078F573
:103820002130310509F46FC08BE390E0E2E2F8E06B
:103830002230310509F0EBC02091E800277F20936A
:10384000E8002091890430918A048217930708F4D4
:103850009C0140E02115310509F064C0411162C0AE
:103860008091E80082FDC9CF80918104882329F2EC
:10387000853019F28091E80083FFF2CFBECF21326C
:103880003105A9F12232310509F0C1C041155105B8
:1038900009F443C04130510509F0B9C086EB90E00E
:1038A000ECE2F7E0C9CF992781309105C1F000978C
:1038B00059F0029709F0ABC0EFE6F8E0E4918E2FE3
:1038C00090E0EFE6F8E007C0E9E9F8E0E4918E2F38
:1038D00090E0E9E9F8E0009709F499C0ADCFEDE791
:1038E000F8E0E4918E2F90E0EDE7F8E0F4CF411599
:1038F000510571F04130510509F089C089E090E02F
:10390000EDE4F8E099CF82E190E0EDE5F8E094CFC6
:1039100089E090E0E4E3F8E08FCF80E490E0E2EE2D
:10392000F7E08ACF80918104882309F466CF85303F
:1039300009F463CF8091E80083FD5FCF8091E800B8
:1039400082FD8ECF8091E80080FF84CF9091F300BC
:103950008091F2002115310519F08830910550F061
:1039600041E0089709F040E08091E8008E7780936D
:10397000E80070CF44914093F10031962150310915
:103980000196E8CF803809F042C08091E800877F37
:103990008093E800809182048093F1009ECE811193
:1039A00036C010918504123090F58091E800877F31
:1039B0008093E800109382040E94B207112311F053
:1039C00084E005C08091E30087FDFACF81E0809319
:1039D000810442E061EC81E00E94D10742E261ECA7
:1039E00082E00E94D10713C080918504813079F470
:1039F00081E0933009F080E0809380041092E90028
:103A00008091E800877F8093E8000E94B207809150
:103A1000E80083FF0AC08091E800877F8093E80078
:103A20008091EB0080628093EB00AA960FB6F89429
:103A3000DEBF0FBECDBFDF91CF911F9108951F92C2
:103A40000F920FB60F9211242F933F934F935F93D2
:103A50006F937F938F939F93AF93BF93CF93DF9396
:103A6000EF93FF93D091E900DF708091EC00C82FB5
:103A7000C17080FDC0E81092E9008091F000877F5E
:103A80008093F00078940E94661A1092E900809169
:103A9000F00088608093F000CD2BCF70C093E900D8
:103AA000FF91EF91DF91CF91BF91AF919F918F9156
:103AB0007F916F915F914F913F912F910F900FBE2A
:103AC0000F901F901895882379F19CEF980F913AE9
:103AD00038F4682F80E392E00E94E2080C944B0DCA
:103AE00090E2980F983050F4877091E001C0990FE0
:103AF0008A95EAF7892F0E94440DF0CF9BE5980F35
:103B0000933020F490E080E00C94570998E5980FEA
:103B1000973120F490E080E00C9441098D3E20F034
:103B20000E943C0A0C947B190895CF93DF93EC011B
:103B30000E94631DCE010E941B0F9E01205E310971
:103B40002830310510F0CD2B21F4DF91CF910C946A
:103B50000A0FDF91CF910C94F50EEFE3FCE931975A
:103B6000F1F700C00000FC018081813029F4FB01E5
:103B7000808191810C94951D823021F4FB0182811A
:103B80009381F8CF0895CF93C82F882309F46FC08D
:103B90008CEF8C0F813AC0F58091C201882311F11E
:103BA0008091570487FF1EC0EC2FE695E695E695B9
:103BB000F0E0E05DFD4F828190E04C2F477021E006
:103BC00030E002C0220F331F4A95E2F7822393238D
:103BD000892B91F06C2F80E392E00E94E2080E9412
:103BE0004B0D0AC0E2E3F2E088E392E02191C217B4
:103BF00089F38E179F07D1F76C2F80E392E00E9424
:103C00000C09CF910C944B0D80E28C0F883068F436
:103C1000C77021E030E001C0220FCA95EAF7809119
:103C20004704822B80934704ECCFEBE5EC0FE330A5
:103C300040F4F0E0ED53FE4F808190E0CF910C9482
:103C40005709E8E5EC0FE73150F4F0E0EE0FFF1F05
:103C5000EA53FE4F80819181CF910C944109CD3E72
:103C600030F08C2F0E94F70ACF910C947B19CF91E2
:103C700008951F93CF93DF93182FEB010E94C31D6C
:103C80008FE99FE00197F1F700C000002197C1F78D
:103C9000812FDF91CF911F910C94631D0F931F9380
:103CA000CF93DF93C62FD42F022FFC01828188236C
:103CB000A1F060938D040E94651890938C0480930A
:103CC0008B04C77081E001C0880FCA95EAF7DF91C5
:103CD000CF911F910F910C94110F80918D04681357
:103CE00037C080918B0490918C040E945618883CB8
:103CF000910570F510E21D0FCD17B9F080E28C0F21
:103D0000883040F4C77081E001C0880FCA95EAF797
:103D10000E940A0F183048F481E09D2F977001C06F
:103D2000880F9A95EAF70E94110F6AE070E0802FE1
:103D30000E94391E183098F4D77081E001C0880FB6
:103D4000DA95EAF7DF91CF911F910F910C940A0F4A
:103D5000C77081E001C0880FCA95EAF7F3CFDF9101
:103D6000CF911F910F91089581110DC0662339F0F5
:103D70006AE070E089EA0E94391E81E008956AE0F5
:103D800070E08AEAF8CF8130C1F7662321F06AE05B
:103D900070E081E5F0CF6AE070E082E5ECCFCF9291
:103DA000DF92EF92FF920F931F93CF93DF930F92C7
:103DB000CDB7DEB7EE24E394F12C08EE12E09E01BD
:103DC0002F5F3F4F49ED52E063E082E00E94EA1529
:103DD000082F882321F1C09008038C2D90E09C01CE
:103DE000285E3C4F79011981F9018081181BD12E81
:103DF00080E00AC0DA94F70180818F5F808361E000
:103E00008C2D0E94B41E802F1D14A4F3912F17FD3A
:103E100090E0191B11110EC081110E943C0D802FE2
:103E20000F90DF91CF911F910F91FF90EF90DF9056
:103E3000CF9008951F5FF70180818150808360E0FB
:103E40008C2D0E94B41E802FE5CFCF93DF93EC0121
:103E50000E941B0F9E01205E31092830310510F0B1
:103E6000209739F40E94110F8C2FDF91CF910C9481
:103E7000C31D0E94000FF8CFFC018081813029F41E
:103E8000FB01808191810C94251F823021F4FB017C
:103E900082819381F8CF0895CF93DF93EC018881DD
:103EA000823039F4FB01828193810E94251F81E0D9
:103EB0008B87DF91CF9108959F92AF92BF92CF925F
:103EC000DF92EF92FF920F931F93CF93DF93CDB7C3
:103ED000DEB72F970FB6F894DEBF0FBECDBF8E01B1
:103EE0000F5F1F4F8AE0D8011D928A95E9F726EFF0
:103EF000C22E21E0D22EF12CE12CAA24A394B12CC5
:103F0000F60181916F018F3F09F44AC0F894E82FC0
:103F1000E295EF70F0E021A18F70A50102C0440F7F
:103F2000551F8A95E2F7CA01922F982B91A392A16F
:103F30008095892382A30E94530B00C0E0E0F2E049
:103F400030E020E0912C41914F3F09F47DC0A42F37
:103F5000A295AF70B0E090968C9190E04F7002C047
:103F6000959587954A95E2F780FD6EC08A2D022EC1
:103F700001C0880F0A94EAF7982A2F5F3F4F263036
:103F8000310509F7F601319780818F3F11F00E94CA
:103F9000550B50EA5A95F1F7F801EE0DFF1D90828E
:103FA0008FEFE81AF80A95E0E916F10409F0A8CFB6
:103FB0004AE050E0B8018BEF92E00E940F367C019E
:103FC000892B41F08AE0F801ABEFB2E001900D924D
:103FD0008A95E1F710910603E114F104B9F181E04B
:103FE0008093C8020E9465189093C7028093C6020E
:103FF0008091C6029091C7020E945618059770F0F2
:10400000ABEFB2E0E12FF0E0E55FFC4F8D918193E3
:1040100023E0A030B207D1F71092C80281E090E00F
:10402000EF28C1F02F960FB6F894DEBF0FBECDBFBC
:10403000DF91CF911F910F91FF90EF90DF90CF9084
:10404000BF90AF909F90089580E096CF8091C80276
:104050008111CECF0E94D513B82EE09106038E01B8
:10406000055F1F4F882309F4C5C085E0D8011D9264
:104070008A95E9F7F0E09F01255F3C4F7901809137
:10408000FA02AE01405F5F4F6A018A3008F043C018
:1040900049E956E1B801C7010E949113882309F448
:1040A00051C04FEC5EE1B801C7010E949113882313
:1040B00009F448C041E955E1B801C7010E949113D4
:1040C000882309F43FC042E255E1B801C7010E94CC
:1040D00091138823B9F11092FA02E0910503F0E000
:1040E000AF01455F5C4FD80110E0FA019191AF013B
:1040F0008D91981731F09F0121503109F90180838A
:104100001B2DAC15BD0589F7809110018F3F09F07B
:104110006DC0812F87CF8091C9029091CA020E9401
:104120005618843F914008F0B3CFE0910503F0E0CA
:10413000E55FFC4FD80111921D92CA16DB06D9F734
:104140001B2DE2CF8091FA028F3F29F08F5F809381
:10415000FA028A3010F20E9465189093CA02809386
:10416000C902E3CFD29EF001D39EF00D1124E6598F
:10417000FE4FA288B388A114B10419F498ECA92EBB
:10418000B12CD29EC001D39E900D11249C012659C2
:104190003E4F7901D90116968C9116978823C9F064
:1041A0001D968D919C910E945618A816B90688F408
:1041B0000D9D50011124F7018189811105C0C501B0
:1041C00086599E4F0E94900DC50180599E4F0E94B6
:1041D000B10D0F5F202F30E080911001082E000CF0
:1041E000990B821793070CF0BDCF93CF00E086E1C7
:1041F000D82EF0CFF0E0E55FFC4FF89485E0A2EE1A
:10420000B2E001900D928A95E1F765E070E082EEF0
:1042100092E00E946D098093E1020E94530BF89492
:10422000E0911B03F0E0E85EFC4F80818B87809378
:10423000E80261E070E0C8010E946D098093E70226
:104240000E94530BF894C090E902D090EA02E090EB
:10425000EB02F090EC028091CB029091CC02A09105
:10426000CD02B091CE02C816D906EA06FB06D1F0FF
:10427000C092CB02D092CC02E092CD02F092CE025C
:104280000E94D51381110EC00E94D608C61AD70A03
:10429000E80AF90AC0924E04D0924F04E09250040A
:1042A000F09251040E94530BF8948091F4028823F9
:1042B000A9F184FF04C09091F5029093650380FFFB
:1042C0000DC08091ED0280FF2DC090913904916066
:1042D0009093390460E086950E9495188091F402CD
:1042E00081FF09C020E04091F0026091EF028091CF
:1042F000EE020E9435148091F40282FF06C0809184
:10430000F302882391F00E947A188091F40283FFCF
:1043100003C081E080935F031092F4020E94530B6C
:1043200080E080CE0E947A13D9CF0E948909EDCF18
:104330004F925F926F927F928F929F92AF92BF92B5
:10434000CF92DF92EF92FF920F931F93CF93DF9361
:1043500000D000D00F92CDB7DEB77C01DC01139600
:104360008D919C911497892B41F01C911196DC90B2
:10437000812F8D218F3F09F033C70F900F900F9041
:104380000F900F90DF91CF911F910F91FF90EF90C1
:10439000DF90CF90BF90AF909F908F907F906F9065
:1043A0005F904F9008950E94050E082F682F898115
:1043B0009A810E94A00EE12FF0E0B6E0DB9EE00DB6
:1043C000F11D11242CE3029FE00DF11D1124EE0FCD
:1043D000FF1FE457FD4F05911491D70112968C9160
:1043E00081113EC00436BDE51B0709F4ACC030F5B1
:1043F0000336FDE51F0709F473C0C80197558F3FC9
:10440000910509F008F4BAC0043FFCE51F0709F460
:104410006CC108F055C1093D3CE5130709F461C1C1
:104420000A3D8CE5180709F46CC1083D9CE51907A5
:1044300009F0EBC026E241EE61EE4FC105362DE5F5
:10444000120709F48EC006363DE51307B1F6F701F1
:104450008281882309F48EC083E00E94261A50C00E
:10446000809110018F3F09F4BDCF7AE6C72E71E02D
:10447000D72EB12CA12C9924939480911001082E51
:10448000000C990B8A159B050CF4ACCFD60116963F
:104490008C9116978823E9F019968D919C9180173D
:1044A000910739F480914404909145048017910755
:1044B00081F0F6019786148703878189811103C0F3
:1044C000C6010E94900DC60106960E94B10D109281
:1044D0004604FFEFAF1ABF0A26E1C20ED11CCDCFB2
:1044E000D70112968C91882359F061E083E090E027
:1044F0000E94393661E070E080E090E00E94471A47
:104500008091BF02877009F438CFD70112968C9141
:10451000882309F432CF82E00F900F900F900F9014
:104520000F90DF91CF911F910F91FF90EF90DF904F
:10453000CF90BF90AF909F908F907F906F905F9043
:104540004F900C940A1AF7018281882331F081E0A0
:104550000E94261A0E94CB19D3CF81E00E94E7194E
:10456000F9CFD70112968C91882311F082E0F0CF19
:1045700082E0F4CF83E00E94E719C2CF20911001BE
:10458000022E000C330B2817390714F48093100106
:10459000D70112962C91129736E1389F5001399F1E
:1045A000B00C1124F501E659FE4F6F01208B1296D5
:1045B0009C918681992309F476C0128701878F5FC9
:1045C00086830E946518D6011E969C938E931D9734
:1045D0008091C10217968C93179780914604909111
:1045E0004704892B18968C931897ED91FC9111979D
:1045F000309739F054966D917C91C50180599E4F4A
:1046000009951093450400934404D70112968C91A8
:10461000882309F4F8C510928D040230BCE51B070D
:1046200008F44DC10631ECE51E0730F0C8018B5F80
:104630009C45099708F043C10E94141590935804B3
:10464000809357040031FCE51F0709F407C108F007
:1046500098C008303CE5130709F4F2C008F067C0C1
:1046600004309CE5190709F4E3C008F04DC002309E
:10467000BCE51B0709F4D6C0809157048260033063
:104680001C4509F4D2C0609157041091580484E08D
:1046900090E00E943936612F82E290E00E94393624
:1046A0000E94511A2DCF882309F4AFCF8189882326
:1046B00009F4ABCFC50180599E4F0E94B10DA5CF23
:1046C000063FACE51A07C9F0A0F027E245EE66EE1A
:1046D000073FECE51E0709F098CFC7010E944E1E68
:1046E0000FCF27E245EE65EEF8CF26E241EE60EE11
:1046F000F4CF27E245EE64EEF0CF26E241EE62EE23
:10470000ECCF28E241E0EFCF809157048061063082
:10471000FCE51F0709F489C08091570488600730C1
:104720001C4508F482C08091570480627EC080914D
:1047300057048D7F0C303CE5130709F476C070F404
:10474000809157048C600A309CE5190709F46DC00C
:1047500008F47AC0809157048E7F67C08091570417
:10476000877F0E30BCE51B0709F45FC080915704BA
:104770008B7F0F301C4508F458C0809157048F7E02
:1047800054C00C3FFCE51F0709F456C030F5033157
:104790003CE5130709F46AC078F401319CE5190778
:1047A00009F460C002311C4509F06DCF0E94511A16
:1047B000809157048F7739C00531BCE51B0709F498
:1047C0005DC008F471C08091580481600B3F1C45A6
:1047D00009F059CF8093580456CF01152DE51207E3
:1047E00009F448C070F40E3F8CE5180799F18091E8
:1047F00058048E7F0F3F1C4568F3809158048360F6
:10480000E9CF0230ADE51A0709F457C008F442C0F9
:1048100060E003301D4509F036CF8EE090E00E9445
:10482000393631CF809157048160809357042BCF64
:10483000809157048460F9CF809158048260CACF78
:10484000809157048064F1CF0E94511A80915704DF
:104850008068EBCF809158048D7FBCCF8091570446
:104860008F7DE3CF809157048F7BDFCF80915704FA
:10487000837FDBCF809158048C7FACCF809157042D
:1048800082FB992790F921E0922790FB82F990FB17
:1048900083F9CBCF80915804982F909591708E7F9B
:1048A000892B90FB81F996CF0E94511A9091570461
:1048B000892F97FB87F98058B8CF61E0AECF0631DA
:1048C000FCE51F0709F048C1809147048A7A91E00E
:1048D00009F490E090935B0269E2811165E380E363
:1048E00092E00E940C090E944B0D0ACE8091470471
:1048F00082720D3C2CE5120709F420C108F09FC01C
:10490000073C9CE5190709F405C108F078C0043C90
:10491000BCE51B0709F4F4C008F061C0033C1C456A
:1049200009F4C2C0F701828110810181882309F452
:1049300046C1812F902F0E94050ED82E682F812FFF
:10494000902F0E94A00EE12FF0E026E0029FE00DE4
:10495000F11D11243CE3D39EE00DF11D1124EE0F57
:10496000FF1FE457FD4F859194910E94AF0B082FD4
:10497000D92EB82ED70112961C9112971596CC906D
:10498000C2946FE0C6228091BF028770C9F0A12E49
:104990001123B9F0892F807F803449F090E2900F85
:1049A000983070F0803619F4B6EF0B1749F082E0BA
:1049B0000E940A1A8091BF028770AA24A3948111D1
:1049C000A12C9D2C92944FE09422EBE0E91508F481
:1049D0002FC1E92DF0E0E957F94C0C94C235053CA4
:1049E0002CE5120709F491C048EC54E161ED74E143
:1049F000063C1C4509F096CF0E94830981CD0A3CF4
:104A00009CE5190709F490C068F4083CBCE51B0755
:104A100009F485C04CEB54E160EB74E1093C1C45A2
:104A200059F380CF0B3CFCE51F0709F482C04AED27
:104A300054E16BEE74E10C3C1C45F1F273CF023D86
:104A40003CE5130709F45CCDA8F40F3C9CE519077D
:104A500009F47CC008F477C0003DBCE51B0709F4ED
:104A60004FCD6BE086E0013D1C4509F05BCF0E9415
:104A70006D1946CD073DFCE51F0788F4053D2CE583
:104A8000120708F03DCD033D3CE5130709F461C072
:104A9000043D1C4509F046CF61E08FE02EC00E3585
:104AA0001D4509F42DCD3ECF8091390480FF20C0F3
:104AB0008E7F809339046091390470913A0480911B
:104AC0003B0490913C040E9423140E948909809128
:104AD0006403816080936403AFEFB0E7E2E0A1502C
:104AE000B040E040E1F700C000000E94F91008CD9E
:104AF00081608093390461E086950E94951800CD0D
:104B00004AE559E163E679E177CF43E659E16AE5A1
:104B100079E172CF41ED54E168EC74E16DCF40EB87
:104B200054E16CEB74E168CF48E954E164EA74E164
:104B300063CF44EA54E168E974E15ECF4BEE54E19F
:104B40006AED74E159CF61E081E0D7CF65E082E0A2
:104B50008ECF6EE08CE08BCF0B35FDE51F0759F152
:104B600058F401153CE51307C9F00F3D1C4509F049
:104B7000D9CE0E94D616C4CC0C359DE51907E9F0B4
:104B80000D351D4509F0CECE8091580482FB882753
:104B900080F991E089270E944117C4CE0E94511AE2
:104BA000BFEFE4E3FCE0B150E040F040E1F700C0CB
:104BB00000000E94C50881E0EECF80E0ECCF812F9D
:104BC000902F0E94770ED82EBECEFD2DFF70CF2ED7
:104BD0008D2D807F19F0C29430EFC3221123C9F0CC
:104BE000CC2069F080E2800F883010F0B1100BC04B
:104BF00080914704C82AC09247040E944B0D802F21
:104C00000E94C31D15C080914604C82AC092460464
:104C1000F4CF802F0E94631DCC2051F0005E08303D
:104C200010F0B11055C08C2D0E94440D0E944B0D08
:104C3000E92DE850FF0B349710F40E941314112350
:104C400079F08D2D807F803619F4F6EFBF1641F094
:104C500080915C02823009F0BBC283E080935C02E9
:104C6000AA20B1F08091BF0280FD12C0D701129638
:104C70001C928595859585950E94261AC7010E94EC
:104C800098218091BF028595859585950E94E719A9
:104C900085E0F701DE01119601900D928A95E1F70A
:104CA00089819A810E94770E9A81E981F0E0B6E0CD
:104CB0009B9FE00DF11D11242CE3829FE00DF11D5F
:104CC0001124EE0FFF1FE457FD4F8591949155CBB2
:104CD000C09480914604C822C0924604A7CF2D2DCF
:104CE0002F70822E8D2D807F803219F0829420EFDC
:104CF0008222BB2089F031E0B31699F11123F1F142
:104D0000CC20A9F1D70115968C91159780FF77CF0C
:104D10008F7015968C932BC01123B1F09091C10226
:104D2000882D892BC11003C00E94110F81CFA1E0F3
:104D3000CA12FACF2091580422FD7ACF981709F4AD
:104D400077CF8093C10274CFC11006C00E943E0D80
:104D5000882D0E940A0F6CCFB1E0CB1609F468CF02
:104D6000F5CF112331F0E5E0EC1508F461CF882D83
:104D7000DBCFF4E0FC1508F45BCFEACFCC2041F3A5
:104D8000B9E3BB120DC0EFEFF7EE23E0E150F040C6
:104D90002040E1F700C00000802F0E94631D48CF33
:104DA0008FE39CE90197F1F7F5CF8D2D86958695D8
:104DB000837069F0813009F03BCF802F9D2D937077
:104DC000111102C090E080E00E94410931CF802F94
:104DD0009D2D9370111102C090E080E00E94570950
:104DE00027CF802F112329F00E94F70A0E947B19F8
:104DF0001FCF0E943C0AFACF8D2D837009F067C047
:104E0000111116CF202F229526952770220F220FE1
:104E1000402F4F7050E070E060E0022E04C0440F5D
:104E2000551F661F771F0A94D2F780E090E0DC01DF
:104E300004FF0FC08FE090E0A0E0B0E004C0880F56
:104E4000991FAA1FBB1F2A95D2F780959095A09510
:104E5000B0952D2D269526952370223029F1D8F472
:104E60004090C2025090C3026090C4027090C5028C
:104E7000213069F0842B952BA62BB72BBC01CD01DB
:104E800064217521862197210E94471AD1CE442999
:104E90005529662977292A013B01482A592A6A2A75
:104EA0007B2AC301B201F0CF842B952BA62BB72B05
:104EB0004090C2025090C3026090C4027090C5023C
:104EC000BC01CD016425752586259725DDCF869506
:104ED000112311F08D2D8170882309F4A9CE202F84
:104EE000229526952770220F220F402F4F7050E0F9
:104EF00070E060E0022E04C0440F551F661F771F4C
:104F00000A94D2F780E090E0DC0104FF0FC08FE04C
:104F100090E0A0E0B0E004C0880F991FAA1FBB1F5B
:104F20002A95D2F780959095A095B0952D2D269530
:104F300026952370223029F1D8F440908E045090A9
:104F40008F046090900470909104213069F0842B5C
:104F5000952BA62BB72BBC01CD0164217521862191
:104F600097210E94BF1964CE4429552966297729C3
:104F70002A013B01482A592A6A2A7B2AC301B20125
:104F8000F0CF842B952BA62BB72B40908E045090FE
:104F90008F046090900470909104BC01CD01642551
:104FA000752586259725DDCF2D2D2F70C22E112337
:104FB00029F0822F0E94261A802FB6CE802F0E94C1
:104FC0000A0F8C2D0E94E71933CE802F32EFB316D3
:104FD00009F457C03B1578F090EFB91641F1A1EFF5
:104FE000BA1609F446C0112309F46FC0C11007CEE8
:104FF0008D2D8F7143C0B3EFBB1609F447C0E4EFAA
:10500000BE12F1CF112309F455C00D2D0F71802F61
:105010000E94261A8091580482FD07C028E0029F52
:10502000C001112483608093BF02802F27C0112309
:10503000D1F0F4E0FC1508F4FBCD2D2D2F7161E0CB
:1050400070E080E090E004C0660F771F881F991F12
:105050002A95D2F740908E0450908F04609090046F
:10506000709091049CCF95E0492E4C1408F4E0CD4B
:10507000E4CF8D2D8F71112309F4A4CF0E94261A3D
:10508000D7CD8D2D8F711123C9F39CCF60E070E0D7
:10509000CB01112309F465CF2D2D2F7161E070E054
:1050A00080E090E004C0660F771F881F991F2A9543
:1050B000D2F757CF81E00E940A1A31E03C1508F080
:1050C000B7CD82E00E940A1AB3CDCC2079F08933A3
:1050D00041F48FEF97EEA3E081509040A040E1F7BC
:1050E00059CEEFE3FCE93197F1F754CE8D2D8F7156
:1050F00069CFE0E1E00FE73008F03FC0F0E0ED56A7
:10510000F94C0C94C235112309F492CD809186029A
:1051100091E08927809386028BCD1093860288CDFB
:1051200081E08127F7CF111183CD81E0F3CF1111F9
:105130007FCD109286027CCD112321F082E08093F6
:105140005C02F3CF80915C02823021F481E0809395
:105150005C026ECD833009F06BCD10925C02E9CF1A
:10516000112339F080918502882381F21092850203
:105170005FCDF4E0FC1550F65BCD80918502CC202C
:10518000D9F0882341F08091860291E089278093AD
:10519000860210928502111132CD8FE39CE90197AE
:1051A000F1F700C00000802F0E94631D86E0D70148
:1051B0001D928A95E9F73CCD882309F439CD111168
:1051C00037CD8091860291E0892780938602CECFE9
:1051D000813009F045CD10925C021092860240CDDC
:1051E00085E0F701DE01119601900D928A95E1F7B5
:1051F000D70112962C9189819A812111D4C80E94DD
:10520000770E082FD8C80631BCE51B0709F06ECB16
:1052100080915B0269E2811165E380E392E00E9484
:10522000E20861CB1F93CF93DF9380918C02807F44
:10523000A9F480918902882389F08091BE02D091DF
:105240008D026091870270918802A0918A02B091CC
:105250008B02C62FC72316E0D81304C0DF91CF916D
:105260001F91089590E0109711F0CF3F19F4019627
:105270008770F2CF189F9001199F300D1124F9010A
:10528000E257FD4F41814713F2CF40814613EFCFE4
:1052900042814111ECCF438154814A1B5B0B483C56
:1052A000510528F780918C028F70806180938C0269
:1052B000F901ED56FD4F80818F708061808387E812
:1052C00092E00E949821DF91CF911F910C94FB0DE9
:1052D000AF92BF92CF92DF92EF92FF920F931F9304
:1052E000CF93DF93CDB7DEB761970FB6F894DEBFEB
:1052F0000FBECDBF8C0185E0F801DE011D96019047
:105300000D928A95E1F7F801E28087E8A82E82E005
:10531000B82E60918A0270918B026115710509F4B3
:1053200022C19091870240918802892F84238F3F68
:1053300009F419C120813181C380D480F0908902A1
:10534000F601E61BF70BFF2009F4F4C080918C02F4
:10535000582F507FE83CF10508F0B7C0511177C0D5
:10536000FE2C431321C092131FC0E1101DC08F708B
:10537000806180938C02C5010E94982180918C02EB
:10538000F80185838F2D61960FB6F894DEBF0FBEAE
:10539000CDBFDF91CF911F910F91FF90EF90DF90E4
:1053A000CF90BF90AF900895CD2829F0822F83230E
:1053B0008F3F09F001C180E0F82FF170DF2E80FFF0
:1053C0003CC08091BE0240918D0256E0841315C00E
:1053D0002D873E878D859E850E945C0E292F229504
:1053E0002F702230F0F0243018F59F70F1F0F801A2
:1053F0009581907FD1F4D12C1EC090E0589FF00190
:10540000599FF00D1124E257FD4F6181361306C0FC
:105410006081261303C06281E6120FC00196877077
:10542000D5CF9F7011F0882331F3805E883018F358
:10543000C8010E949821FD2CA5CFEE2009F4A2CF2F
:1054400080918C02816080938C02F12C9BCF43135E
:1054500012C0921310C0E1100EC0F8018583C8017C
:105460000E94982186E0F801A7E8B2E001900D9231
:105470008A95E1F787CFC8010E94CE0E882309F1F3
:10548000EE20F9F080918C02803270F0209187023A
:105490003091880238872F831986DB86CA868C87ED
:1054A000CE0107960E94982186E0F801A7E8B2E0B5
:1054B00001900D928A95E1F70E941229FF24F3943E
:1054C00061CFC8010E949821F9CF51110AC087E825
:1054D00092E00E94982186E0F50111928A95E9F701
:1054E000B4CF43130FC092130DC0E1100BC0F801ED
:1054F0008583C8010E94982186E0F50111928A9562
:10550000E9F740CFC8010E94CE0E8823D1F2EE20E9
:10551000C1F280918C02803238F220918702309162
:1055200088023A8329831B82DD82CC828E83CE015E
:105530000196B8CFE83CF105F8F6FE2CEE2009F212
:10554000431303C0921709F48DCFC8010E94CE0EF9
:105550008111AACF80918C02816080938C02C80156
:105560000E9498210FCFEE2009F4ABCFC8010E9412
:10557000CE0EF82E882309F4A4CF86E0F801A7E820
:10558000B2E001900D928A95E1F7809187029091A7
:1055900088020E945C0E92959F70963051F4863F6F
:1055A00041F08091860291E0892780938602909352
:1055B00085020E941229E6CE81E08E25FDCE0F9352
:1055C0001F93CF93DF93CDB7DEB767970FB6F894ED
:1055D000DEBF0FBECDBF6D8B7E8B8F8B752F6111A4
:1055E000109246048E899F89892B09F487C0872FE2
:1055F00084238F3F09F05BC07FEF4FEF7FC0902F78
:10560000909589237AC086E0FE013796DE011196D7
:1056100001900D928A95E1F78A859B85892B09F483
:105620008AC08F81988589238F3F09F484C0209197
:105630008D0230E0C9010196877099274091BE0222
:105640004817190671F40E94511A10928D02109297
:10565000BE0286E0E7E8F2E0DF011D928A95E9F7F5
:105660006AC096E0929FD001939FB00D1124A2577B
:10567000BD4FFE01319601900D929A95E1F780930E
:105680008D020E94FB0D57C0819FC00111248257DB
:105690009D4F0E946829882309F454C08091BE025E
:1056A00090E00196877099278093BE0245C001E083
:1056B00010E0042E01C0000F0A94EAF7A72FB0E013
:1056C000AF5ABD4F8C9190918602611102C0982F04
:1056D0009023992309F493CF50E096E0799F400DF1
:1056E000511D1124440F551FFA01EB5EFD4F7491BB
:1056F0004C5E5D4FFA014491802B8C931A8A198A73
:105700004B8B7C8B85E0FE017396DE011D9601902C
:105710000D928A95E1F786E0FE013D96DE0117962F
:1057200001900D928A95E1F7CE0107960E946829B3
:10573000882309F468CF16E08091BE0290918D0213
:105740008913A2CF67960FB6F894DEBF0FBECDBF08
:10575000DF91CF911F910F9108951F921FB61F9255
:1057600011248F939F93AF93BF9380915204811123
:1057700013C08091530490915404A0915504B091AA
:1057800056044196A11DB11D809353049093540477
:10579000A0935504B0935604BF91AF919F918F9100
:1057A0001F901FBE1F901895CDB7DEB762970FB63A
:1057B000F894DEBF0FBECDBF84B7877F84BF0FB61E
:1057C000F894A895809160008861809360001092A1
:1057D00060000FBE80E890E00FB6F89480936100FF
:1057E000909361000FBE85B7806885BF85B78068DC
:1057F00085BF81E59BE090932F0280932E020E944B
:1058000038070E9403088091E20084608093E200E0
:105810007894809181048823A1F01091E9001F7091
:105820009091EC00892F817090FD80E8182B1092E8
:10583000E9008091E80083FD0E94661A1F701093B2
:10584000E90082E084BD93E095BD9AEF97BD809317
:105850006E0010924E0410924F0410925004109259
:1058600051040E94D51380934D0180914D018823EE
:1058700009F46DC01092650183E2809366010E9475
:10588000D51381110E94AB3380914D0180914D0160
:1058900095E0811190E09093060385E0891B809349
:1058A000050306EF11E07BEFE72E71E0F72ED8013C
:1058B0008D918D018F3F11F00E94550BE016F1067E
:1058C000B1F700E012E066E0E62E62E0F62EF801A5
:1058D00081918F018F3F11F00E94550BE016F10668
:1058E000B1F7EBEFF2E085E093E0ABE0B3E01192CB
:1058F0001D928E179F07D9F790E080E00E94333603
:10590000893E9E4F11F00E94D61682E090E00E94E0
:105910002536809342030E94141590935804809377
:1059200057040E945C1F8FE39CE90197F1F700C0C8
:1059300000000E945C1F80910B0380FF0CC06FEF82
:105940007FEF90E080E00E9457360E94C50883E216
:105950008093650192CF83E090E00E942536682F06
:1059600070E090E080E00E94471A60918E04709190
:105970008F0480919004909191040E94F8180E94E5
:10598000D513811102C00E94AE330E94D513882323
:1059900009F424C383E080933D0380FD21C380E8A4
:1059A000809392040E9443326DE070E08FE794E0B0
:1059B0000E940D10892BE9F580913D0363E070E0B2
:1059C00081FD10C38CE794E00E940D10892B89F5AE
:1059D0006DE070E08CE694E00E940D10892B49F593
:1059E0000E94D608605A75418F4F9F4F60933E04C6
:1059F00070933F048093400490934104E5E9F4E000
:105A000080E092E0DF019C011D9221503040E1F7DF
:105A1000F0939C06E0939B068FEF9FEF9093940486
:105A20008093930481E08093430480934204109216
:105A30003E038091070381113BC090E080E00E940B
:105A40003336893E9E4F21F00E94D6160E94FC14E8
:105A500088E090E00E942D366093390470933A04F8
:105A600080933B0490933C04809164038360809313
:105A700064036E7F71F40E94FC1488E090E00E9441
:105A80002D366093390470933A0480933B049093CD
:105A90003C040E9490090E9489098091390480FF8A
:105AA00004C060E086950E94951881E0809307030A
:105AB00080914D01811106C084EF8093590185EFDB
:105AC0008093580120915901A22FA295AF70B0E0A8
:105AD00091963C9191972F7081E090E0BC01022E4D
