:100000000C9432050C944F050C944F050C94173446
:100010000C944F050C944F050C944F050C944F0510
:100020000C944F050C944F050C9412180C94F31F6C
:100030000C94362C0C944F050C944F050C944F05E2
:100040000C944F050C944F050C944F050C944F05E0
:100050000C944F050C94EB180C944F050C944F0521
:100060000C944F050C944F050C944F050C944F05C0
:100070000C944F050C944F050C944F050C944F05B0
:100080000C944F050C944F050C944F050C944F05A0
:100090000C944F050C944F050C944F050C944F0590
:1000A0000C944F050C944F050C944F052B00140035
:1000B0001A0008001500170000570400160007007A
:1000C00009000A00E0001D001B00060019000500E1
:1000D000000000000000E300B35D2C002A001300C4
:1000E00012000C0018001C00340033000F000E003A
:1000F0000D000B00E600380037003600100011003C
:10010000000000000000E200B45D28002900640047
:100110002D022E022F023002010035000257035734
:100120002D001F0201002502260201572F0030007A
:100130000000000000000100010001000100540067
:100140005500260025002400060256005700230013
:100150002200210067003700270020001F001E003A
:1001600000000000000001000100010029001E0441
:100170002F0234023304640200000000000000007B
:10018000000000003A003B003C003D003E003F0004
:1001900000000000000001000100010001004B0010
:1001A000000052000000F2004C004D004F005100D2
:1001B00050004A0000004E00000000000000000057
:1001C000000000000000010001000100000000002C
:1001D000000000000000C35C0000C65CC85CCA5C94
:1001E000CC5CC45C0000C75CC95CCB5CCD5C00002F
:1001F000000000000000010001000100A900AA00A9
:10020000A800000000000000000000000000000046
:1002100000000000000000000000000000000000DE
:1002200000000000000001000100010000DA02816E
:10023000FFD9F1DB20A4A62EAF00A0C000A1C8000A
:10024000AED580A81FD300408D142000636F726E5E
:1002500065001B1C1D1E1F3B3C3D3E3F5B5C5D5E05
:100260005F00209495962020B4B5B62020D4D5D632
:100270002000209798992020B7B8B92020D7D8D946
:100280002000209A9B9C2020BABBBC2020DADBDC1B
:100290002000209D9E9F2020BDBEBF2020DDDEDFF0
:1002A0002000202020202000A7A800AFB000C6001A
:1002B000CA00C800A5A600ADAE008788008F9000D8
:1002C000C500C900C700CB008586008D8E00ABAC91
:1002D00000CFD000C600CA00C800A9AA00B1B20071
:1002E0008B8C00CDCE00C500C900C700CB00898A29
:1002F00000919200000101010101010101010202CE
:1003000002020202020202030303030303030304C3
:10031000040404040404050505050506060606068E
:10032000070707070708080808090909090A0A0A48
:100330000B0B0B0C0C0C0D0D0D0E0E0E0F0F0F10EA
:100340001011111112121313141415151616171774
:10035000181819191A1A1B1B1C1D1D1E1E1F2020E0
:10036000212222232424252626272829292A2B2C2A
:100370002D2D2E2F30313232333435363738393A4D
:100380003B3C3D3E3F404142434445464748494A45
:100390004C4D4E4F50515354555658595A5B5D5E13
:1003A0005F616264656668696B6C6D6F70727375AE
:1003B00077787A7B7D7E8082838587888A8C8E8F12
:1003C00091939596989A9C9EA0A2A3A5A7A9ABAD40
:1003D000AFB1B3B5B7BABCBEC0C2C4C6C9CBCDCF2E
:1003E000D1D4D6D8DBDDDFE2E4E7E9EBEEF0F3F5DC
:1003F000F8FAFDFF00AF00AE05010902A101850278
:100400000901A10005091901290815002501950810
:10041000750181020501093009311581257F950299
:100420007508810609381581257F950175088106B3
:10043000050C0A38021581257F950175088106C0D3
:10044000C005010980A101850319012AB700150122
:1004500026B700950175108100C0050C0901A101A6
:10046000850419012AA002150126A0029501751024
:100470008100C005010906A101050719E029E7155A
:100480000025019508750181029501750881010516
:1004900007190029FF150026FF0095067508810041
:1004A0000508190129059505750191029501750346
:1004B0009101C009023B00020100A0FA09040000FA
:1004C000010301010009211101000122400007057B
:1004D0008103080001090401000103000000092153
:1004E00011010001227B0007058203200001120197
:1004F0000002000000085346010001000102000153
:100500000C0343006F0072006E00650000001003D2
:1005100066006F006F007300740061006E000000E1
:1005200004030904000000000000000000000000B7
:1005300000000000C0E0F0F8F81800C0F0FCFEFF7A
:10054000FFFFFFFFFFFF7E00000000000000000033
:1005500080C0E0E0E0E0E0E0E0E0C080000000001B
:1005600080C0E0E0E0E0E0E0E0E0C080000000E02B
:10057000E0C0C0E0E0E0E00000E0E0C0C0E0E0E0BB
:10058000E0E0C0800000000080C0E0E0E0E0E0E0EB
:10059000E0E0C0800000000000000000000000005B
:1005A0000000006689956A0060606060600094A247
:1005B000FFA2940008047E04080010207E20100092
:1005C00008082A1C080000C0E0B09090909090109D
:1005D0001010101090F0F0E030101090F04030103B
:1005E00090D07030000000000000000000F8FCFE19
:1005F000FFE000FFFFFFFFFFFF80FFFFFFFFFFFFA8
:10060000FFFFFF1F0701000000000000000000FFC7
:10061000FFFF8100000000000081C3C3C30000FF92
:10062000FFFF8100000000000081FFFFFF0000FFCE
:10063000FFFF01000000000000FFFFFF01000000BD
:100640000001FFFFFF0000FFFFFF9D1C1C1C1C1C86
:100650001C9DDFDFDF0080C0E0E0E0E0C0E0E0E024
:10066000E0002745454539003C4A494931004121D0
:1006700011090700364949493600464949291E00F3
:1006800000001400000080C06030180C0683C1E038
:10069000F0B8BC8EE73B0F01C0F0C301087CE6C395
:1006A00001000000000000000000000000030F1F18
:1006B0003F3F3F3F1F1F3F3F7F7F7F3F3F1F3F7FAA
:1006C0007F7F7F7C7878381C0F00000000000000DE
:1006D00001030707070707070707030100000000DA
:1006E00001030707070707070707030100000007C3
:1006F00007070000000000000007070700000000D7
:1007000000000707070000000103070707070707A6
:1007100007070301000080C0E0E0E0E000C0E0E087
:10072000E0003F4040403F001F2040201F003F406E
:1007300038403F0063140814630003047804030086
:100740006159494D4300070F0C0C0C0C0C0C0C0CA0
:100750000C0C0F0F0C0C0C0F070001070C0C0D0FED
:100760000F000000000307080000205454784000E8
:100770007F284444380038444444280038444428FE
:100780007F0038545454180000087E0902001824D1
:10079000241C78007F080404780000447D40000099
:1007A0002040403D00007F102844000000417F4071
:1007B00000007C04780478007C0804047800384445
:1007C000444438007C1824241800182424187C0081
:1007D0007C080404080048545454240004043F4492
:1007E00024003C4040207C001C2040201C003C4059
:1007F00030403C004428102844004C9090907C00ED
:100800004464544C44000008364100000000770066
:1008100000000041360800000201020402003C26EC
:1008200023263C000000000000000000C0E0F0F8BB
:10083000F81800C0F0FCFEFFFFFFFFFFFFFF7E0087
:10084000000000F8042252E2424242E252222222F6
:100850004282020222220204F80000F8040202820C
:100860004222428202020282422212224282020476
:10087000F80000F8FCDEAE1EBEBEBE1EAEDEDEDE42
:10088000BE7EFEFEDEDEFEFCF80000F8FCFEFE7E14
:10089000BEDEBE7EFEFE0000000000008080404004
:1008A00020201010080810102020404080808080F8
:1008B000C0C0E0E0F0F0F8F8F0F0E0E0C0C0808008
:1008C0008080404020201010080810102020404058
:1008D0008080808040C060A050B058A850B060A018
:1008E00040C0808000F8FCFEFFE000FFFFFFFFFF3C
:1008F000FF80FFFFFFFFFFFFFFFFFF1F070100005B
:100900000000001F20444A47424242474A444040B8
:1009100040404142444440201F00001F20404140CD
:1009200040404040414041414F4848484F414120AC
:100930001F00001F3F7B75787D7D7D78757B7F7FF5
:100940007F7F7E7D7B7B7F3F1F00001F3F7F7E7F01
:100950007F7F7F7F7E7F00000000000088885D5DD4
:100960003E3E7C7CF8F87C7C3E3E5D5D88888888D5
:100970005555232347478F8F47472323555588884D
:100980008888D5D5E2E2C4C48888C4C4E2E2D5D55B
:10099000888888885DD56BB66DD6ADDA6DD66BB6B6
:1009A0005DD5888800030F1F3F3F3F3F1F1F3F3F1C
:1009B0007F7F7F3F3F1F3F7F7F7F7F7C7878381C22
:1009C0000F0004F80000F804201F00001F20FCF8AE
:1009D0000000F8043F1F00001F2004F80000F8FC8E
:1009E000201F00001F3FFCF80000F8FC3F1F000024
:1009F0001F3FFE7EBEDEEEDEBE7EFEFCF8007E7E8B
:100A000070777777707E7E3F1F0000000000000047
:100A100000000000000000000000000000000101D4
:100A2000020204040808040402020101000000009C
:100A3000010102020404080804040202010100008A
:100A400000000101030307070F0F0707030301015C
:100A5000000000000101030205060D0A050603025D
:100A60000101000011241FBECFEFDAE0DEBFCDBFD1
:100A700012E0A0E0B1E0EEE3FDE602C005900D92C9
:100A8000A63DB107D9F727E0A6EDB2E001C01D925F
:100A9000AD31B207E1F70E945D2C0C9487360C94BF
:100AA000000090910C05937061F081110BC094606F
:100AB00090930C051092B30180910B058160809397
:100AC0000B050895863010F09461F2CF880F880FDF
:100AD000982BEECFFC01AC014C5F5F4F8FEF91E3A1
:100AE0002191822728E030E087FF09C0880F8927FD
:100AF00021503109C9F7E417F50791F70895880FD8
:100B0000F7CF90910C05937071F080930D05609371
:100B10000E05473908F046E940930F0580910B0513
:100B2000816080930B050895E8EDF0E080818E7F71
:100B300080831092E2001092DA001092E100A0EEA1
:100B4000B0E08C9181608C9380818F77808319BC19
:100B5000A7EDB0E08C918E7F8C9380818F7E808317
:100B60001092F10408952091E4003091E50095E69B
:100B7000A9012091EC00822F817020FF06C0809196
:100B8000E80080FF06C080E008952091E80022FD83
:100B90001AC08091FE04882389F0853089F0809105
:100BA000EB0085FD0FC02091E4003091E500421775
:100BB0005307F9F29150E1F684E0089582E0089538
:100BC00083E0089581E00895EF92FF920F931F93C1
:100BD000CF937C018B010E94B305C82F811117C0F0
:100BE0008091E80085FD0BC08091E8008E778093AE
:100BF000E8000E94B305882399F3C82F08C0F701C5
:100C000081917F018093F1000150110949F78C2FE8
:100C1000CF911F910F91FF90EF9008958091000563
:100C200087FF13C08091E80082FF06C08091E80032
:100C30008B778093E80004C08091FE048111F2CF8D
:100C400008958091FE048823D9F38091E80080FF05
:100C5000F8CF8091E8008E77ECCF982F9093E90041
:100C6000242F762F50E0891731F07091EC002091FD
:100C7000ED005091F00021FD07C09F5F973071F7A4
:100C80008093E90081E008953091EB003E7F30933E
:100C9000EB003091ED003D7F3093ED003091EB00A3
:100CA00031603093EB007093EC002093ED00509393
:100CB000F0002091EE0027FDE0CF80E00895B0E045
:100CC000A0E0E5E6F6E00C945135C8EDD0E088816F
:100CD0008F7E8883E7EDF0E080818160808384E00F
:100CE00082BF81E08093F10488818E7F888302EE49
:100CF00010E0F80110821092DA0081EEC82ED12C9B
:100D0000F601108288818F77888388818068888344
:100D100088818F7D888319BC1092FE041092FF0495
:100D20001092FD041092FC0490EEE92EF12CF701D4
:100D300080818B7F808388818160888342E060E04E
:100D400080E00E942D06F60180818E7F8083F8016D
:100D5000808181608083808188608083F7018081C9
:100D60008E7F8083888180618883CDB7DEB7E8E09D
:100D70000C946D35FC01809106059091070586174E
:100D80009707A0F06115710529F49091E8009E770E
:100D90009093E80090E06115710551F4911108C03D
:100DA0008091E80082FF34C080E00895BC01F2CF5A
:100DB0008091FE048823C1F18530C1F18091E80063
:100DC00083FD30C08091E80082FDEACF8091E80089
:100DD00080FFE1CF8091F3002091F200382F611560
:100DE000710519F02830310558F091E028303105AF
:100DF00009F090E02091E8002E772093E800CBCF17
:100E000081918093F100615071092F5F3F4FE7CFCF
:100E10008091FE04882341F0853041F08091E80004
:100E200083FFBECF81E0089582E0089583E00895B6
:100E300008958091F3040895CF92DF92EF92FF928C
:100E40002FB7F894C090EA04D090EB04E090EC0443
:100E5000F090ED042FBFA7019601261B370B480B1E
:100E6000590BCA01B901FF90EF90DF90CF90089520
:100E70002FB7F8946091EA047091EB048091EC0430
:100E80009091ED042FBF08959C01FC0132969FEFD5
:100E900080E04191461751F09F3F19F4411101C084
:100EA000982F8F5F8630A9F79F3F09F40895290F87
:100EB000311D97FD3A95F901628308952091E70469
:100EC0003091E8042817390771F09093E804809373
:100ED000E704E091E504F091E604309721F0008406
:100EE000F185E02D099508952091E3043091E40403
:100EF0002817390771F09093E4048093E304E0919C
:100F0000E504F091E604309721F00680F781E02DAA
:100F100009950895E091E504F091E604309739F0E1
:100F200022E0DC012C930480F581E02D09950895E1
:100F3000FA01811101C0FB0109950895ECE0F5E08B
:100F400024813AE0231B08F420E0248380910B05E0
:100F5000816080930B050895ECE0F5E024813AE090
:100F6000230F08F42FEF248380910B058160809379
:100F70000B050895ECE0F5E0438128E0421B08F4FE
:100F800040E08181628190E00E9481050895ECE05B
:100F9000F5E0438128E0420F08F44FEF8181628140
:100FA00090E00E9481050895ECE0F5E0628128E080
:100FB000621B08F460E08181438190E00E9481051A
:100FC0000895ECE0F5E0628128E0620F08F46FEF2D
:100FD0008181438190E00E9481050895ECE0F5E075
:100FE0008181438162818850990B0E948105089517
:100FF000ECE0F5E0818190E04381628108960E94F7
:101000008105089580910C0586958695815009F497
:1010100085E00E945105089580910C05869586957E
:101020008F5F863008F081E00E94510508950E948C
:101030009B110895FF920F931F93CF93DF93182F67
:10104000062FF42ED0E0C0E02F2D402F612FCE01CF
:101050000E9417082196C633D105B1F7CDB7DEB788
:10106000E5E00C947035322F50E0FA01EE0FFF1FCF
:10107000EC5FFD4F91A9905297FD9195440F551F3C
:10108000FA01EC5CFD4F2081231B330B290F311D2E
:1010900097FD3A95620F08954091AB015091AC01D4
:1010A00025E038E0429FC001439F900D529F900D74
:1010B0001124875E994C9093AC018093AB01890F0A
:1010C0000895AF92BF92CF92DF92FF920F931F933A
:1010D000CF93DF93362F472FE82FF0E0EC50FD4FF2
:1010E00071110FC0E4918E2F2E2F6E2F722FDF9172
:1010F000CF911F910F91FF90DF90CF90BF90AF9055
:101100000895C72FD0E02491F22E022F10E056E070
:10111000659FC0011124EFEFF0E0BF010E9433355D
:10112000832F90E0880F991F35E5369FD001379FB8
:10113000B00D11248A1B9B0B982F990F980F6F01EC
:10114000CC1ADD0AC09ED001C19EB00DD09EB00D5C
:1011500011248B2F499FA0011124452F55276F0182
:10116000C41AD50AC09EA001C19E500DD09E500D3C
:1011700011245F01A91AB108AC9E6001AD9ED00C8C
:10118000BC9ED00C1124CD2CDD24EC19FD09E09F70
:10119000E001E19FD00DF09FD00D1124ED2F6230C2
:1011A0007105A1F050F46115710509F49ECF61300D
:1011B000710581F0EB2F852F98CF6430710569F0B0
:1011C00080F06630710509F490CFF4CFE22F2B2F19
:1011D0008D2F8BCFE22F252F88CFEB2F822F2D2F16
:1011E00084CF2B2F8F2DE52F80CF4F925F926F9260
:1011F0007F928F929F92AF92BF92CF92DF92EF92A7
:10120000FF926B017C01DA01C901C114D104E10430
:10121000F10489F4B7FF51C080E090E8FF90EF90AF
:10122000DF90CF90BF90AF909F908F907F906F9006
:101230005F904F9008954B015701F7FE07C0882437
:10124000992454018C189D08AE08BF089C01AD017B
:10125000280D391D4A1D5B1DB7FD19C08819990954
:10126000AA09BB09BC01CD01EDE0660F771F881FFD
:10127000991FEA95D1F70E94D03580E090E2821B59
:10128000930BF7FECBCF919581959109C7CF29019B
:101290003A012DE0440C551C661C771C2A95D1F7A9
:1012A000A5019401281B390B4A0B5B0BC301B2014A
:1012B0000E94D03580E090E6E2CF90E080E0AECFB3
:1012C000AC018230910508F408959FEF413E8EE114
:1012D000580740F49A0195E0369527959A95E1F7DD
:1012E00098E0920F61E0E62FE90FFF27FF1F9F01B3
:1012F00035952795822F229FF001239FF00DF00D49
:1013000011244E175F0738F49FEF920F961758F786
:101310008FEF860F08952F3FE9F361E0620FF6CF5C
:101320004091DF038D3E59F48091E00387FF0DC0AB
:101330001092E00341110BC01092D10308C08E3E01
:1013400081F48091E00318169CF3442381F080918E
:10135000E1039091E203892B09F05AC01092D00367
:1013600008958F3E49F447FFF0CF1092DF0380913C
:10137000E0038111ECCFE0CF803F19F41416ACF3F9
:10138000E4CF9091E103893F29F41916F4F6109205
:10139000E103DBCF8A3F19F497FFD7CFF8CF9091C5
:1013A000E2038B3F29F497FFD0CF1092E203CDCF19
:1013B0008C3F19F41916CCF3C8CF9FE0980F9830E2
:1013C00090F4815F990B21E030E0B90102C0660F13
:1013D000771F8A95E2F7CB0180959091DE038923F0
:1013E0008093DE03B2CF8D3F31F48091D2038E7FA4
:1013F0008093D203AACF8E3F21F48091D2038D7FB8
:10140000F7CF8F3F09F0A1CF8091D2038B7FF0CF30
:1014100008958091D20380FD16C081FD16C082FD23
:1014200016C08091D0038823A1F0883280F428E090
:10143000829FC001112468E270E00E949A35862FD5
:10144000672B39F0089582E0089584E0089588E0DC
:10145000089581E008958091D20380FD14C081FD3C
:1014600014C082FD16C08091D103882381F08E3193
:1014700080F420E5829FC00111246EE170E00E949B
:101480009A35862F089584E1089588E2089588E0CA
:10149000089580E508958D3E31F40E942B0A8195D0
:1014A0008093E00308958E3E19F40E942B0AF8CF32
:1014B0008F3E31F40E942B0A81958093DF030895BB
:1014C000803F19F40E942B0AF8CF893F29F40E942B
:1014D000090A8093E10308958A3F21F40E94090AD2
:1014E0008195F7CF8B3F31F40E94090A8195809353
:1014F000E20308958C3F19F40E94090AF8CF9FE097
:10150000980F983070F4815F990B21E030E001C0B2
:10151000220F8A95EAF78091DE03822B8093DE0307
:1015200008958D3F31F48091D20381608093D2037E
:1015300008958E3F21F48091D2038260F7CF8F3FD0
:10154000B9F78091D2038460F1CF80E00895F894D8
:10155000E82FE295EF70F0E031A1282F2F7081E0A5
:1015600090E001C0880F2A95EAF7982F9095932371
:1015700091A392A1892B82A37894089590919303CB
:1015800092FF06C0282F28712830F9F4877F8460E5
:1015900093FF06C0282F28712831F1F4877E8461DB
:1015A0002091940320FF06C0382F38713830D9F4C9
:1015B000877F816021FF06C0282F28712831D1F450
:1015C000877E816194FD877E0895282F24712430C1
:1015D000F9F68B7F8860DCCF282F2471243101F746
:1015E0008B7E8861DDCF382F3171313019F78E7FD6
:1015F0008860E0CF282F2171213121F78E7E88610C
:10160000E1CF972F7830A8F4663098F470E026E0A8
:10161000929F600D711D1124FB0190E3899FE00DE5
:10162000F11D1124EE0FFF1FE455FF4F859194919A
:10163000089580E090E00895CF93DF93EC01823825
:101640009105B1F108F040C08133910509F49DC0C6
:1016500048F58932910509F48DC08A9709F49CC038
:10166000C11521E5D20708F0C3C0C11530E5D30785
:1016700008F01EC1C83ED10508F0A3C0C03ED10588
:1016800088F5C83AD10508F08EC0C53AD10508F0F2
:1016900007C1C130D10531F1209721F1C430D10506
:1016A00008F545C08533910509F45FC0C997C1F6B7
:1016B00080919303837009F043C18091940383FF69
:1016C00011C0C9E2D0E00EC0833E910599F170F4DB
:1016D000803E910501F1823E910511F680919303C0
:1016E00082FD21C0CE01DF91CF910895863E910504
:1016F00061F1873E910571F1843E910509F0B0CF0B
:101700008091940381FFEECF80919303C7EED0E0E8
:1017100084FD0DC0E7CF8091930380FD33C090918D
:10172000940390FFDFCFC3EED0E084FFDBCFD0E0A7
:10173000C0E0D8CF8091930382FDFFC090919403C5
:1017400090FDFEC084FFCECFF2CF8091930383FD46
:10175000DDCFC8CF8091930383FDF5C090919403B2
:1017600091FFF0CFC4EED0E0BDCF8091930385FF11
:10177000B9CFA7CF8091930385FDE8C080919403F2
:1017800083FFB0CFC9E3D0E0ADCF8091930386FF54
:10179000A9CFCAE2D0E0A6CF8091930386FFA2CF63
:1017A000C1E3D0E09FCFCF3BD10508F6C85AD0E0C7
:1017B000CC0FDD1FC654DE4F0990D881C02DD464F4
:1017C00091CFC11540E2D40758F4C11581E0D80784
:1017D00008F088CFCD3ED10508F4A9CFD06582CFDF
:1017E000C11520E4D20708F4A2CFDF70D06A7ACF07
:1017F000C11535E5D30718F5C11544E5D40708F040
:1018000084C0C11583E5D80708F06BC0C11522E577
:10181000D20708F461C0CE018370992721E030E03F
:1018200002C0220F331F8A95E2F7C695C69580E263
:10183000C89FE0011124C22BD32BDC6853CFC11504
:1018400039E5D307A8F4C11548E5D40708F062C00C
:10185000C11586E5D80708F06ACF8C2F0E94BE0A12
:10186000C82FD0E0DC2FCC27CC27DF71D0623ACF55
:10187000C1152AE5D20708F452C0CE019056811551
:10188000904208F054CF8D2F8F710E94BE0A90E0D5
:10189000982F882788279F719C012C2BE901E6CF80
:1018A000C55AD0E0C954DE4FC881D0E0D0641ACF09
:1018B000CE018370992721E030E002C0220F331F50
:1018C0008A95E2F7C695C69540E2C49FE0011124CF
:1018D000C22BD32BDD6806CFDC2FCC27C16FD06A9B
:1018E00001CFCE018370992721E030E002C0220FA2
:1018F000331F8A95E2F7C695C69540E2C49FE00182
:101900001124C22BD32BDA68EDCEDC2FCC27C46F89
:10191000D06AE8CEDC2FCC27C06FD06AE3CE8C2F04
:101920008F700E94BE0A34E0D695C7953A95E1F7CC
:10193000CF709C2FEC01D069D5CEC2EED0E0D2CED4
:10194000C0EED0E0CFCEC6EED0E0CCCEC5E3D0E046
:10195000C9CE8091AA0381111092AA030895909193
:10196000940392FF05C09091AA0398138093AA0351
:10197000089580959091DF0498239093DF04089553
:1019800080959091E00498239093E00408958091CD
:10199000320390910103981301C008958F5F8770FF
:1019A000FACFB0E0A0E0E7EDFCE00C9450357C010C
:1019B0000091300410913104809176039091770367
:1019C000082B192BCFE0D0E0CC24C394D12CBC2E13
:1019D000C6010C2E02C0880F991F0A94E2F78023DB
:1019E0009123892B49F4219790F7B12C8B2DCDB7FA
:1019F000DEB7E9E00C946C35B7018C2F0E94010B27
:101A00000E941C0B019779F3F1CFCF93DF93EC0188
:101A10000E94D10CBE010E94010B0E941C0BDF91A1
:101A2000CF910895983078F5863068F5E82FF0E08A
:101A300086E0989FE00DF11D11249E2F977083E0A2
:101A4000F695E7958A95E1F7EE0FFF1FEE0FFF1F62
:101A5000ED51FD4F50E040E080E0219130E0092E53
:101A600002C0369527950A94E2F721703327042E99
:101A700001C0220F0A94EAF7822B4F5F5F4F443078
:101A8000510559F7089580E00895983098F586300B
:101A900088F5E82FF0E086E0989FE00DF11D112415
:101AA0008E2F877041E001C0440F8A95EAF783E0EA
:101AB000F695E7958A95E1F7EE0FFF1FEE0FFF1FF2
:101AC000ED51FD4F30E020E070E05191DF011197C2
:101AD000CB01022E02C0969587950A94E2F7817099
:101AE00081958527842385278C932F5F3F4F243052
:101AF000310559F708954091300450913104411552
:101B0000510561F021E030E002C0220F331F8A95B9
:101B1000E2F72423352381E0232B09F480E00895A4
:101B200092959F70963091F058F4925F9F7092302A
:101B300058F4803F19F030F4883E30F481E0089585
:101B40009A5FF4CF843FD1F380E00895883EB0F3EC
:101B5000813FD1F7F3CFFC0183819481892B29F058
:101B60008081918189238F3F11F480E008958081E5
:101B700091810E94050D0E94900D08959C013A9557
:101B800021153F4150F5FC01EE27F170BC0166279D
:101B90007270AC01442754709C012227387094FF66
:101BA0000EC080E1EF2B09F480E0672B09F0806222
:101BB000452B09F08064232B89F08068089581E02B
:101BC000EF2B09F480E0672B09F08260452B09F0C8
:101BD0008460232B19F08860089580E00895B0E0B8
:101BE000A0E0E5EFFDE00C9451356C017B0164E66B
:101BF00070E088E70E940232EC0197FD12C010E00D
:101C000000E0F601E00FF11F849164E670E00E94AD
:101C10006E32EC01892B29F40F5F1F4F0E151F0543
:101C200081F70E947333CE01CDB7DEB7E8E00C94A4
:101C30006D358091DD049091DE04911103C091E037
:101C400089270895882369F062E070E086EF93E0C9
:101C50000E94EF0D892B19F08091DD0408951092F8
:101C6000DD048091DD04EBCFCF93C091DD04809142
:101C7000DE048823D1F00E943807605A75418F4FE7
:101C80009F4F6093D9047093DA048093DB049093A0
:101C9000DC04C11108C062E070E084EF93E00E94B0
:101CA000EF0D892B29F0C091DD048C2FCF91089581
:101CB00081E08093DD04F7CFCF93DF93C0911B07C2
:101CC000D0911C078A30C1F420911205CE018551B4
:101CD0009540622F70E00E943335281B822F66E00A
:101CE0000E948E35C82FC15018F4DF91CF9108950E
:101CF00080E20E945C0EF7CF8D30E9F4C551D540EB
:101D000020911205622F70E0CE010E943335281B0E
:101D1000822F9E01280F311D2115324018F080E0DE
:101D2000D0E0C0E0C80FD11DCB5EDA4FD0931C07C6
:101D3000C0931B07DACF96E0FE01A5E1B7E0019062
:101D40000D929A95E1F7803E08F458C086E0FE01B6
:101D500011928A95E9F7C0911B07D0911C0746E0C4
:101D600050E0BE0185E197E00E941F369E0125519B
:101D70003540892B41F1C90145E0969587954A95F3
:101D8000E1F741E050E0BA0102C0660F771F8A9583
:101D9000E2F7CB016091130570911405862B972B08
:101DA000B9016B5F7F4FE5E076956795EA95E1F7BE
:101DB00002C0440F551F6A95E2F7842B952B909330
:101DC0001405809313052A5F3F4F40911205642F3D
:101DD00070E0C9010E943335481B463010F4240FCF
:101DE000311D211572E0370710F030E020E02B5E46
:101DF0003A4F30931C0720931B0777CFF6E08F9F55
:101E0000B00111246C5D7A4F46E050E0CE010E9493
:101E10001636A1CFCF93DF93EC01FE01849181119F
:101E200003C0DF91CF9108950E945C0E2196F5CFFB
:101E300046E050E067ED73E087EE93E00E941F36C6
:101E4000892B21F087EE93E00E948A071092E90324
:101E50001092EA031092EB031092EC0386E0E7EE97
:101E6000F3E0A7EDB3E001900D928A95E1F70895B4
:101E7000AEE1B0E0EEE3FFE00C9457356091E30390
:101E80007091E4038091E5039091E6030E941C07A2
:101E90006A3071058105910508F48FC00E943807EA
:101EA0006093E3037093E4038093E5039093E60368
:101EB0004091E7035091E8036091E9037091EA03D0
:101EC0008091EB039091EC030E94F2192093E703B9
:101ED0003093E8034093E9035093EA036093EB03E4
:101EE0007093EC0386E0E7EEF3E0DE0117960190D5
:101EF0000D928A95E1F786E0FE013796DE011D9688
:101F000001900D928A95E1F786E0FE013D96DE0193
:101F1000119601900D928A95E1F786E0FE013196C7
:101F2000A7EEB3E001900D928A95E1F786E0E7EE27
:101F3000F3E0DE01599601900D928A95E1F786E073
:101F4000FE017996DE01179601900D928A95E1F7D0
:101F500086E0FE013796DE01119601900D928A957A
:101F6000E1F786E0FE013196DE01539601900D9275
:101F70008A95E1F786E0FE017396DE0117960190DF
:101F80000D928A95E1F786E0FE013796A7EEB3E061
:101F900001900D928A95E1F786E0EDEDF3E0DE0128
:101FA000179601900D928A95E1F78091E803988544
:101FB000892B8093E8030E94180F6E96E2E00C9440
:101FC00073358091E0049091DF04892B8093D802CF
:101FD0009091AA03992391F0892B8093D80220E055
:101FE0008AED92E0FC013191CF0131112F5FF2E0D7
:101FF000803E9F07B9F721110E94A90C48E050E0EC
:1020000064E373E088ED92E00E941F36892BA9F00B
:1020100088E0E8EDF2E0A4E3B3E001900D928A9548
:10202000E1F7E091E504F091E604309731F00280A9
:10203000F381E02D88ED92E009950895CF93DF9329
:10204000EC01EA85FB85309719F06C857D85099553
:102050008B810E94B90C8C810E94C00C0E94E10F00
:1020600086E0FE0111928A95E9F7DF91CF910895FC
:10207000CF93DF93EC018D8181FD18C082608D8349
:102080008091DF049B81892B8093DF048091E004A1
:102090009C81892B8093E0040E94E10FE885F985FB
:1020A000309721F06C857D85CE0109951092E20470
:1020B0001092E1048D8180FD03C0CE010E941E10AC
:1020C000DF91CF910895882321F00E94B90C0E94DE
:1020D000E10F0895882339F09091DF04982B9093B5
:1020E000DF040E94E10F0895882321F00E94C00CB4
:1020F0000E94E10F0895882339F09091E004982B15
:102100009093E0040E94E10F08958093EE04709391
:10211000F0046093EF048091FE04843001F582E0C6
:102120008093E9008FEF9091E800815095FD06C003
:1021300095ED9A95F1F700008111F5CF8091E800B7
:1021400085FF0DC050E040E063E070E08EEE94E06B
:102150000E94E4058091E8008E778093E80008955E
:10216000BC0184E00E9485100895BC0183E00E94B8
:10217000851008959C0182E08093E9009FEF809193
:10218000E800915085FD06C085ED8A95F1F70000C5
:102190009111F5CF8091E80085FF0CC050E040E040
:1021A00066E070E0C9010E94E4058091E8008E7746
:1021B0008093E8000895CF93DF93EC0181E0809352
:1021C000E9008FEF9091E800815095FD06C095EDF4
:1021D0009A95F1F700008111F5CF8091E80085FF15
:1021E00014C050E040E068E070E0CE010E94E405D9
:1021F0008091E8008E778093E80088E0FE01A4EFEC
:10220000B4E001900D928A95E1F7DF91CF910895A6
:10221000539A3BB1377F2BB128604FB7F89487E3CF
:1022200094E0FC015191CF0168E02BB9000000C09F
:1022300057FF3BB9550F000000C000C000C03BB9BC
:1022400000C06A9591F7F4E0893D9F0751F74FBFB1
:102250008FE594E00197F1F700C000000895B0E029
:10226000A0E0E5E3F1E10C944F357C015B016A01EC
:102270008091840301E010E08A3010F40AE010E05D
:10228000C1E0D0E0B501C701F6010995811104C094
:1022900021960C171D072CF4CDB7DEB7EAE00C949D
:1022A0006B35CC9F9001CD9F300D300D112490E007
:1022B00080E045E34A95F1F7000001968217930705
:1022C000C1F7E0CF80914603811110C08091D80002
:1022D00080618093D8008AE18A95F1F700C08091EF
:1022E000D90080FF0AC081E08093460381E090918D
:1022F0004603913009F080E0089582E08093460320
:102300000E9494051092FE04F1CF0E94621188236E
:1023100059F0E091E504F091E604309729F001903E
:10232000F081E02D0995089580E008950E946211E2
:1023300091E089270895FF920F931F93CF93DF9326
:10234000EC01F62E042F122F0E94961181110FC05E
:10235000CB31D1057CF06B97FE01EE0FFF1FEC0F28
:10236000FD1FE95CFB4FF1820083128303C0CB3178
:10237000D10594F3CDB7DEB7E5E00C947035CF937B
:10238000C82F0E949611882329F081E0CB3128F0D4
:1023900080E003C081E0C633D8F7CF910895B0E064
:1023A000A0E0E5EDF1E10C945135182F8091B101D9
:1023B00081133EC090910C0593702091B00130E0E4
:1023C00081E09217130609F480E081708093AF01D9
:1023D000809111059091AE01981739F08093AE016C
:1023E00040E060E080E00E941A08123009F4F0C07A
:1023F00008F5112309F4A8C0113009F4B0C080E039
:102400009091AD019F5F9093AD0181110CC082E06E
:102410008093B3018091AF01811105C0111103C0F8
:1024200083E08093B301CDB7DEB7E8E00C946D355F
:1024300081E0CBCFC091AD01143009F486C108F41E
:1024400012C11530E1F68BE0C89F800D1124C82F12
:10245000873308F0C6E30E949611882319F0CC3127
:1024600008F0CBE10E949611409132045091330460
:1024700060913404709135048091F5039091F603D6
:10248000A091F703B091F80384179507A607B70743
:1024900008F058C00E944C08D82F0E944C0896E3C0
:1024A000891BF0F7890FE82EF12CF701E056FD4F5C
:1024B0008091AE019081892309F444C020E040E07E
:1024C00060E0D1FD13C00E944C08D82F0E944C0838
:1024D0008695782F2FE7720F08F47FEF6D2F80918C
:1024E0000F050E946108462F282F672FC7010E9401
:1024F000170830E180911005282F230F08F42FEFE3
:10250000822F90E070E060E0839F612D939F600DCB
:10251000711D112484EF91E00E94333580913204C3
:1025200090913304A0913404B0913504860F971F25
:10253000A11DB11D8093F5039093F603A093F703BB
:10254000B093F8038C2FECC08091AF01882309F47D
:1025500057CF40E060E080E00E941A0850CFC09161
:10256000AD018BE0C89FC02D11240BE00C0F073389
:1025700008F006E30E949611882319F00C3108F048
:102580000BE10E949611811103C0CB3108F4CBE11D
:1025900060910D0570910E0580910F050E946108F4
:1025A000F62EE72ED82ED0E0C01710F0802FB8C03E
:1025B000FE01E056FD4F80819091AE01892331F0FC
:1025C0002D2D4F2D6E2DCE010E9417082196ECCF98
:1025D000C091AD018BE0C89FC02D11240BE00C0F02
:1025E000073308F006E30E949611882319F00C3196
:1025F00008F00BE10E949611811103C0CB3108F461
:10260000CBE1E0900E05D0900F052091100590E4ED
:10261000F92E3F2D329F312D1124F32ED0E0C0171B
:1026200008F0C4CFFE01E056FD4F80819091AE01CD
:102630008923B9F0FE01EE0FFF1FEC5FFD4F81A96A
:1026400082958F7060910D058F9D600D11247E2DF8
:102650008D2D0E946108462F282F672FCE010E94E2
:1026600017082196DCCF8BE0C89FC02D1124DBE03A
:10267000DC0FD73308F0D6E30E949611882319F0B7
:10268000DC3108F0DBE10E949611811103C0CB31EF
:1026900008F4CBE160910D0570910E0540910F0596
:1026A000E0913204F091330480911005869586956F
:1026B000869530E020E0E89F212DF89F200D311D08
:1026C0001124922F96FD2095322F3F7096FD3F5F8B
:1026D0002695269526952670E22FF0E0E450FE4FD1
:1026E0008181839F802D312D112482958F703295A9
:1026F000307F832B2081820F97FD819587FD819507
:10270000880F282F249F212D1124822F0E946108D9
:10271000062FD72EC82EEC2EF12CED1620F08D2F83
:102720000E94BF116DCEF701E056FD4F8081909160
:10273000AE01892331F02C2D402F6D2DC7010E9451
:1027400017083FEFE31AF30AE8CF8BE0C89FC02DCC
:1027500011240BE00C0F073308F006E30E949611DA
:10276000882319F00C3108F00BE10E9496118111B9
:1027700003C0CB3108F4CBE1309110053695369586
:1027800021E0320F08F43FEF4091320450913304BE
:1027900090E080E0439F812D539F800D911D112477
:1027A000F82ED0E0C01708F001CFFE01E056FD4F33
:1027B00080819091AE01892391F060910D05709117
:1027C0000E0580910F052F2D4C2F0E9433080E947B
:1027D0006108462F282F672FCE010E9417082196E7
:1027E000E1CFCF93C82F882391F0809136048111D7
:1027F0000EC00E94CF111092B10180910C05837020
:102800008093B0010E94081183E08093B301C093CC
:102810003604CF9108950F931F930E94621188236D
:1028200029F00E9438071F910F9108950E943807E0
:1028300000918503109186032091870330918803CE
:10284000600F711F821F931FEECF4F925F926F92A6
:102850007F928F929F92AF92BF92CF92DF92EF9230
:10286000FF92CF9380902C0490902D04A0902E0482
:10287000B0902F040E946211882309F44CC0C50156
:10288000B4010E941C076B017C010E940B144B01D8
:102890005C0180922C0490922D04A0922E04B092A0
:1028A0002F04A091F903E9EFF3E08A2F90E04FEFB6
:1028B0005FEF60E070E04C195D096E097F09A913B4
:1028C00033C08093F90380913604C0E0811108C0C1
:1028D00080910C05C82FC37019F0C82FC695C695F6
:1028E0008091B301813009F440C0882381F18230A6
:1028F00009F454C0833009F45CC0CF91FF90EF908D
:10290000DF90CF90BF90AF909F908F907F906F900F
:102910005F904F9008950E940B146B017C01C818C2
:10292000D908EA08FB08B1CF278D30A12901712C05
:10293000612C441555056605770520F481509F5F8D
:102940003296BDCF2C0D3D1D30A3278FF8CF1092AE
:10295000AD018092320490923304A0923404B0927C
:10296000350481E08093B301C8CF8C2F0E94CF1132
:10297000CC2319F20E94851181FFBFCFF12CE12CED
:1029800020E04FEF60E0C7010E9417088FEFE81AC0
:10299000F80A86E3E816F10499F7AFCFC093B101C6
:1029A00080910C0583708093B0010E94081183E030
:1029B000D9CF80910B05882351F046E050E06CE1BF
:1029C00070E08CE095E00E94533610920B05C090A9
:1029D0003204D0903304E0903404F09035040E9427
:1029E0006211882369F0C701B6010E941C0760319B
:1029F00071058105910508F480CF1092B3017DCF58
:102A00000E940B146C197D098E099F09F0CFECE030
:102A1000F5E08DE080838091B4019091B501A091A3
:102A2000B60181839283A3838FE784838FEF8583AD
:102A300046E050E06CE170E0CF010E945336109206
:102A40000B050895A1E0B0E0E8E2F5E10C945535FE
:102A500069839091F403992391F0682F606804E1F1
:102A600010E021E030E0AE014F5F5F4F84E50E944F
:102A70000333892B11F01092F4030E9473332196D3
:102A8000E4E00C94713560E082E00E94221587EC4E
:102A900090E00197F1F700C000000895EF92FF92D7
:102AA0000F931F93CF93DF937B01D42F9091F40367
:102AB0009923C9F0C82FC06A04E110E030E020E09B
:102AC00050E040E06C2F84E50E9403332D2F30E06E
:102AD000A7016C2F84E50E942A33892B11F01092F4
:102AE000F4030E947333CDB7DEB7E6E00C946F3584
:102AF000A1E0B0E0EEE7F5E10C945635182F41E087
:102B0000BE016F5F7F4F84E00E944E1589811123C3
:102B100051F081608983698184E00E9422152196A9
:102B2000E3E00C9472358E7FF5CFCF9384E090E094
:102B30000E944536C82F82E290E00E944536982FC9
:102B40008C2FCF910895B0E0A0E0E9EAF5E10C9474
:102B500052357901C82F880FDD0B41155105A9F0B9
:102B6000FE0193E0EE0FFF1F9A95E1F7E05FFE4F45
:102B700081819281895B9C4F208130E0421753070D
:102B800008F49A01A9010E942C36CE010E94BD349E
:102B9000D82E8823D1F001151105B9F083E0CC0FB0
:102BA000DD1F8A95E1F7FE01E05FFE4F438150E0B3
:102BB0000417150708F4A801C05FDE4F6C817D8102
:102BC000695B7C4FC7010E942C368D2DCDB7DEB7D7
:102BD000E7E00C946E35A3E0B0E0E1EFF5E10C9492
:102BE000553560917C0370917D0380917E039091B7
:102BF0007F030E941C0741E0643671058105910541
:102C000008F440E03091E0043983643671058105B1
:102C1000910520F420915803231341E09091DF04A3
:102C20009A83411106C041E020915903291301C044
:102C300040E09091AA039B83411105C080915A0303
:102C400011E08917C9F010E000E030E020E043E037
:102C500050E0BE016F5F7F4F86E00E94A315182FE2
:102C6000882351F00E94380760937C0370937D03A2
:102C700080937E0390937F03812F2396E4E00C944E
:102C80007135A4E0B0E0E7E4F6E10C9455356091CD
:102C90006E0370916F0380917003909171030E9495
:102CA0001C0711E0643671058105910518F10E9439
:102CB0000B146E5F7F4F8F4F9F4F69837A838B8397
:102CC0009C8310E000E030E020E044E050E0BE01F2
:102CD0006F5F7F4F83E00E94A315182F882351F068
:102CE0000E94380760936E0370936F0380937003A4
:102CF00090937103812F2496E4E00C947135A5E044
:102D0000B0E0E5E8F6E10C9453357B0101E010E01A
:102D10009E012B5F3F4F50E040E070E060E080E0BC
:102D20000E94A315182F882309F445C060916603FB
:102D30007091670380916803909169030E941C075A
:102D4000643671058105910538F488E493E00E94AA
:102D50006A059D81891779F104E010E09E012F5FDB
:102D60003F4F50E040E070E060E081E00E94A3153A
:102D7000082F88E493E00E946A0511E09D81981372
:102D800010E0102331F10E943807609366037093BE
:102D90006703809368039093690389819A81AB816B
:102DA000BC818093620390936303A0936403B09308
:102DB000650311E00EC08091480390914903A091F2
:102DC0004A03B0914B0389839A83AB83BC8311116F
:102DD000E4CF8091620390916303A0916403B0916A
:102DE0006503F70180839183A283B383812F2596A6
:102DF000E6E00C946F35B0E0A0E0E1E0F7E10C9480
:102E00004F35C82F7B01D42F69015801FB01608128
:102E10007181828193810E941C076436710581054E
:102E2000910510F4DD23C9F010E000E030E020E06F
:102E3000A501B6018C2F0E94A315C82F882339F055
:102E40000E943807F70160837183828393838C2FFC
:102E5000CDB7DEB7EAE00C946B35C1E0F8CFA7E060
:102E6000B0E0E5E3F7E10C94553586E0ECE0F5E001
:102E7000DE01119601900D928A95E1F7809136045A
:102E80008F8347E050E06BE573E0CE0101960E942E
:102E90001F3641E0892B09F440E007E010E09E0175
:102EA0002F5F3F4F60E873E087E00E94FB16279694
:102EB000E4E00C9471350F931F9341E0209154038B
:102EC00030915503809130049091310428173907CF
:102ED00009F440E002E010E020E334E068E773E04A
:102EE00084E00E94FB168823B1F041E02091560354
:102EF0003091570380917603909177032817390713
:102F000009F440E002E010E026E733E062E773E016
:102F100085E00E94FB161F910F9108950F931F9358
:102F2000CF93DF93EC0144E050E06CE473E00E9447
:102F30001F3641E0892B09F440E004E010E09E01D7
:102F40006AE673E082E00E94FB16DF91CF911F9149
:102F50000F91089568EE7EEF90E080E00E94813648
:102F600060E082E090E00E94633660E083E090E001
:102F70000E946336109277031092760360E084E03B
:102F800090E00E94633664E082E290E00E94633643
:102F900060E085E090E00E94633660E086E090E0CB
:102FA0000E9463366FEF87E090E00E94633640E056
:102FB00050E0BA0188E090E00E94753660E08DE054
:102FC00090E00E94633640E050E0BA0188E190E072
:102FD0000E94753660E087E190E00E94633640E031
:102FE00050E0BA018CE190E00E94753670E060E03C
:102FF00080E290E00E94813640E050E0BA0188E132
:1030000090E00E94753640E050E0BA018FE090E019
:103010000E94753640E050E0BA0183E190E00E94E2
:10302000753608951F920F920FB60F9211242F93A9
:103030003F934F935F936F937F938F939F93AF9340
:10304000BF93EF93FF938091E10082FF09C08091CD
:10305000E20082FF05C08091E1008B7F8093E10058
:103060008091DA0080FF24C08091D80080FF20C0CA
:103070008091DA008E7F8093DA008091D90080FF02
:103080009DC080E189BD82E189BD09B400FEFDCF0C
:1030900081E08093FE048091F104811109C00E94B7
:1030A00094050E945F068091E20084608093E200B4
:1030B0008091E10080FF17C08091E20080FF13C083
:1030C0008091E2008E7F8093E2008091E200806137
:1030D0008093E2008091D80080628093D80019BC70
:1030E00085E08093FE048091E10084FF2BC08091F5
:1030F000E20084FF27C080E189BD82E189BD89B5F6
:10310000982F917080FFFBCF8091D8008F7D8093A6
:10311000D8008091E1008F7E8093E1008091E200F1
:103120008F7E8093E2008091E20081608093E200D4
:103130008091FF04882309F447C084E08093FE0453
:103140008091FE048091E10083FF27C08091E2001E
:1031500083FF23C08091E100877F8093E10082E0BC
:103160008093FE041092FF048091E1008E7F809393
:10317000E1008091E2008E7F8093E2008091E20086
:1031800080618093E20042E060E080E00E942D06D2
:103190008091F00088608093F000FF91EF91BF91E3
:1031A000AF919F918F917F916F915F914F913F91DF
:1031B0002F910F900FBE0F901F90189519BC109271
:1031C000FE041092F10474CF8091E30087FD93E038
:1031D0009093FE04B5CF78941F921FB61F921124CE
:1031E0008F939F93AF93BF938091EA049091EB04E8
:1031F000A091EC04B091ED040196A11DB11D809346
:10320000EA049093EB04A093EC04B093ED04BF9117
:10321000AF919F918F911F901FBE1F9018959C0199
:103220004FB7F8948091EA049091EB04A091EC04DC
:10323000B091ED044FBF821B930B08952FB7F89404
:103240008091EA049091EB04A091EC04B091ED041C
:103250002FBF0895A1E0B0E0E0E3F9E10C9453350D
:103260008C018FEF898380E00E94781561E08CE10A
:103270000E94221567E88DE10E94221565E08EE12B
:103280000E9422150E941E197C0141E0BE016F5F61
:103290007F4F8EE10E944E158981882329F0C70156
:1032A0000E940F19459788F341E0B8018BE10E9415
:1032B0004E150E9443152196E6E00C946F35A2E06E
:1032C000B0E0E5E6F9E10C9455350E94FC3181E06F
:1032D0008093F40361E083E00E9422152FEF86E7DC
:1032E00091E0215080409040E1F700C0000060E094
:1032F00083E00E94221587EC90E00197F1F700C06F
:1033000000000E94431560E085E00E94221562E003
:1033100084E00E94221565E08AE00E9422151A824C
:10332000CE0102960E942A191A81812F807C803C4E
:1033300009F451C0106C1A838FEF898380E00E94DA
:103340007815612F8BE10E94221561E08CE10E94CB
:10335000221567E88DE10E94221562E08EE10E944D
:1033600022150E941E198C0141E0BE016F5F7F4F44
:103370008EE10E944E158981882329F0C8010E94A0
:103380000F19459788F30E944315CE0102960E94BB
:103390002A1941E0BE016F5F7F4F87E00E944E1502
:1033A00069816160698387E00E9422150E941E196D
:1033B0008C0141E0BE016F5F7F4F87E00E944E1598
:1033C000898180FF06C0C8010E940F19893C9105C0
:1033D00080F30E94431581E00E9478152296E4E074
:1033E0000C947135AFE1B0E0E8EFF9E10C944735AA
:1033F0004B8B152F5C8B6D8B7E8B8F8B988F6F8F8C
:103400007E8F1F829E012F5F3F4F190186E0F901D9
:1034100011928A95E9F741E0BE01695F7F4F82E032
:103420000E944E158F8182FF55C246E0B10182E1B4
:103430000E944E150E9443158D8190E0382F22275F
:1034400022273F704B81242B44E0880F991F4A9517
:10345000E1F788279F704C81842B4E814F73642F36
:1034600070E07C8F6B8FA901482B592B71E07D8F09
:10347000452B09F41D8EE091A901F091AA01FA8F64
:10348000E98F2038F7E03F0710F02FE737E0803C66
:1034900045E0940710F08FEB95E02F37310510F4DD
:1034A0002FE730E050E040E08F33910510F48FE3D8
:1034B00090E06C01F12CE12C698D7A8D4B01B12CDF
:1034C000A12C2F57310941095109C5010E947E35B0
:1034D00020E037E040E050E00E94AE3529013A019B
:1034E000A70196012F53310941095109C501B401C2
:1034F0000E947E3520E835E040E050E00E94AE3585
:1035000069017A018B8D9C8D892B09F414C1E98D99
:10351000FA8DEF2B09F44EC0AEEFB0E0A30192019B
:103520000E940B36A50194010E94D0352F57298F98
:10353000AEEFB0E0A70196010E940B36A501940101
:103540000E94D03581E8A82EA20E8091A60190910C
:10355000A701892B91F5FA2DFF02C0011124298DB5
:103560002202800D911D11240E946009282F34E64B
:10357000839FC00111246FE770E00E949A3530915B
:103580009C0184E690E0831B91096817790784F019
:1035900081E08093A201498D4093A401A092A501EE
:1035A0002093A301842F881F8827881F8093A80158
:1035B000912C73C0A12C198EC8CF9090A20151E01C
:1035C0009512F6CF0091A401698D462F660F550B19
:1035D000401B510907FD53958090A5012A2D0A2C07
:1035E000000C330B2819310987FC3395449FB00137
:1035F000459F700D700D1124229FC001239F900DD7
:10360000900D1124860F971F0E94600990919D01D3
:10361000891708F442C02091A301229F9001112430
:103620007A2DE82D7E02C0011124F98DF002800D63
:10363000911D112497FF03C0919581959109281B35
:10364000390B37FF03C0319521953109032E000C4A
:10365000440B550B8A2D0802B0011124998DE82DD9
:103660009E0260197109112477FF03C0719561955D
:103670007109072E000C880B990B0E94F508209108
:103680009E0130919F018217930720F483E080937D
:10369000A2018ECF82E08093A2018091A2018230AC
:1036A00009F04AC06091A4018091A501FA2D8F0212
:1036B00090011124498D6402200D311D1124032E27
:1036C000000C440B550B6F02B0011124998D980228
:1036D000601971091124072E000C880B990B0E94A8
:1036E000F5082091A00130E0DC010E94043620E0C2
:1036F00030E041E050E00E94D035822E00E02223ED
:1037000081F08091A8019091A101992369F0022F85
:103710000195882371F000E0E98DE093A401A09267
:10372000A501992493940AC0811102C08194F3CF1A
:10373000022F812CF1CF912C00E0812C2B8D3C8D20
:103740003093A7012093A601232B11F41092A2011C
:103750008F8A088F86E0FE017396DE011D96019028
:103760000D928A95E1F78091EF033D8D381709F4AA
:1037700046C03093EF034B8D5C8D452BD1F5A09067
:10378000ED03B090EE03C5010E940F198639910533
:1037900080F5A114B10469F1812F81608E875F8D5E
:1037A0005F876E8D688B86E0FE013D96D1010190AA
:1037B0000D928A95E1F786E0F101A7EEB3E0019062
:1037C0000D928A95E1F70E94180F1E7F1E8786E0F2
:1037D000FE013D96D10101900D928A95E1F786E0B8
:1037E000F101A7EEB3E001900D928A95E1F70E94F6
:1037F000180F0E941E199093EE038093ED038091A1
:10380000ED039091EE030E940F19813B944020F04C
:103810001092EE031092ED031E878F8D8F879E8D81
:10382000988B898A0A8B86E0FE013D96D101019032
:103830000D928A95E1F786E0F101DE01179601907D
:103840000D928A95E1F786E0FE013796DE015396E8
:1038500001900D928A95E1F780E020E0911038C048
:103860008091F2039091F303009709F448C04091CE
:10387000F0035091F1034115510509F440C0411482
:103880005104E9F1C114D104D1F1F201E81BF90BA3
:10389000CF0120E88038FFEF9F0734F08038910592
:1038A00014F08FE790E0282FC601841B950B803819
:1038B0003FEF93073CF18038910514F08FE790E0DB
:1038C0005092F3034092F203D092F103C092F003BE
:1038D0002D8B8E8B86E0FE017396DE01179601908C
:1038E0000D928A95E1F72F81388549855A856B8538
:1038F0007C8580E090E06F96E2E10C94633580E097
:1039000020E0DECF80E8DCCF0E941E199C01909160
:10391000DF038091E003982B21F03093D6032093AE
:10392000D5039091E1038091E203982B21F030932D
:10393000D4032093D3038DED93E00E948A0708956A
:1039400090E080E00E94740790E080E00E945E07B3
:103950001092DF040E94E10F86E0EDEDF3E0DF015D
:103960001D928A95E9F71092D1031092D00310921C
:10397000D2030E94841C08959093310480933004F4
:103980000E94A01C089521E030E002C0220F331FE6
:103990008A95E2F72095309580913004909131041A
:1039A000822393230E94BC1C089590913303809539
:1039B000892380933303282F277091F4282F082E12
:1039C000000C330B9217130659F09091940392FF59
:1039D00007C08595859585950E94C31C1092330379
:1039E0000895CF93C0919403C2FB992790F998173B
:1039F00091F080FBC2F9C09394036091930384E03B
:103A000090E00E9463366C2F82E290E00E94633661
:103A100082E00E94D51CCF91089521E030E002C0E1
:103A2000220F331F8A95E2F7809130049091310480
:103A3000822B932B0E94BC1C089581E00E947B0D79
:103A4000882349F082E00E947B0D882321F083E0E7
:103A50000E940D1D089583E00E94C31C0895909359
:103A60007703809376030E94A01C08951092E004CF
:103A7000EAEDF2E086E0DF011D928A95E9F70E9407
:103A8000A01C0895AAE2B0E0E8E4FDE10C945635EC
:103A900080E095E02091F100FC012193CF01F5E059
:103AA00088309F07B9F780910105833009F470C011
:103AB000B8F4813009F447C0823009F4B1C0809174
:103AC000E80083FF7EC280910005909101059A3045
:103AD00008F077C2E92FF0E0E757F94C0C94EF3586
:103AE0008A3009F48CC08B3009F46FC0893039F703
:103AF00080910005813219F78091040590910505A8
:103B00000297E8F68091E800877F8093E800809133
:103B1000E80082FF38C09091F3008091F200029794
:103B200031F48091F100813011F0863021F48091E0
:103B3000F1008093F3048091E8008B778093E80094
:103B40000E940E06BCCF80910005813A09F0B7CFE4
:103B50008091E800877F8093E80080910405909130
:103B60000505892B61F468E084EF94E070E00E9421
:103B7000BA068091E8008B778093E800A0CF60E0E0
:103B800090E080E0F3CF8091FE048111C0CF97CF09
:103B900080910005813A09F092CF809104059091BF
:103BA0000505892B09F08BCF8091E800877F8093F2
:103BB000E8008091E80080FFFCCF8091B201809303
:103BC000F1008091E8008E77B9CF809100058132B5
:103BD00009F075CF8091040590910505892B09F0B6
:103BE0006ECF8091E800877F8093E8000E940E06E8
:103BF000809102058093B2010E94361D60CF8091B2
:103C00000005813209F05BCF8091E800877F8093C7
:103C1000E8000E940E06809103058093F2044FCFC6
:103C200080910005813A09F04ACF8091E800877FB2
:103C30008093E8008091E80080FFFCCF8091F2043F
:103C4000BECF803899F0823809F0BBC1809104055D
:103C50008F70873008F0B5C18093E9008091EB0048
:103C600085FB882780F91092E90006C08091FC044A
:103C70009091FD04911182609091E800977F90935C
:103C8000E8008093F1001092F1008091E8008E77B7
:103C900094C1882309F482C1823009F092C18091D5
:103CA0000205811185C1809104058F702FEF280FC7
:103CB000263008F086C18093E9002091EB0020FFB8
:103CC00077C1933031F48091EB0080628093EB00F8
:103CD0006FC19091EB0090619093EB0021E030E098
:103CE00001C0220F8A95EAF72093EA001092EA00B9
:103CF0008091EB008860EACF811163C110910205C9
:103D00001F778091E3008078812B8093E30080917E
:103D1000E800877F8093E8000E940E068091E8000B
:103D200080FFFCCF8091E30080688093E30082E015
:103D3000111183E08093FE0444C18058823008F062
:103D400040C180910205909103058C3D23E09207CC
:103D5000A1F583E08A838AE289834FB7F894DE0174
:103D6000139620E03EE051E2E32FF0E0509357003D
:103D7000E49120FF03C0E295EF703F5FEF708E2F5C
:103D800090E0EA30C0F0C7968D939D932F5F243169
:103D900059F74FBF8091E800877F8093E8006AE27F
:103DA00070E0CE0101960E94BA068091E8008B7700
:103DB0008093E80006C1C096E7CF4091040550917A
:103DC0000505292F33272330310509F444C078F540
:103DD0002130310509F46FC08BE390E0E3EBF4E0B0
:103DE0002230310509F0EDC02091E800277F2093B3
:103DF000E80020910605309107058217930708F423
:103E00009C0140E02115310509F064C0411162C0F8
:103E10008091E80082FDC9CF8091FE04882329F2B9
:103E2000853019F28091E80083FFF2CFBECF2132B6
:103E30003105A9F12232310509F0C3C04115510500
:103E400009F443C04130510509F0BBC08BE790E055
:103E5000E8EFF3E0C9CF992781309105C1F00097D1
:103E600059F0029709F0ADC0E0E0F5E0E4918E2F43
:103E700090E0E0E0F5E007C0E0E2F5E0E4918E2FAD
:103E800090E0E0E2F5E0009709F49BC0ADCFEEE0F2
:103E9000F5E0E4918E2F90E0EEE0F5E0F4CF4115EF
:103EA000510571F04130510509F08BC089E090E077
:103EB000EEEDF4E099CF82E190E0EEEEF4E094CF05
:103EC00089E090E0E5ECF4E08FCF80E490E0E3E778
:103ED000F4E08ACF8091FE04882309F466CF853010
:103EE00009F463CF8091E80083FD5FCF8091E80003
:103EF00082FD8ECF8091E80080FF84CF9091F30007
:103F00008091F2002115310519F08830910550F0AB
:103F100041E0089709F040E08091E8008E778093B7
:103F2000E80070CF44914093F1003196215031095F
:103F30000196E8CF803809F044C08091E800877F7F
:103F40008093E8008091FF048093F1009ECE811160
:103F500038C0109102051230A0F58091E800877FEB
:103F60008093E8001093FF040E940E06112311F0C5
:103F700084E005C08091E30087FDFACF81E0809363
:103F8000FE0442E061EC81E00E942D0642E261EC19
:103F900082E00E942D068091FE0413C080910205EC
:103FA000813079F481E0933009F080E08093FD0462
:103FB0001092E9008091E800877F8093E8000E94DA
:103FC0000E068091E80083FF0AC08091E800877F99
:103FD0008093E8008091EB0080628093EB00AA96CA
:103FE000E3E00C9472351F920F920FB60F921124DA
:103FF0002F933F934F935F936F937F938F939F93F1
:10400000AF93BF93CF93DF93EF93FF93D091E900EA
:10401000DF708091EC00C82FC17080FDC0E8109265
:10402000E9008091F000877F8093F00078940E94EF
:10403000421D1092E9008091F00088608093F000AA
:10404000CD2BCF70C093E900FF91EF91DF91CF911D
:10405000BF91AF919F918F917F916F915F914F91A0
:104060003F912F910F900FBE0F901F9018950E94B7
:10407000361D2FEF84E39CE0215080409040E1F713
:1040800000C0000088E19AE00FB6F894A8958093EC
:1040900060000FBE90936000FFCF8823C9F19CEFB2
:1040A000980F913A78F4EAEDF2E09191891303C008
:1040B000DF0111971C9292E0E03EF907B1F70E94F0
:1040C000E10F089590E2980F983050F4877091E0D6
:1040D00001C0990F8A95EAF7892F0E94C00CEFCF93
:1040E0009BE5980F933028F490E080E00E947407DD
:1040F000089598E5980F973128F490E080E00E94A9
:104100005E0708958D3E20F00E9490090E94841C55
:104110000895CF93DF93EC010E944D20CE010E94C1
:10412000BE0D9E01205E31092830310510F0CD2BE7
:1041300029F40E947410DF91CF9108950E946310BA
:10414000FACFFC018281813031F4FB0180819181C1
:104150000E94892008958230E9F7FB0182819381D2
:10416000F7CFCF93C82F8823B1F08CEF8C0F813A13
:1041700000F5EAEDF2E080EE92E0DF012D91C2174A
:1041800061F08A179B07D1F76C2F88ED92E00E94AF
:1041900044070E94E10FCF9108952191C21303C0FB
:1041A000DF0111971C928E179F07B9F70E94E10F4C
:1041B000EBCF80E28C0F883068F4C77021E030E0EC
:1041C00001C0220FCA95EAF78091E004822B809308
:1041D000E004DFCFEBE5EC0FE33040F4F0E0E9542E
:1041E000FE4F808190E00E947407D5CFE8E5EC0F88
:1041F000E73150F4F0E0EE0FFF1FE654FE4F8081F0
:1042000091810E945E07C7CFCD3E28F28C2F0E947D
:104210004B0A0E94841CBFCF0F931F93CF93DF9351
:10422000C62FD42F022FFC0182818823A9F060932E
:104230000A050E941E199093090580930805C7700E
:1042400081E001C0880FCA95EAF70E947B10DF91D8
:10425000CF911F910F91089580910A05681335C081
:1042600080910805909109050E940F1986399105E2
:1042700060F510E21D0FCD17B9F080E28C0F883089
:1042800040F4C77081E001C0880FCA95EAF70E9428
:104290007410183048F481E09D2F977001C0880F8A
:1042A0009A95EAF70E947B10802F0E94B120802F00
:1042B0000E944D20183058F6D77081E001C0880F59
:1042C000DA95EAF70E947410C2CFC77081E001C08E
:1042D000880FCA95EAF7F6CFCF93DF93EC010E94DF
:1042E000BE0D9E01205E31092830310510F0209767
:1042F00041F40E947B108C2F0E94B120DF91CF915E
:1043000008950E946A10F7CFFB01808191810E947D
:104310006C210895CF93DF93EC018A81823041F4C0
:10432000FB01828193810E946C218D8182608D834B
:10433000DF91CF910895ACE0B0E0E1EAF1E20C94B6
:104340004C358E010F5F1F4F88E0D8011D928A9572
:10435000E9F78AEEC82E81E0D82EF12CE12CAA24B0
:10436000A394B12C24EF822E21E0922EF6018191AC
:104370006F018F3F09F442C0F894E82FE295EF7087
:10438000F0E021A18F70A50102C0440F551F8A954E
:10439000E2F7CA01922F982B91A392A180958923CD
:1043A00082A3789400C0EEEEF1E0712C31E021910F
:1043B0002F3F09F46BC0A22FA295AF70B0E090968A
:1043C0008C9190E02F7002C0959587952A95E2F721
:1043D00080FD5CC0832F782A330F8E169F0639F735
:1043E000F601319780818F3F11F00E94A70A50EAB1
:1043F0005A95F1F7F801EE0DFF1D70828FEFE81A64
:10440000F80AA4E0EA16F10409F0B0CF48E050E061
:10441000B80189E893E00E941F36009741F028E038
:10442000F801A9E8B3E001900D922A95E1F7009117
:104430009203892B69F181E080933E030E941E194B
:1044400090933D0380933C0380913C0390913D0306
:104450000E940F19059700F110E009561C4F44E027
:1044600050E069E873E0C8010E941F36B12C892B27
:1044700051F084E0E9E8F3E0D80101900D928A95CB
:10448000E1F7BB24B39410923E0307C080E0A3CFB2
:1044900080913E038111D8CFB12C0E946211A82EC9
:1044A000E0919203882309F49FC019861A861B861F
:1044B0001C860E2F10E009561C4F809184038A3011
:1044C00008F05CC04FE756E1BE01675F7F4FC8014F
:1044D0000E942F11882309F476C04EE857E1BE01EF
:1044E000675F7F4FC8010E942F11882309F46BC0BA
:1044F00041E456E1BE01675F7F4FC8010E942F1162
:10450000882309F460C04BE557E1BE01675F7F4F28
:10451000C8010E942F11882309F455C04BEE55E1C4
:10452000BE01675F7F4FC8010E942F11882309F4E5
:104530004AC04FE257E1BE01675F7F4FC8010E944A
:104540002F11882309F43FC01092840380919103B6
:1045500090E044E050E0BE01675F7F4F89569C4F7A
:104560000E941F3621E020934503892BF1F4A12CF2
:104570008A2D8B292C96EDE00C94683580913F03B1
:10458000909140030E940F19843F914008F09ACF08
:1045900080914503882359F3FE01399684E0DF01B9
:1045A0001D928A95E9F710924503E0919103F0E09E
:1045B000E956FC4F89859A85AB85BC8580839183BC
:1045C000A283B383D5CF809184038F3F31F08F5F77
:1045D000809384038A3008F4B9CF0E941E19909307
:1045E000400380933F03D4CF0091910310E009561C
:1045F0001C4FF0E0E956FC4F84E0A8E4B3E00190E2
:104600000D928A95E1F788E493E00E946A05809311
:10461000470384E0ECE4F3E0D80101900D928A9521
:10462000E1F7C0905003D0905103E0905203F09016
:1046300053038091410390914203A0914303B091B1
:104640004403C816D906EA06FB06D1F0C09241031E
:10465000D0924203E0924303F09244030E9462111D
:1046600081110EC00E943807C61AD70AE80AF90A53
:10467000C0928503D0928603E0928703F09288036C
:1046800080915403909155039093310480933004AA
:10469000809156039091570390937703809376030C
:1046A000809158038093E004809159038093DF0444
:1046B00080915A030E94AF0C86E0EBE5F3E0ACE09A
:1046C000B5E001900D928A95E1F7809161030E9417
:1046D000F1134ECFA2E1B0E0E0E7F3E20C944D35E8
:1046E0007C01DC0113968D919C911497892B39F0F4
:1046F0008C9111969C9189238F3F09F0E2C56296B7
:10470000ECE00C9469350E94D10C182F682F898138
:104710009A810E94450D69817A81812F0E94010B47
:104720008C01F70182818823E1F08091E10490916E
:10473000E2040097B1F08017910799F0FEE08F9F97
:10474000C0011124FC01EE59FE4F2081246020831A
:10475000835A9E4FDC010D931C930E9438101092D7
:10476000DF04043BBDE51B0709F44BC0053BEDE549
:104770001E0709F44EC0033BFDE51F0709F1C80100
:1047800097558F3F910509F008F450C0043FFCE5B0
:104790001F0709F400C108F0E9C0093D3CE5130713
:1047A00009F4F5C00A3D4CE5140709F400C1083DC1
:1047B0005CE5150709F07FC026E241EE61EEE3C03B
:1047C000D70112968C918823C1F081E00E940D1DC3
:1047D0000E941D1D80913303877009F490CFD7018B
:1047E00012968C91882309F48ACF8091940382FFDA
:1047F00086CF82E00E94D51C82CF81E00E94C31C3C
:10480000E7CFF7018281882311F082E0DFCF82E0D9
:10481000F5CFD70112968C91882321F083E00E9476
:104820000D1DD8CF83E00E94C31CD4CF5801BB24F8
:10483000BEE00B9FF00111249F01235A3E4F6901F6
:10484000D70112968C91EE59FE4F908180FB90F922
:104850009083882309F482C00E941E199093A903B3
:104860008093A803F60182818F5F82838091DF04A9
:104870009091E004892B83838091AA03848306802E
:10488000F781E02D309731F0D6011C966D917C9127
:10489000C60109958EE08A9DF0018B9DF00D1124D3
:1048A000E35AFE4F858181FF56C090E080E09093EF
:1048B000E1048093E204F7018281882309F413C59F
:1048C00010920A050430FDE51F0708F073C00B3F86
:1048D0002CE5120730F4C80182509C45449708F03B
:1048E00074C00E94951590939403809393030231B2
:1048F0008CE5180709F474C108F0C0C00930ACE5B4
:104900001A0709F44BC108F08AC00530ECE51E0710
:1049100009F434C108F076C003302CE5120709F41D
:1049200025C108F027C180919303816002304CE5D6
:10493000140709F4A0C0609193031091940384E0DC
:1049400090E00E946336612F82E290E00E9463361D
:104950000E94361D3FCF902F812FA9CFF90185816D
:1049600081FFA9CFC9010E941E10A5CF063F8CE58B
:104970001807C9F0A0F027E245EE66EE073FACE568
:104980001A0709F098CFC7010E940C2123CF27E214
:1049900045EE65EEF8CF26E241EE60EEF4CF27E279
:1049A00045EE64EEF0CF26E241EE62EEECCF28E277
:1049B00041E0EFCF063A3DE5130709F492CFE0F46A
:1049C00002365DE5150709F48CCF06318CE5180732
:1049D00009F0A9C18091E0048A7A91E009F490E09D
:1049E0009093E00269E2811165E388ED92E00E9414
:1049F00044070E94E10FEECEC8018E5A9D450397F1
:104A000020F76FCF80919303806207305CE5150734
:104A100091F108F4BFC08091930380642CC00D30E5
:104A20009CE5190709F4C4C090F4809193038E7F2C
:104A30000B30BCE51B07F9F0809193038C600C30C0
:104A4000ECE51E07C0F0809193038D7F14C00F30FA
:104A5000FCE51F0709F4BCC008F4AEC000313CE51A
:104A6000130709F4B9C0809193038F7B01314CE5A2
:104A7000140709F060CF809393035DCF01155DE5C6
:104A8000150709F4B7C0A8F50B3F9CE5190709F411
:104A900079C0C0F40431BCE51B0709F4B9C008F4BF
:104AA000A5C00531FCE51F0709F045CF80919303B0
:104AB00082FB992790F921E0922790FB82F990FBE5
:104AC00083F9D9CF0D3F2CE5120709F479C008F41A
:104AD0005DC00E3F4CE5140709F476C08091940345
:104AE00083600F3F5CE5150709F025CF80939403A1
:104AF00022CF02368DE5180709F495C090F40230F4
:104B0000ADE51A0709F48DC008F478C060E0033001
:104B1000EDE51E0709F00FCF8EE090E00E946336AE
:104B20000ACF0E3AFDE51F07E9F060F49091930378
:104B3000892F8E7F90FF8160063A3DE5130709F4C7
:104B40009ACFF9CE0F3A4DE5140771F1003B5DE5C0
:104B5000150709F0F0CE90919403892F877F93FF7A
:104B60008860C4CF809194038860C0CF8091930304
:104B7000826081CF8091930384607DCF8091930385
:104B8000886079CF809194038160B0CF8091940345
:104B90008260ACCF8091930380616DCF0E94361DFF
:104BA00080919303806867CF80919403877F9ECF25
:104BB000809193038B7F5FCF80919303877F5BCF3F
:104BC000809194038E7F92CF809194038D7F8ECFBE
:104BD000809193038F7E4FCF809193038F7D4BCF36
:104BE0000E94361D809193038F7745CF8091930368
:104BF000837F41CF809194038C7F78CF8091940301
:104C0000982F909591708E7F892B90FB81F96ECFB4
:104C10000E94361D90919303892F97FB87F9805846
:104C20002ACF61E079CF90919303892F8F7E94FFF3
:104C3000806121CF85E3EAEDF2E020EE32E0919150
:104C4000891303C0DF0111971C922E173F07B9F794
:104C5000D0CE083C4CE5140709F459C008F452C002
:104C600041EE57E064ED77E040C00E3C9CE519074B
:104C700009F457C0A8F44EE957E06CEA77E00C3C21
:104C8000BCE51B0791F147EC57E06AEB77E00D3C80
:104C9000ECE51E0750F14CEA57E06EE977E025C0DD
:104CA000073DFCE51F0748F483E0003D2CE51207B3
:104CB00008F090CD0E9451058DCD0E353DE51307CE
:104CC00009F488CD32C380910C0591E08927809347
:104CD0000C051092B30180910B05816080930B0548
:104CE00079CD42E058E06CE078E00E94980772CD00
:104CF0004CE058E062E078E0F8CF4EEE57E068EF25
:104D000077E0F3CF48EF57E06EEE77E0EECF44ED7B
:104D100057E061EE77E0E9CF4AEB57E067EC77E0E8
:104D2000E4CF81E0C7CF0B354DE5140709F43DC052
:104D300058F401158CE5180791F00F3D1C4509F05A
:104D4000F4C20E94AA1709C00D35ADE51A0719F182
:104D500070F1083A1D4509F0E8C20E9437200E9410
:104D6000361DFFEF24E33CE0F15020403040E1F7F6
:104D700000C0000087E797E7909301088093000840
:104D800088E19AE00FB6F894A895809360000FBE72
:104D900090936000FFCF8091940382FB882780F975
:104DA00091E089270E94F11CC0C281E0FBCF80E026
:104DB000F9CFC8010E94120DD82EC6C2E02FEF70A5
:104DC000BE2E802F807F19F0B29420EFB222DD201A
:104DD000B9F0BB2069F080E2810F883010F08110BB
:104DE00009C08091E004B82AB092E0040E94E10F6B
:104DF000812F43C08091DF04B82AB092DF04F6CF40
:104E0000812F0E944D20BB20D1F180E2810F88309C
:104E100010F0811004C08B2D0E94C00C03C08B2D9C
:104E20000E94B90C0E94E10F2AC0F02FFF70BF2E24
:104E3000802F807F803219F0B29490EFB9228820C1
:104E400059F021E0821609F479C0DD2009F483C00D
:104E5000CC2009F479C0CCCF8091940382FD51C05D
:104E6000DD2009F447C0BB2039F08091E004B82A66
:104E7000B092E0040E94E10F80E00E94B120492D31
:104E80004850550B4430510510F40E948511812F74
:104E9000902F0E94900D8111EBC11092E2021092AE
:104EA000E102AA20B1F08091330380FD12C0D70146
:104EB00012961C928595859585950E940D1DC701BA
:104EC0000E946A23809133038595859585950E947C
:104ED000C31C85E0F701DE01119601900D928A95C1
:104EE000E1F709811A81C8010E94120DB8010E94E0
:104EF000010B05CC80E00E944D20BB2009F4BFCF00
:104F00008ACFDD2071F08091AA038B29C11003C0E4
:104F10000E947B10B4CF31E0C312FACF0E94AF0CD5
:104F2000AECFC11006C00E94A90C8B2D0E94741038
:104F3000A6CF41E0C41609F4A2CFF5CFDD2031F0B1
:104F400055E05C1508F49BCF8B2DE2CF84E08C15E7
:104F500008F495CFEACFCC2041F399E3891209C038
:104F6000AFEFB7EEE3E0A150B040E040E1F700C0A2
:104F70000000812F0E944D2082CF802F869586953C
:104F8000837069F0813009F07ACF812F902F937070
:104F9000D11002C090E080E00E945E0770CF812FA8
:104FA000902F9370D11002C090E080E00E947407AF
:104FB00066CF812FDD20C1F10E944B0A412F415F56
:104FC000550B48305105B0F581E090E001C0880FE5
:104FD0004A95EAF726E0E7EEF3E0DE011796019046
:104FE0000D922A95E1F726E0FE013796DE011D9627
:104FF00001900D922A95E1F72885DD20C1F0822BE2
:105000008E8786E0FE013D96DE01119601900D929D
:105010008A95E1F786E0FE013196A7EEB3E00190B4
:105020000D928A95E1F72BCF0E949009C7CF80950A
:105030008223E6CF0E94841C22CF802F837009F048
:1050400040C0D1101CCF412F429546954770440F68
:10505000440F812F8F7090E0042E02C0880F991F9B
:105060000A94E2F730E020E014FF09C02FE030E0BE
:1050700002C0220F331F4A95E2F720953095402F4A
:10508000469546954370423099F078F460917603E6
:1050900070917703413039F0822B932B862397232D
:1050A0000E942F1DECCE862B972B822B932BF8CFB3
:1050B000822B932B209176033091770382279327BD
:1050C000EFCF8695DD2011F0802F8170882309F4C1
:1050D000D6CE412F429546954770440F440F812FFD
:1050E0008F7090E0042E02C0880F991F0A94E2F797
:1050F00030E020E014FF09C02FE030E002C0220FB2
:10510000331F4A95E2F720953095402F46954695F6
:105110004370423099F078F460913004709131041A
:10512000413039F0822B932B862397230E94BC1C9D
:10513000A6CE862B972B822B932BF8CF822B932BEB
:10514000209130043091310482279327EFCF502FE4
:105150005F70B52EDD2029F0852F0E940D1D812F57
:10516000D7CE812F0E9474108B2D0E94C31C87CE36
:10517000812F92EF8916A1F1981570F0A0EF8A1691
:10518000D1F0B1EF8B1691F0DD2009F461C0C110B0
:105190002FCE802F8F7128C0E3EF8E1641F1F4EFF0
:1051A0008F12F2CF8091940382FD32C0802F8F71D5
:1051B000DD20D9F219C0DD2071F024E02C1508F4AF
:1051C0005ECE202F2F7181E090E002C0880F991FE2
:1051D0002A95E2F7B5CF35E03C1508F450CEF1CF73
:1051E000802F8F71D110C1CF0E940D1D48CE90E04D
:1051F00080E0DD2009F49ACF21E030E0902F9F710C
:10520000A90102C0440F551F9A95E2F7CA018ECF3B
:10521000DD2099F0502F5F71B52E852F0E940D1D56
:105220008091940382FF07C0A8E0BA9EC0011124B8
:105230008360809333038B2DD7CF81E00E94D51CF0
:10524000B1E0BC1508F01BCE82E00E94D51C17CE41
:10525000CC2059F0893309F08CCEEFEFF7EE23E044
:10526000E150F0402040E1F782CE802F8F717DCF5A
:10527000DD2019F0C11011CE14CEC1100ECE8091D8
:10528000E1029091E202029709F007CED12CC12CE5
:10529000193319F480E5C82ED12C812F0E94B1203A
:1052A000C114D10421F4812F0E944D20F6CD8FE945
:1052B0009FE00197F1F700C0000091E0C91AD10802
:1052C000EFCF85E0F701DE01119601900D928A95EE
:1052D000E1F7F701228189819A81211114CA0E9484
:1052E000120D182F18CA0631FCE51F0709F469C012
:1052F0008091E00482720A3C9CE5190709F40CCD08
:1053000008F0B3CC063CBCE51B0709F4F6CC08F06A
:10531000A0CC043CFCE51F0709F4E3CC08F0E8CC82
:10532000033C3CE5130709F4CECCF70182810081F0
:105330001181882309F43DCDC8010E94D10CD82EDB
:10534000682FC8010E94450DB8018D2D0E94010BE8
:105350000E941C0B182F092F882ED7011296DC9063
:1053600012971596CC90C2944FE0C42280913303DB
:105370008770C1F0AD2CDD20B1F0892F807F8034A3
:1053800021F080E2810F883068F08091940382FFE1
:1053900009C082E00E94D51C809133038770AA2443
:1053A000A3948111A12C902E92943FE09322BBE014
:1053B000B91508F464CDE92DF0E0ED56F94C0C94E4
:1053C000EF358091E002811135CC89E234CC1F9316
:1053D000CF93DF9380910003807F09F049C08091D3
:1053E000FD02882309F444C080913203D091010367
:1053F0006091FB027091FC02A091FE02B091FF024D
:10540000C62FC72316E0D81799F190E0109711F036
:10541000CF3F19F401968770F6CF189F9001199F1E
:10542000300D1124F901EE5FFC4F41814713F2CF9B
:1054300040814613EFCF42814111ECCF438154812B
:105440004A1B5B0B4639510528F7809100038F708A
:10545000806180930003F901E95FFC4F80818F70C8
:10546000806180838BEF92E00E946A230E94C70CC8
:10547000DF91CF911F910895A1E1B0E0E2E4FAE25B
:105480000C944F358C0185E0F801DE011D960190EA
:105490000D928A95E1F7F801E2808BEFA82E82E069
:1054A000B82E6091FE027091FF026115710509F43A
:1054B00026C19091FB024091FC02892F84238F3FEB
:1054C00009F41DC120813181C380D480F090FD0298
:1054D000F601E61BF70BFF2009F4DCC08091000306
:1054E000582F507FE639F10508F09FC051116BC06D
:1054F000FE2C431314C0921312C0E11010C08F7021
:10550000806180930003C5010E946A23809100039B
:10551000F80185838F2D6196EAE00C946B35C114F8
:10552000D10429F0822F83238F3F09F003C180E04B
:10553000F82FF170DF2E80FF3CC080913203409144
:10554000010356E0841315C02D873E878D859E8507
:105550000E94050D292F22952F702230F0F0243063
:1055600018F59F70F1F0F8019581907FD1F4D12C5E
:105570001EC090E0589FF001599FF00D1124EE5F7E
:10558000FC4F6181361306C06081261303C062811F
:10559000E6120FC001968770D5CF9F7011F0882357
:1055A00031F3805E883018F3C8010E946A23FD2C15
:1055B000B1CFEE2009F4AECF8091000381608093DB
:1055C0000003F12CA7CF431306C0921304C0F801C7
:1055D000EE2009F479C0C8010E94AB0D882309F1BF
:1055E000EE20F9F080910003803270F02091FB02F0
:1055F0003091FC0238872F831986DB86CA868C8718
:10560000CE0107960E946A2386E0F801ABEFB2E074
:1056100001900D928A95E1F70E94E729FF24F39407
:1056200079CFC8010E946A23F9CF51110AC08BEFCC
:1056300092E00E946A2386E0F50111928A95E9F7CB
:10564000C0CF43130FC092130DC0E1100BC0F8017F
:105650008583C8010E946A2386E0F50111928A952C
:10566000E9F758CFC8010E94AB0D8823D1F2EE2094
:10567000C1F280910003803238F22091FB02309118
:10568000FC023A8329831B82DD82CC828E83CE0189
:105690000196B8CFE639F105F8F6FE2CEE2009F2B6
:1056A00043131FC092131DC08091000380FD10C0E2
:1056B000982F907F69F0F8018583903F31F0982F03
:1056C000907F905F8F70892B8583C8010E946A2329
:1056D00086E0F801ABEFB2E001900D928A95E1F718
:1056E00019CFC8010E94AB0D81118ECF80910003AC
:1056F000816080930003C8010E946A230BCFEE20D3
:1057000009F48FCFC8010E94AB0DF82E882309F44D
:1057100088CF86E0F801ABEFB2E001900D928A9558
:10572000E1F78091FB029091FC020E94050D0E941E
:10573000E729F0CE81E08E25FBCEA7E1B0E0E3EAD9
:10574000FBE20C9456354B8B5C8B6D8B7E8B8F8B79
:105750008E899F89892B29F0CA0189238F3F09F0FF
:105760007BC08D8981111092DF041A8A198A85E025
:10577000FE017396DE011D9601900D928A95E1F768
:1057800086E0FE013D96DE01179601900D928A9506
:10579000E1F7CE0107960E943C2A882359F016E0D3
:1057A0008091320390910103891343C06796E3E02F
:1057B0000C94723586E0FE013796DE011196019059
:1057C0000D928A95E1F78A859B85892B41F38F811C
:1057D000988589238F3F19F32091010330E0C90197
:1057E000019687709927409132034817190671F482
:1057F0000E94361D109201031092320386E0EBEFF7
:10580000F2E0DF011D928A95E9F7C9CF96E0929FF9
:10581000D001939FB00D1124AE5FBC4FFE013196B5
:1058200001900D929A95E1F7809301030E94C70CB5
:10583000B6CF819FC00111248E5F9C4F0E943C2AED
:10584000882309F4B3CF8091320390E001968770EA
:10585000992780933203A4CF8091E1029091E202D4
:1058600001969093E2028093E1027BCF1F921FB6D4
:105870001F9211248F939F93AF93BF938091E9045C
:10588000811113C08091EA049091EB04A091EC0483
:10589000B091ED044196A11DB11D8093EA0490934F
:1058A000EB04A093EC04B093ED04BF91AF919F91F2
:1058B0008F911F901FBE1F901895CDB7DEB76497CC
:1058C0000FB6F894DEBF0FBECDBF85B7806885BF29
:1058D00085B7806885BF84B7877F84BF0FB6F8948B
:1058E000A8958091600088618093600010926000AC
:1058F0000FBE80E890E00FB6F8948093610090931B
:1059000061000FBE85EA9AE09093D7028093D60299
:105910000E9494050E945F068091E200846080935B
:10592000E20078948091FE048823A1F01091E900B0
:105930001F709091EC00892F817090FD80E8182BEA
:105940001092E9008091E80083FD0E94421D1F70C3
:105950001093E90082E084BD93E095BD9AEF97BD76
:1059600080936E0010928503109286031092870335
:10597000109288030E949611809350010E94621138
:1059800081110E94D133809150018091500194E0A7
:10599000811190E09093920384E0891B809391039E
:1059A00084E90E94A70A86E60E94A70A87E90E9466
:1059B000A70A86EC0E94A70A0EEE11E084EFE82EFB
:1059C00081E0F82ED8018D918D018F3F11F00E945A
:1059D000A70AE016F106B1F788E0E7E9F3E0DF0196
:1059E000282F1D922A95E9F7E9E8F3E0DF011D92DF
:1059F0008A95E9F790E080E00E944D36883E9E4F00
:105A000011F00E94AA1782E090E00E944536809330
:105A10009F030E949515909394038093930383E0D2
:105A200090E00E94453690E00E942F1D1092F903ED
:105A3000E8E1F4E08CE294E02FEF3FEF2193319323
:105A40008E179F07D9F790E080E00E944D36883E80
:105A50009E4F21F00E94AA170E94071546E050E0D1
:105A60006CE170E08CE095E00E94353610920B05F9
:105A700080910C058C7F11F40E9407150E94621121
:105A800083E08093CB0380E2809312050E94FC3177
:105A90006DE070E08FE392E00E94EF0D892BE9F555
:105AA0008091CB0363E070E081FD02C18CE392E062
:105AB0000E94EF0D892B89F56DE070E08CE292E099
:105AC0000E94EF0D892B49F50E943807605A7541F5
:105AD0008F4F9F4F6093D9047093DA048093DB0457
