:100000000C94E8040C942F050C942F050C94362CBA
:100010000C942F050C942F050C942F050C942F0590
:100020000C942F050C942F050C94AA330C947E3459
:100030000C94012F0C942F050C942F050C942F0574
:100040000C942F050C942F050C942F050C942F0560
:100050000C942F050C94742F0C942F050C942F05E1
:100060000C942F050C942F050C942F050C942F0540
:100070000C942F050C942F050C942F050C942F0530
:100080000C942F050C942F050C942F050C942F0520
:100090000C942F050C942F050C942F050C942F0510
:1000A0000C942F050C942F050C942F0580818283CE
:1000B0008485868788898A8B8C8D8E8F9091929388
:1000C00094A0A1A2A3A4A5A6A7A8A9AAABACADAED3
:1000D000AFB0B1B2B3B4C0C1C2C3C4C5C6C7C8C94A
:1000E000CACBCCCDCECFD0D1D2D3D4002B001400EC
:1000F0001A0008001500170000570400160007003A
:1001000009000A00E0001D001B00060019000500A0
:10011000000000000000E300675D2C002A001300CF
:1001200012000C0018001C00340033000F000E00F9
:100130000D000B00E60038003700360010001100FB
:10014000000000000000E200685D28002900640053
:100150002D022E022F0230020100350002570357F4
:100160002D001F0201002502260201572F0030003A
:100170000000000000000100010001000100540027
:1001800055002600250024000602560057002300D3
:100190002200210067003700270020001F001E00FA
:1001A00000000000000001000100010029001E0401
:1001B0002F023402330464020000ED00E200635DAC
:1001C000645D655DEF00EE00F0003A003B003C002E
:1001D00000000000000001000100010001004B00D0
:1001E00000005200000000004C004D004F00510084
:1001F00050004A0000004E0000003F003E003D005D
:1002000000000000000001000100010000000000EB
:10021000000000000000C35C0000C65CC85CCA5C53
:10022000CC5CC45C0000C75CC95CCB5CCD5C0000EE
:1002300000000000000001000100010080008100BA
:100240007F0000000000000000000000000000002F
:100250000000000000000000000000000000005C42
:100260000000000000000100010001006432147869
:100270003C1E000101010101010101010202020213
:100280000202020202030303030303030304040440
:100290000404040405050505050606060606070709
:1002A00007070708080808090909090A0A0A0B0BC1
:1002B0000B0C0C0C0D0D0D0E0E0E0F0F0F10101160
:1002C00011111212131314141515161617171818E6
:1002D00019191A1A1B1B1C1D1D1E1E1F202021224E
:1002E00022232424252626272829292A2B2C2D2D94
:1002F0002E2F30313232333435363738393A3B3CB1
:100300003D3E3F404142434445464748494A4C4DA3
:100310004E4F50515354555658595A5B5D5E5F616C
:100320006264656668696B6C6D6F707273757778FF
:100330007A7B7D7E8082838587888A8C8E8F91935D
:100340009596989A9C9EA0A2A3A5A7A9ABADAFB184
:10035000B3B5B7BABCBEC0C2C4C6C9CBCDCFD1D469
:10036000D6D8DBDDDFE2E4E7E9EBEEF0F3F5F8FA0F
:10037000FDFF00AE00AF00DA0281FFD9F1DB20A45F
:10038000A62EAF00A0C000A1C800AED580A81FD384
:1003900000408D1420000000000000003E5B4F5B19
:1003A0003E003E6B4F6B3E001C3E7C3E1C00183CEA
:1003B0007E3C18001C577D571C001C5E7F5E1C0095
:1003C00000183C180000FFE7C3E7FF0000182418DE
:1003D0000000FFE7DBE7FF0030483A060E00262961
:1003E00079292600407F05050700407F05253F004D
:1003F0005A3CE73C5A007F3E1C1C0800081C1C3E6F
:100400007F0014227F2214005F5F005F5F000609F7
:100410007F017F00006689956A006060606060000F
:1004200094A2FFA2940008047E04080010207E20FD
:10043000100008082A1C0800081C2A0808001E10C2
:10044000101010000C1E0C1E0C0030383E3830000E
:10045000060E3E0E060000000000000000005F00D7
:100460000000000700070000147F147F1400242AF6
:100470007F2A120023130864620036495620500078
:10048000000807030000001C224100000041221C5C
:1004900000002A1C7F1C2A0008083E080800008073
:1004A00070300000080808080800000060600000C4
:1004B0002010080402003E5149453E0000427F40A2
:1004C00000007249494946002141494D3300181442
:1004D000127F10002745454539003C4A4949310003
:1004E0004121110907003649494936004649492941
:1004F0001E0000001400000000403400000000084E
:100500001422410014141414140000412214080091
:100510000201590906003E415D594E007C1211123C
:100520007C007F49494936003E41414122007F41DC
:1005300041413E007F49494941007F0909090100C5
:100540003E41415173007F0808087F0000417F4110
:1005500000002040413F01007F08142241007F40FD
:10056000404040007F021C027F007F0408107F0093
:100570003E4141413E007F09090906003E415121AB
:100580005E007F09192946002649494932000301C6
:100590007F0103003F4040403F001F2040201F00DC
:1005A0003F4038403F00631408146300030478049C
:1005B00003006159494D4300007F4141410002045D
:1005C00008102000004141417F00040201020400A4
:1005D0004040404040000003070800002054547889
:1005E00040007F28444438003844444428003844BC
:1005F00044287F0038545454180000087E09020033
:100600001824241C78007F080404780000447D40EE
:1006100000002040403D00007F10284400000041C1
:100620007F4000007C04780478007C080404780093
:100630003844444438007C18242418001824241812
:100640007C007C080404080048545454240004042A
:100650003F4424003C4040207C001C2040201C00E3
:100660003C4030403C004428102844004C9090907E
:100670007C004464544C44000008364100000000F3
:100680007700000000413608000002010204020069
:100690003C2623263C000000000000000000000073
:1006A000000000000000C0E0F0F8F81800C0F0FC06
:1006B000FEFFFFFFFFFFFFFF7E00000000000000C5
:1006C000000080C0E0E0E0E0E0E0E0E0C0800000AA
:1006D000000080C0E0E0E0E0E0E0E0E0C08000009A
:1006E00000E0E0C0C0E0E0E0E00000E0E0C0C0E02A
:1006F000E0E0E0E0C0800000000080C0E0E0E0E07A
:10070000E0E0E0E0C0800000000000000000000029
:1007100000000000E0F0F0F0E0ECEEF7F3702000F5
:100720007C7C7C7E007E7E7E7F7F7F000080C0E0C0
:100730007E5B4F5BFEC00000C000DCD7DEDEDED794
:10074000DC00C0000000000000000000000000000D
:10075000000000000000000000000000000000F8A1
:10076000FCFEFFE000FFFFFFFFFFFF80FFFFFFFF3A
:10077000FFFFFFFFFF1F0701000000000000000057
:1007800000FFFFFF8100000000000081C3C3C30021
:1007900000FFFFFF8100000000000081FFFFFF005D
:1007A00000FFFFFF01000000000000FFFFFF01004D
:1007B00000000001FFFFFF0000FFFFFF9D1C1C1C4D
:1007C0001C1C1C9DDFDFDF0000000000000000009B
:1007D000000000000F1F3F7F7F7F7F7F3F1E0C00C8
:1007E0001F1F1F3F003F3F3F7F7F7F00307B7F7891
:1007F00030202030787F3B0003000F7F0F0F0F7FEA
:100800000F000300000000000000000000000000D6
:1008100000000000000000000000000000000003D5
:100820000F1F3F3F3F3F1F1F3F3F7F7F7F3F3F1FC8
:100830003F7F7F7F7F7C7878381C0F0000000000AE
:100840000000010307070707070707070301000068
:100850000000010307070707070707070301000058
:10086000000707070000000000000007070700005E
:100870000000000007070700000001030707070743
:100880000707070703010000000000000000000048
:100890000000000000000000000000000000000058
:1008A0000000000000000000000000000000000048
:1008B0000000000000000000000000000000000038
:1008C0000000000000000000000000000000000028
:1008D0000000000000000C0343006F0072006E0077
:1008E00065000000100366006F006F007300740065
:1008F00061006E0000000403090409023B000201CC
:1009000000A0FA09040000010301010009211101FE
:1009100000012240000705810308000A09040100C4
:10092000010300000009211101000122490007050F
:10093000820320000A120100020000000853460151
:100940000001000102000105010902A1018502095F
:1009500001A100050919012908150025019508754F
:100960000181020501093009311581257F95027544
:1009700008810609381581257F95017508810605CE
:100980000C0A38021581257F950175088106C0C0C3
:1009900005010906A101050719E029E71500250150
:1009A00095087501810295017508810105071900F7
:1009B00029FF150026FF0095067508810005081916
:1009C000012905950575019102950175039101C0F5
:1009D00011241FBECFEFDAE0DEBFCDBF04B603FEA9
:1009E00027C08091E8059091E905A091EA05B091B2
:1009F000EB058730904BA740B04BD1F41092E8053F
:100A00001092E9051092EA051092EB0514BE84B726
:100A1000877F84BF0FB6F894A895809160008861A5
:100A200080936000109260000FBEE0E0F8E309954B
:100A300011E0A0E0B1E0E8E4FEE602C005900D920E
:100A4000AC3DB107D9F725E0ACEDB1E001C01D9296
:100A5000A83EB207E1F70E94081A0C94FE360C94E7
:100A600000008093EB0108950F931F93CF93DF93C2
:100A700000D000D0CDB7DEB789836A834B832C8347
:100A800004E610E024E030E0AE014F5F5F4F60E02D
:100A900084E10E940E2B0F900F900F900F90DF912A
:100AA000CF911F910F9108950F931F9304E610E0CB
:100AB00025E030E0AC0164E084E10E943B2B1F9113
:100AC0000F9108950E94F02920E040E060E080E06E
:100AD0000C943405681708F5861B682F21E0469FA3
:100AE000A0011124649FF001659FF00D1124409135
:100AF000000150910101E49FC001E59F900DF49F1A
:100B0000900D1124880F892F881F990B919522230E
:100B100019F09195819591090895681B20E0DFCF28
:100B2000DC01FB0180819181803891054CF08FE7D9
:100B30008C93808191818F5791099183808308954F
:100B400081382FEF92073CF481E88C93808191816A
:100B500081589F4FF2CF8C93118210820895FB0130
:100B60009181882319F09160918308959E7FFCCF35
:100B700081E00895CF93DF938091E2018A3008F0FD
:100B800086C08091E0019091E1010E94492F089771
:100B900008F47DC082EF91E00E945405892B09F092
:100BA000B2C01092E20182EF91E00E94B805882362
:100BB00009F457C00E94161D2093EC013093ED01FB
:100BC0004093EE015093EF016093F0017093F101B7
:100BD0008091F6016CEE71E087FD8FC080E00E948D
:100BE000AF058091DE019091DF01009709F07FC091
:100BF0006091F2018091F301D091F401C091F5016F
:100C00009091EB01992309F445C041E00E946A05E7
:100C10002091E5013091E601820F931F9093E60148
:100C20008093E50141E06D2F8C2F0E946A05209191
:100C3000E3013091E401281B390B3093E401209348
:100C4000E30163EE71E081EF91E00E94900565EEB3
:100C500071E080EF91E00E9490051092EE011092F9
:100C6000EF014091EC015091ED016091EE01709126
:100C7000EF018091F0019091F1010E94371D0E94D7
:100C8000DC1C0E94312F9093E1018093E001DF9101
:100C9000CF91089545E00E946A052091E9013091C5
:100CA000EA01281B390B3093EA012093E90145E062
:100CB0006D2F8C2F0E946A052091E7013091E80189
:100CC000820F931F9093E8018093E70167EE71E034
:100CD0008EEE91E00E94900569EE71E08FEE91E05A
:100CE0000E9490051092F1011092F001BACF019785
:100CF0009093DF018093DE01B4CF81E00E94AF05C5
:100D000084E190E0F5CF8091E2018F5F8093E20172
:100D1000A8CFCF93DF93D62FC42F0E94C90C88236E
:100D200051F08D2F0E94C90C882329F08C2FDF9160
:100D3000CF910C94E90C8C2FDF91CF910C940A0D7C
:100D4000CF93C82F0E946C17811101C0C2E08C2F75
:100D5000CF91089560E08CEA90E00C94D7240E9433
:100D60006C17811102C00C94AA06089520E540E09A
:100D700060E080E00C943405CF93FB0185362DE5CF
:100D8000920721F158F483362DE5920749F1843614
:100D90009D4549F1C1E08C2FCF91089588362DE50E
:100DA000920761F189362DE5920799F187369D45C5
:100DB00089F7C28181E0CC2321F10E94E90C43E054
:100DC00062E081E00E948906C0E0E5CFC28182EF47
:100DD000CC2319F00E943509DECF0E946809DACFD2
:100DE000C28181EFF5CFC281CC2321F081E00E9446
:100DF0003105D1CF80E00E943105CCCFC28182E0A5
:100E0000DACF0E940A0D43E062E081E00E94890689
:100E1000C2CFC28183E0CC2319F00E94E90CD4CF69
:100E20000E940A0DB8CFCF92DF92EF92FF926B0132
:100E30007C010E946B08813099F0882321F0823078
:100E400099F08330B1F020E540E060E080E00E945E
:100E50003405C701B601FF90EF90DF90CF90089561
:100E600020E04FE569E9F2CF20E040E061E789E961
:100E7000EECF20E046E961E785E3E9CF9C013A95B2
:100E800021153F4150F5FC01EE27F170BC016627AA
:100E90007270AC01442754709C012227387094FF73
:100EA0000EC080E1EF2B09F480E0672B09F080622F
:100EB000452B09F08064232B89F08068089581E038
:100EC000EF2B09F480E0672B09F08260452B09F0D5
:100ED0008460232B19F08860089580E00895CF93F3
:100EE000DF93EC010E943E079E01205E310928300D
:100EF000310510F0209739F40E94B6098C2FDF914C
:100F0000CF910C9435090E94F40BF8CFCF93DF9367
:100F1000EC010E946809CE010E943E079E01205EFE
:100F200031092830310510F0CD2B21F4DF91CF911C
:100F30000C94BD09DF91CF910C94FB0B81E00895D7
:100F40000C94BC0608950C94A2071F93CF93DF93D3
:100F500000D000D00F92CDB7DEB749835A836B83A0
:100F60003091F70189819A8131111DC06623B9F052
:100F70002223A9F00E94DC0D182F682F89819A8105
:100F80000E94850D69817A81812F0F900F900F90BB
:100F90000F900F90DF91CF911F910C9479140E94C4
:100FA000B30D182FEFCF0E94DC0D69817A81EDCF50
:100FB000FC01262F408151816281738184810C94D0
:100FC000A50781E00895CF93DF93EC0160E00E94D4
:100FD000D807BE01DF91CF910C94A3070E948B1517
:100FE0000E94BF080C94B0150E94A0290C94B31560
:100FF00008950E94100C0E94F8072FEF84E39CE0F4
:10100000215080409040E1F700C000000C94982FE0
:101010000F931F93CF93DF938C0161E00E94D80759
:10102000EC01B8010E94FC28B801CE010E94A00783
:10103000882309F441C0B801CE010E9445298823C4
:10104000D9F1B801CE010E94C6268823A9F1B801C2
:10105000CE010E941827882379F1B801CE010E94A1
:101060004228882349F1B801CE010E9486228823B4
:1010700019F1F8018281882361F0CB35FDE5DF07A6
:1010800021F170F4C115ECE5DE07A1F0CF3DDC45A0
:10109000C9F0C801DF91CF911F910F910C949E0769
:1010A000CC358DE5D807A1F0CD35DD4591F70E940F
:1010B0004111EFCF0E94F90780E0DF91CF911F919E
:1010C0000F9108950E94AE12F7CF0E944A11E1CF0E
:1010D0000E944D11DECFCF92DF92EF92FF926C0112
:1010E000EE24FF2420E0C114D104E104F10419F03E
:1010F000C701B60120E1C72ED82EE92EFF24C11466
:10110000D104E104F10419F0285FC701B6016B01B5
:101110007C0154E0F694E794D794C7945A95D1F79C
:10112000C114D104E104F10419F02C5FC701B60128
:101130006B017C0142E0F694E794D794C7944A95FA
:10114000D1F7C114D104E104F10419F02E5FC701F5
:10115000B6019695879577956795672B682B692BD0
:1011600009F02F5F822FFF90EF90DF90CF900895CE
:1011700008950C94B80881E008950C94BB08089574
:10118000CF93C82F0E94B9088C2FCF910C94BD0823
:10119000CF93DF93CDB7DEB72B970FB6F894DEBFB2
:1011A0000FBECDBF4F83588769877A878B876111C0
:1011B0000E9473111E821D8285E0FE013796DE01BA
:1011C000119601900D928A95E1F78C819D81892B72
:1011D00089F449815A816B817C818D819E810E9435
:1011E00070102B960FB6F894DEBF0FBECDBFDF9107
:1011F000CF91089589819A8189238F3F51F3CE0140
:1012000001960E94E1078111E4CFEBCFFC018081C0
:1012100091810C941E0E0F931F93CF93DF9300D0F8
:1012200000D000D0CDB7DEB7082F162F0E94161DB4
:1012300029834B835C836D837E83002399F0312B5C
:101240004981532F6B817C818D819E8126960FB6BB
:10125000F894DEBF0FBECDBFDF91CF911F910F91EC
:101260000C94371D10953123EBCFCF93C82F8823D3
:1012700069F18CEF8C0F813AA0F46C2F80916A0198
:1012800090916B010E941F2E882329F08C2F0E94C1
:1012900011110E9496118C2F0E940A11CF910C946B
:1012A000961180E28C0F883048F4C77081E001C04D
:1012B000880FCA95EAF70E945311F0CFCD3E30F067
:1012C0008C2F0E94961ACF910C94691BCF91089590
:1012D000882361F19CEF980F913A20F40E9411113C
:1012E0000C94961190E2980F983050F4877091E02A
:1012F00001C0990F8A95EAF7892F0E945911F0CF02
:101300009BE5980F933020F490E080E00C94E12D61
:1013100098E5980F973120F490E080E00C94F72D39
:101320008D3E20F00E94F01A0C94691B08951F93C3
:10133000CF93DF93182FEB010E943509209731F4EA
:10134000812FDF91CF911F910C9468098FE99FE065
:101350000197F1F700C000002197F0CF70E060E046
:10136000893311F460E570E00C949709882321F02B
:101370000E9453110C9496110895882321F00E9425
:1013800059110C9496110895BF92CF92DF92EF926B
:10139000FF920F931F93CF93DF936C01D62FC72F2C
:1013A000FC011281058102950F700E942811E82E20
:1013B0008823A1F0E12E112389F08C2F807F8034C7
:1013C00029F080E28D0FE12C883040F082E00E940D
:1013D000E7110E94281191E0E82EE926BC2EB29474
:1013E0009FE0B922FBE0FB1598F1EB2DF0E0E05017
:1013F000F94C0C9484360C2F0F70C07F11F00295BD
:10140000007F1123A9F0002359F080E28D0F88306E
:1014100010F0D11109C0802F0E9453110E94961123
:101420008D2F0E94350914C0802F0E946611F6CFBF
:101430008D2F0E946809002359F080E28D0F8830BB
:1014400010F0D1112BC0802F0E9459110E949611CB
:10145000EB2DE850FF0B349720F40E94B52D0E942D
:10146000C008EE2009F477C10E94241180FD73C1E9
:10147000F60112820E941E110E94E90CC6010E9410
:10148000CC0B0E941E11DF91CF911F910F91FF9005
:10149000EF90DF90CF90BF900C940A0D802F0E94A8
:1014A0006C11D4CF2C2F2F70F22EC07FC03219F0C8
:1014B000F29480EFF822DD2369F0D13049F1112355
:1014C00091F1002351F1F601858180FFA9CF8F7042
:1014D000858323C0112381F0011106C00E94791178
:1014E0008F290E94B609B4CF0130C1F70E9479114B
:1014F0008F290E947F11ACCF011106C00E948C1170
:101500008F2D0E94BD09A4CF013009F4A1CFF6CFE1
:10151000112329F0063008F09BCF8F2DE2CF053044
:1015200008F096CFEDCF002359F3D93349F4FFEFFC
:1015300027EE33E0F15020403040E1F700C00000DA
:101540008D2F0E94680984CF8D2F112391F00E9466
:10155000961AED2FE15FFF0BE830F10568F461E0CA
:1015600070E001C0660FEA95EAF7812F0E940B092F
:101570006FCF0E94F01AEDCF0E94691B69CF8C2FAC
:10158000837009F041C0111163CF4D2F42954695EC
:101590004770440F440F0D2F0F7010E030E020E033
:1015A000042E04C0000F111F221F331F0A94D2F70C
:1015B00060E070E0CB01D4FF0FC06FE070E080E02E
:1015C00090E004C0660F771F881F991F4A95D2F7D5
:1015D0006095709580959095C695C695C370602B63
:1015E000712B822B932BC23049F058F4C13019F083
:1015F0000E947D0C2DCF0E946B0C2ACF0E948F0C75
:1016000027CF0E94690C24CF8695112311F08C2FCF
:101610008170882309F41CCF4D2F42954695477061
:10162000440F440F0D2F0F7010E030E020E0042E27
:1016300004C0000F111F221F331F0A94D2F760E06D
:1016400070E0CB01D4FF0FC06FE070E080E090E06D
:1016500004C0660F771F881F991F4A95D2F76095BF
:10166000709580959095C695C695C370602B712B2B
:10167000822B932BC23049F058F4C13019F00E94EC
:10168000600DE6CE0E944E0DE3CE0E94720DE0CEBC
:101690000E94A30CDDCECF70112329F08C2F0E9465
:1016A000E90C8D2F1ECF8D2F0E94BD098C2F0E941B
:1016B0000A0DCECED23F89F160F4D03FC9F0D13FC0
:1016C00029F1112309F442C00111AACE8C2F8F7188
:1016D00021C0D33F39F1D43FA1F7112369F1CF7174
:1016E0008C2F0E94E90C63E08C2F0E94CC11B0CEAD
:1016F000112341F0053008F0ABCE8C2F8F710E9482
:101700002D0DA6CE063008F0A3CEF7CF8C2F8F710B
:10171000112369F20E94E90C9BCE8C2F8F7111234B
:10172000C9F3C5CF112329F08C2F8F710E94D40CDF
:101730008FCE0E94AF0C8CCE81E00E94E711023068
:1017400008F486CE82E00E94E71182CE0111EDCE30
:101750008C2F8F71ACCFDF91CF911F910F91FF90A4
:10176000EF90DF90CF90BF9008950F931F93CF938A
:10177000DF93EC01688179818A810E94280E8C01B7
:101780000E94840D0E94680CB801CE01DF91CF91B8
:101790001F910F910C94C409CF93DF93EC018B81BF
:1017A0009C81892B29F08881998189238F3F59F465
:1017B000DF91CF910895CE010E94B50BCE01DF914C
:1017C000CF910C94E307CE010E9408088111F3CF5A
:1017D0000E942811882361F38A81882349F382E0DB
:1017E000DF91CF910C94E711882321F00E946611BC
:1017F0000C9496110895882321F00E946C110C948A
:10180000961108950E9473110E9476110E949611FC
:101810000E94901C0C94691B0E9418110C94020CDD
:101820000E9460110C940C0CE92FE295EF70E250CD
:10183000EE3070F4F0E0E45FF84C0C948436803FB6
:1018400019F020F4883E20F481E00895843FE1F30C
:1018500080E00895883EC0F3813FD1F7F5CF93FB38
:10186000882780F90895FC01808191810E941E0ED5
:101870000C94140CCF93DF9300D000D00F92CDB70F
:10188000DEB70F900F900F900F900F90DF91CF91D8
:101890000895CF93DF9300D000D000D0CDB7DEB74E
:1018A00026960FB6F894DEBF0FBECDBFDF91CF9165
:1018B000089508950C94590C0E945A0C60931A02D2
:1018C00070931B0280931C0290931D020C94020CD7
:1018D00008950C945C0C0F931F9300911A021091C1
:1018E0001B0220911C0230911D02602B712B822B58
:1018F000932B1F910F910C945C0C0F931F930091ED
:101900001A0210911B0220911C0230911D026023CB
:101910007123822393231F910F910C945C0C0F93DE
:101920001F9300911A0210911B0220911C0230910A
:101930001D0260277127822793271F910F910C9416
:101940005C0C0C9413070E94A10C60931602709318
:10195000170280931802909319020C94020C60E015
:1019600070E0CB010C94A30C611571058105910504
:1019700029F481E0442361F080E00895DC01CB018B
:1019800004C0B695A795979587954A95D2F781702B
:101990000895482F609116027091170280911802E5
:1019A000909119020C94B40C0F931F9341E050E0F6
:1019B00060E070E08A019B0104C0000F111F221F2C
:1019C000331F8A95D2F7C901B8011F910F910C946A
:1019D000A30C0F931F9341E050E060E070E004C05F
:1019E000440F551F661F771F8A95D2F78091160204
:1019F00090911702A0911802B09119028A019B01DF
:101A0000082B192B2A2B3B2BC901B8011F910F91D1
:101A10000C94A30C0F931F9341E050E060E070E042
:101A200004C0440F551F661F771F8A95D2F7CB015C
:101A3000BA0160957095809590950091160210916D
:101A4000170220911802309119026023712382231A
:101A500093231F910F910C94A30C0F931F9341E0BC
:101A600050E060E070E004C0440F551F661F771F10
:101A70008A95D2F78091160290911702A0911802D0
:101A8000B09119028A019B01082719272A273B27B1
:101A9000C901B8011F910F910C94A30C0F931F93D0
:101AA000009116021091170220911802309119022C
:101AB000602B712B822B932B1F910F910C94A30CF5
:101AC0000F931F9300911602109117022091180294
:101AD0003091190260237123822393231F910F9168
:101AE0000C94A30C0F931F930091160210911702F0
:101AF00020911802309119026027712782279327BD
:101B00001F910F910C94A30C0895E92FEE0FE90F8C
:101B1000EE0F8E0F982F977041E001C0440F9A95F9
:101B2000EAF786958695869595E0899FF0011124C0
:101B3000E850FE4F30E020E070E05191DF01119756
:101B4000CB01022E02C0969587950A94E2F7817028
:101B500081958527842385278C932F5F3F4F2530E0
:101B6000310559F70895E92FEE0FE90FEE0F8E0FAB
:101B7000982F977086958695869525E0829FF0012F
:101B80001124E850FE4F50E040E080E0219130E029
:101B9000092E02C0369527950A94E2F72170332763
:101BA000042E01C0220F0A94EAF7822B4F5F5F4F89
:101BB0004530510559F70895BF92CF92DF92EF92C9
:101BC000FF920F931F93CF93DF938C01C090160267
:101BD000D0901702E0901802F090190280911A023A
:101BE00090911B02A0911C02B0911D02C82AD92A13
:101BF000EA2AFB2ACFE1D0E0BC2ED701C6010C2E89
:101C000004C0B695A795979587950A94D2F780FD5D
:101C10000EC0219788F7B12C8B2DDF91CF911F91AA
:101C20000F91FF90EF90DF90CF90BF900895B80193
:101C30008C2F0E948D14019761F3EECFCF93DF9329
:101C4000EC010E94DC0DBE01DF91CF910C948D144C
:101C50001F93CF93DF93EB019091F701992331F01C
:101C6000CB01DF91CF911F910C941E0E882379F048
:101C7000CB010E94DC0D182F682FCE010E94850D2C
:101C8000BE01812FDF91CF911F910C948D14CB0158
:101C90000E94B30D182FF4CF1F93CF93DF93C09101
:101CA0001E0216E080911F028C1304C0DF91CF91B9
:101CB0001F910895D0E01C9FF0011D9FF00D11248D
:101CC000E05EFD4F40815181628173818481958105
:101CD0000E94490C2196C770E5CF40915002509167
:101CE000510260915202709153028091540290917E
:101CF00055020C94490C1F93CF93DF9380915502AA
:101D0000807FA9F480915202882389F080911E027D
:101D1000C0911F026091500270915102A091530234
:101D2000B0915402D62FD72316E0C81304C0DF9118
:101D3000CF911F91089590E0109711F0DF3F19F4B3
:101D400001968770F2CF189F9001199F300D1124D2
:101D5000F901E05EFD4F41814713F2CF4081461308
:101D6000EFCF42814111ECCF438154814A1B5B0B81
:101D7000483C510528F7809155028F70806180930F
:101D80005502F901EB5DFD4F80818F70806180838A
:101D900080E592E00E94CC0BDF91CF911F910C94D3
:101DA0004C0EAF92BF92CF92DF92EF92FF920F93C1
:101DB0001F93CF93DF93CDB7DEB761970FB6F8943B
:101DC000DEBF0FBECDBF8C0185E0F801DE011D96A0
:101DD00001900D928A95E1F7F801E28080E5C82E26
:101DE00082E0D82E60915302709154026115710502
:101DF00009F45AC19091500220915102892F8223F7
:101E00008F3F09F451C140815181A380B480F0908B
:101E10005202F501E61BF70BFF2009F4F6C0809192
:101E20005502382F307FE83CF10508F0AFC0311182
:101E300079C0FE2C251323C0941321C0E1101FC0CC
:101E40008F708061809355020E946D0EC6010E94C2
:101E5000CC0B80915502F80185838F2D61960FB6CA
:101E6000F894DEBF0FBECDBFDF91CF911F910F91D0
:101E7000FF90EF90DF90CF90BF90AF900895AB2888
:101E800029F0842F85238F3F09F027C180E0F82FA8
:101E9000F170DF2E80FF3CC080911E0220911F0256
:101EA00036E0821315C04D875E878D859E850E9422
:101EB0001E0E292F22952F702230F0F0243018F5B5
:101EC0009F70F1F0F8019581907FD1F4D12C1EC064
:101ED00090E0389FF001399FF00D1124E05EFD4F36
:101EE0006181651306C06081641303C06281E612DC
:101EF0000FC001968770D5CF9F7011F0882331F302
:101F0000805E883018F3C8010E94CC0BFD2CA5CF51
:101F1000EE2009F4A2CF8091550281608093550292
:101F2000F12C9BCF251306C0941304C0F801EE20BA
:101F300009F487C0C8010E94330C882319F1EE20F0
:101F400009F180915502803270F020915002309159
:101F5000510238872F831986BB86AA868C87CE01CB
:101F600007960E94CC0B86E0F801A0E5B2E0019054
:101F70000D928A95E1F70E947B0E0E946D0EFF2460
:101F8000F3946BCFC8010E94CC0BF9CF311113C071
:101F90007A2DB98AA88A6E2D89890E943A0C80E52B
:101FA00092E00E94CC0B86E0F60111928A95E9F747
:101FB0000E946D0EB5CF25130FC094130DC0E11014
:101FC0000BC0F8018583C8010E94CC0B86E0F601A6
:101FD00011928A95E9F741CFC8010E94330C8823FA
:101FE00089F2EE2079F280915502803208F4BBCF5D
:101FF00020915002309151023A8329831B82BD8285
:10200000AC828E83CE010196ACCFE83CF10508F09E
:102010003EC0FE2CEE2009F4B5CF25132AC0941340
:1020200028C08091550280FD1BC0982F907FC1F081
:10203000F8018583903F31F0982F907F905F8F70EB
:10204000892B8583C8010E94CC0B86E0F801A0E5AE
:10205000B2E001900D928A95E1F70E946D0EFDCEDF
:1020600086E0F801A0E5B2E001900D928A95E1F7D3
:10207000F4CEC8010E94330C811175CF80915502B6
:10208000816080935502C8010E94CC0BE6CE7A2D68
:10209000B98AA88A6E2D89890E943A0C86E0F601D9
:1020A00011928A95E9F7D9CFEE2009F46BCFC801D8
:1020B0000E94330CF82E882309F464CF86E0F801DF
:1020C000A0E5B2E001900D928A95E1F780E592E0FB
:1020D0000E9406090E947B0EC0CF81E08E25D7CEDC
:1020E0001F93CF93DF93CDB7DEB72C970FB6F8943D
:1020F000DEBF0FBECDBF4F83588769877A878B8736
:102100009C87CE0107960E94D10E882369F08A85AC
:102110009B85892B39F04F815885842F85238F3FEC
:1021200009F071C016E05FC086E0FE013796DE015F
:10213000119601900D928A95E1F78A859B85892BEE
:1021400089F38F81988589238F3F61F320911F0246
:1021500030E0C90101968770992740911E02481707
:10216000190671F40E94100C10921F0210921E02A8
:1021700086E0E0E5F2E0DF011D928A95E9F7D2CF33
:1021800096E0929FD001939FB00D1124A05EBD4FA9
:10219000FE01319601900D929A95E1F780931F020E
:1021A0000E944C0EBFCF819FC0011124805E9D4FC5
:1021B0000E94D10E8823E9F0E0911E021E9FF001DB
:1021C0001124E05EFD4F40815181628173818481E1
:1021D00095810E94490C80911E0290E001968770C3
:1021E000992780931E0280911E0290911F028913ED
:1021F000DACF2C960FB6F894DEBF0FBECDBFDF91BD
:10220000CF911F91089569857A858B859C850E9461
:10221000490C88CF682F80916A0190916B010C94D2
:10222000552E682F80916A0190916B010C94572E66
:1022300080916A0190916B010C94592E8091560205
:1022400085958595859508958091560287700895A6
:1022500090915602977081E009F480E00895909182
:10226000100392FB222720F9281751F080FB92F9E6
:102270009093100380910F03909110030C942A12F5
:1022800008958091100382FB882780F991E08927C7
:102290000C942F1181E00C942F1180E00C942F11DD
:1022A00080916202089590916202892B809362026C
:1022B0000895809590916202982390936202089508
:1022C00010926202089580916102089590916102D6
:1022D000892B8093610208958095909161029823E3
:1022E0009093610208951092610208951092600225
:1022F000089580915702089508950C947C1190914F
:10230000100392FD08C090915702981721F0809316
:1023100057020C947D11089580915702882329F06B
:102320001092570280E00C947D110895E0916A01AB
:10233000F0916B01809162028083E0916A01F091DB
:102340006B01808190916102892B8083E0916A0109
:10235000F0916B01808190916002892B8083909134
:102360005702992381F0E0916A01F0916B0180811D
:10237000892B808380916A0190916B010E940D2EC0
:1023800081110E948C1180916A0190916B010C94D3
:10239000C82D08950C94C9119091100392FD10C09E
:1023A00098E0899F90011124622B609356020E944D
:1023B000E90C809156028595859585950C94CA11F6
:1023C0000C94E90C1092560280E00C94CA11909182
:1023D00056028095892380935602282F277039F45E
:1023E000282F082E000C330B9217130621F490911E
:1023F000100392FF07C08595859585950E940A0D6B
:102400000C94E21108956FEF7FEF90E080E00C9460
:10241000E83690E080E00E94C43621E0893E9E4F7D
:1024200009F020E0822F089582E090E00C94B63607
:1024300083E090E00C94B636CF9384E090E00E9465
:10244000B636C82F82E290E00E94B636982F8C2FC5
:10245000CF910895CF93C92F682F84E090E00E9418
:10246000CA366C2F82E290E0CF910C94CA36AB0151
:10247000BC018FE090E00C94DC36AB01BC0183E141
:1024800090E00C94DC3660E070E0CB010C943D12DF
:1024900060E070E0CB010E9437120C94431269EEA9
:1024A0007EEF90E080E00E94E83660E082E090E01D
:1024B0000E94CA3660E083E090E00E94CA36109223
:1024C0001A0210921B0210921C0210921D0260E070
:1024D00084E090E00E94CA3660E082E290E00E94D0
:1024E000CA3660E085E090E00E94CA3660E086E08F
:1024F00090E00E94CA366FEF87E090E00E94CA36F3
:1025000040E050E0BA0188E090E00E94DC3660E0F4
:102510008DE090E00E94CA3640E050E0BA0188E1C8
:1025200090E00E94DC3660E087E190E00E94CA36CD
:1025300040E050E0BA018CE190E00E94DC3670E0AF
:1025400060E080E290E00E94E83640E050E0BA01AE
:1025500088E190E00E94DC360C9448120C944F12F3
:10256000682F8EE090E00C94CA360E943D2F609355
:102570007002709371028093720290937302609361
:102580006C0270936D0280936E0290936F020895B7
:1025900085B7806885BF85B7806885BF0895089531
:1025A00008950C94CF120C94B6060E94C8128BE6C4
:1025B00095E10E94BC2F0E94D0120C94D1120C9471
:1025C0006C17089508950E94E1120C94E2120E9483
:1025D000282F0E94602E0E9465160E94512380E0E1
:1025E0000E94AE230E9462210E9462050C94D312C5
:1025F0009F92AF92BF92CF92DF92EF92FF920F9392
:102600001F93CF93DF93CDB7DEB72A970FB6F89419
:10261000DEBF0FBECDBF0E94E216C82E81110E9400
:10262000B51284E6A82E82E0B82E10E000E0902ECD
:10263000802F0E94B515E82EF501F1905F01F81684
:1026400009F458C08091740281FD0E94BB158F2D42
:102650008E25D12CFF24F394982F9F2109F445C097
:102660000E94DF12882399F0DE829F82EF2081E0B2
:1026700009F480E088870E94312F8160782F9A8743
:1026800089874E815F8168858A850E94C808F80124
:10269000EC59FD4F8081F826F0820E94E0210E94D3
:1026A0002026C1100E94E9240E94841B0E94BA05C2
:1026B0000E94B52D90916302891799F10E94B52D62
:1026C000809363022A960FB6F894DEBF0FBECDBF8B
:1026D000DF91CF911F910F91FF90EF90DF90CF90FE
:1026E000BF90AF909F900C94C008D394FF0CF6E07D
:1026F000DF12B2CF0F5F1F4F0830110509F097CFDF
:102700008FEF89838A831B820E94312F8160782F0B
:102710009D838C8349815A816B818D810E94C80879
:10272000BCCF2A960FB6F894DEBF0FBECDBFDF91A7
:10273000CF911F910F91FF90EF90DF90CF90BF90BE
:10274000AF909F900895CF93DF930E949114EC0176
:10275000811522E5920778F5811531E5930708F098
:1027600098C08F3F910509F0B8F48D3E910508F0AF
:102770006FC0853A910540F48430910548F4019783
:1027800039F0D0E0C0E004C0805E91090897C8F736
:10279000CE01DF91CF910895811540E5940708F0AF
:1027A0005CC0C11580E4D80708F054C0C11590E2A0
:1027B000D90770F3E6CF811526E5920718F5811544
:1027C00035E5930708F07DC0811544E5940708F0CE
:1027D00073C0982F969596959E0123703327C11547
:1027E000D34508F45BC0C1E0D0E002C0CC0FDD1FD0
:1027F0002A95E2F730E2939FC0011124C82BD92B10
:10280000DA68C6CFC1159AE5D90778F4C11529E56C
:10281000D20708F060C0C11538E5D30708F4B1CF7E
:10282000DC2FCC27C06FD06AB3CFCE019056811574
:10283000904208F0A6CF8D2F8F710E94281590E04E
:10284000982F882788279F719C012C2BE90141C074
:10285000D0659ECFDF70D06A9BCFE4E096958795D8
:10286000EA95E1F783702C2F26952695237090E248
:10287000299F90011124382B8C2F8370C1E0D0E068
:1028800002C0CC0FDD1F8A95E2F7C22BD32BDC6888
:102890007FCFD82FCC27C16FD06A7ACFC1E0D0E0EC
:1028A00002C0CC0FDD1F2A95E2F720E2929FC00103
:1028B0001124C82BD92BEBCFD82FCC27C46FD06ACB
:1028C00067CF0E942815C82FD0E0DC2FCC27CC275B
:1028D000DF71D0625DCF8C2F8F700E94281534E09D
:1028E000D695C7953A95E1F7CF709C2FEC01D0694A
:1028F0004FCF972F70E026E0929F600D711D11243D
:10290000FB0190E3899FE00DF11D1124EE0FFF1FE5
:10291000E451FF4F8591949108950E9479140C948D
:10292000A31382389105B1F1B0F48133910509F414
:1029300075C048F48932910509F469C08A3291055D
:1029400009F473C008958533910509F459C089339A
:10295000910501F10895833E9105A9F138F4803E77
:102960009105F9F0823E910549F10895863E910561
:10297000A9F1873E9105C9F1843E910519F5209191
:10298000100321FF1FC080910F0384FD14C087EE48
:1029900090E0089520910F032370A1F080EE90E065
:1029A000089520910F0320FD47C03091100330FFA0
:1029B00009C024FF44C090E080E004C020910F03D0
:1029C00022FDF7CF089520910F0322FD3BC03091E7
:1029D000100330FDE3CF24FFF5CFEDCF20910F039F
:1029E00023FFF0CF24FDE7CFD2CF20910F0323FDAB
:1029F0002CC03091100331FFEECF84EE90E00895AB
:102A000020910F0325FFDECF89E290E00895209109
:102A10000F0325FFD7CF85E390E0089520910F03A2
:102A200026FFD0CF8AE290E0089520910F0326FF81
:102A3000C9CF81E390E0089589E390E0089583EEA3
:102A400090E0089582EE90E0089586EE90E008957B
:102A500090910F0392FF06C0282F28712830F9F4B7
:102A6000877F846093FF06C0282F28712831F1F4F6
:102A7000877E84612091100320FF06C0382F3871B3
:102A80003830D9F4877F816021FF06C0282F287154
:102A90002831D1F4877E816194FD877E0895282FA7
:102AA00024712430F9F68B7F8860DCCF282F2471C5
:102AB000243101F78B7E8861DDCF382F31713130C1
:102AC00019F78E7F8860E0CF282F2171213121F7FF
:102AD0008E7E8861E1CF80E008950C9403120E94FD
:102AE000E2168FE39CE90197F1F700C000000E9415
:102AF000E2160E948417811109C084E00E94B51576
:102B000081FF06C00E946D150C94982F80E0F6CFCF
:102B100008950C946F150E940912811102C00E9441
:102B2000AE120E941412809374020E941C129093A1
:102B3000100380930F030E9489150E941812682FBA
:102B400070E090E080E00E94690C60911602709144
:102B5000170280911802909119020C94A10C08950B
:102B60000C94AF1508950C94B215E82FF0E0E75ED1
:102B7000FC4F80810895089580EA8A95F1F70895C1
:102B800000C008950C94BC15F894E82FE295EF70FE
:102B9000F0E031A1282F2F7081E090E001C0880F74
:102BA0002A95EAF7982F9095932391A392A1892BC8
:102BB00082A37894089508950C94DB15CF93DF9346
:102BC00084E90E94C41586E60E94C41587E90E9424
:102BD000C41586EC0E94C415C7EBD1E089918F3FE4
:102BE00011F00E94C41581E0CD3BD807B9F7DF9101
:102BF000CF910895CF92DF92EF92FF920F931F93A0
:102C0000CF93DF93EC01D62E062F10E0C80183543A
:102C10009E4F7C01FC0180818F3F09F44BC0F894EA
:102C2000E82FE295EF70F0E091A18F7021E030E0A5
:102C300001C0220F8A95EAF7892F822B81A382A1F6
:102C40002095282322A378940E94C015E7EBF1E099
:102C500030E020E0C12C51E041914F3FA1F1A42F81
:102C6000A295AF70B0E090968C9190E04F7002C04A
:102C7000959587954A95E2F780FD25C0852F022E10
:102C800001C0880F0A94EAF7C82A2F5F3F4F263009
:102C9000310511F7F70180818F3F11F00E94C415B3
:102CA00061E0C11001C060E08D2D0E94C215C00F0F
:102CB000D11FC882DF91CF911F910F91FF90EF90AC
:102CC000DF90CF90089580E0DFCF0E948917809138
:102CD0006C0180916C0194E0811190E0909322034B
:102CE00084E0891B809321030E94DE15E1E1F3E07B
:102CF000A9E1B3E011921D9283E0E931F807D1F721
:102D000084E00E9435170E94EE070C949E171F93D3
:102D1000CF93DF9300D000D0CDB7DEB70E946C1701
:102D2000182F60912203882309F43FC019821A8268
:102D30001B821C82862F90E0BE016F5F7F4F875EF3
:102D40009C4F0E94AC17E09121039E012B5F3F4FE7
:102D5000F0E0882301F1BF01675E7C4FDE01119630
:102D600010E0FB014191BF019D91491731F0AF0186
:102D700041505109FA019083182FA217B30789F720
:102D80000E94F407812F0F900F900F900F90DF910A
:102D9000CF911F910895E75EFC4FDE0111961192CD
:102DA0001D92A217B307D9F7EBCF70E0675E7C4F97
:102DB0008091210390E0875E9C4F0E9439180E9409
:102DC000DC15E0CFEF92FF920F931F93CF93DF9329
:102DD000CDB7DEB728970FB6F894DEBF0FBECDBFD4
:102DE0008E010F5F1F4F88E0F80111928A95E9F775
:102DF000F12C6F2DC8010E94FA15F394F4E0FF1234
:102E0000F8CF48E050E0B80181E193E00E94A0369D
:102E10007C0121E0892B09F420E0E114F10441F068
:102E200088E0F801A1E1B3E001900D928A95E1F705
:102E30006091220370E0675E7C4F44E081E193E0A3
:102E40000E94361781E090E0EF2811F40E94871667
:102E500028960FB6F894DEBF0FBECDBFDF91CF919D
:102E60001F910F91FF90EF9008950895FF920F9397
:102E70001F93CF93DF93F82E092F162FD72FC42F30
:102E8000222349F081E0809377020E94312F9093B2
:102E9000760280937502809177028823A1F0809159
:102EA0007502909176020E94492F059760F0EF2DF0
:102EB000F02FA12FBD2FCE0FDF2FD11DEC17FD0757
:102EC00041F410927702DF91CF911F910F91FF9003
:102ED000089581918D93F2CF80917A02811107C07C
:102EE0000E943536882351F081E080937A0281E098
:102EF00090917A02913009F080E0089582E0809309
:102F00007A020E943036F3CF0E946C1791E0892735
:102F100008950E94841780936C0180916C016BE18D
:102F2000882349F080E00E94EF1D0E946C178823DF
:102F300021F00C94E2178BE1F6CF08950E946C17F4
:102F4000811102C00C94E417089581E090917B02F6
:102F50009A3008F080E008950F931F93CF93DF938A
:102F6000EC018B0180917B028A30B8F4B801CE016C
:102F70000E943718C82F811122C080917B028F3F99
:102F8000B9F40E94312F90937902809378028C2FAC
:102F9000DF91CF911F910F910895809178029091C8
:102FA00079020E94492F843F914000F7C0E0EFCFA3
:102FB0008F5F80937B028A3020F7C1E0E8CF1092C8
:102FC0007B02E5CF0C94EF2B0C94F22BEF92FF9247
:102FD0000F931F93CF93DF937901C82F880FDD0BD9
:102FE00041155105A9F08AE08C9FF0018D9FF00DED
:102FF0001124E359FE4F8381948184589D4F22818F
:1030000030E04217530708F49A01A9010E94AD3637
:10301000CE010E94FC2C892B11F501151105E9F058
:103020008AE08C9FF0018D9FF00D1124E359FE4F33
:10303000458150E00417150708F4A8018AE08C9F29
:10304000F0018D9FF00D1124E359FE4F66817781C9
:1030500064587D4FC7010E94AD3681E001C080E019
:10306000DF91CF911F910F91FF90EF9008950C94F5
:103070009F190C94C3190F931F93CF93DF9300D024
:1030800000D0CDB7DEB76091990270919A0280911D
:103090009B0290919C020E94582F11E064367105AA
:1030A0008105910518F10E94862E6E5F7F4F8F4F2C
:1030B0009F4F69837A838B839C8310E000E030E02C
:1030C00020E044E050E0BE016F5F7F4F82E00E944D
:1030D000E617182F882351F00E943D2F6093990224
:1030E00070939A0280939B0290939C02812F0F9081
:1030F0000F900F900F90DF91CF911F910F91089536
:103100000F931F93CF93DF93CDB7DEB728970FB6FA
:10311000F894DEBF0FBECDBFCE0101960E9479208C
:10312000188560919D0270919E0280919F029091FE
:10313000A0020E94582F643671058105910510F494
:103140001123C1F010E000E030E020E048E050E062
:10315000BE016F5F7F4F83E00E94E617882369F00E
:103160000E943D2F60939D0270939E0280939F0268
:103170009093A0020E94762081E028960FB6F894E2
:10318000DEBF0FBECDBFDF91CF911F910F9108958C
:10319000AF92BF92CF92DF92EF92FF920F931F9365
:1031A000CF93DF9300D000D00F92CDB7DEB75B0195
:1031B000E090C501F090C60101E010E09E012B5F98
:1031C0003F4F50E040E070E060E080E00E94E61792
:1031D000182F882309F44BC067018FEFC81AD80A4B
:1031E0006091950270919602809197029091980259
:1031F0000E94582F643671058105910580F104E025
:1032000010E09E012F5F3F4F50E040E070E060E033
:1032100081E00E94E617F82E64E070E0C6010E948B
:10322000522311E09D81981310E01F2159F10E9453
:103230003D2F60939502709396028093970290932E
:10324000980289819A81AB81BC818093910290938D
:103250009202A0939302B093940211E013C064E031
:1032600070E0C6010E9452239D818913C8CFF701E7
:1032700081819281A381B48189839A83AB83BC834A
:103280001111DFCF8091910290919202A09193024F
:10329000B0919402F50180839183A283B383812F3F
:1032A0000F900F900F900F900F90DF91CF911F9183
:1032B0000F91FF90EF90DF90CF90BF90AF90089567
:1032C000AF92BF92CF92DF92EF92FF920F931F9334
:1032D000CF93DF937C015B016A010E94A51701E097
:1032E00010E0882311F00AE010E0C1E0D0E0F8948B
:1032F000B501C701F60109957894811104C02196A2
:103300000C171D075CF4DF91CF911F910F91FF9077
:10331000EF90DF90CF90BF90AF900895CC9F900139
:10332000CD9F300D300D112490E080E045E34A95AB
:10333000F1F70000019682179307C1F7D8CF0F93DA
:103340001F93CF93DF93EC018B0148EC58E10E946F
:103350006019882391F04BE358E1B801CE010E9437
:103360006019882351F040E858E1B801CE01DF919F
:10337000CF911F910F910C94601980E0DF91CF9154
:103380001F910F9108950F931F93CF93DF93F8949C
:10339000C091C501D091C601CE01019624E0FB0188
:1033A000DC0101900D922A95E1F764E070E00E9443
:1033B000522388837894F8946D817E818F819885DB
:1033C00000918D0210918E0220918F023091900217
:1033D000601771078207930751F060938D02709315
:1033E0008E0280938F02909390020E94692E7894AF
:1033F000F8948889882331F060E0CE0109960E9414
:10340000AB21188A7894DF91CF911F910F91089585
:103410000E94AA2E0E94E9300E9402310E941431BB
:103420000E94E312FBCF8091A70280FF12C060913F
:103430009A0185E0689FB00111247595679575958F
:10344000679560387105A8F561157105A1F1862FA2
:10345000089581FF09C060919A0185E0689FB001DD
:10346000112475956795EDCF60919A0182FD0AC090
:103470008091A6028823D1F09091990160919A01E0
:10348000891728F085E0689FB0011124DACF869F64
:10349000B001112485E0869F9001879F300D112493
:1034A000692F70E0C9010E947036CBCF65E070E0F3
:1034B000CECF8FE7089581E008958091A70280FF25
:1034C0000CC06091960170E075956795759567954C
:1034D0006115710549F1862F089581FF06C060913D
:1034E000960170E075956795F3CF6091960182FD26
:1034F0000BC09091A5029923A1F060919501809154
:103500009601961738F0682F70E06038710500F367
:103510008FE70895899FC001112470E00E947036E2
:10352000F4CF61E070E0D7CF81E008958D3E31F4B3
:103530000E94131A81958093AB0208958E3E19F470
:103540000E94131AF8CF8F3E31F40E94131A81950E
:103550008093AA020895803F19F40E94131AF8CFAD
:10356000893F29F40E945D1A8093AC0208958A3F36
:1035700021F40E945D1A8195F7CF8B3F31F40E94B0
:103580005D1A81958093AD0208958C3F19F40E94D5
:103590005D1AF8CF9FE0980F983070F4815F990B17
:1035A00021E030E001C0220F8A95EAF78091A9025C
:1035B000822B8093A90208958D3F31F48091A70258
:1035C00081608093A70208958E3F21F48091A70225
:1035D0008260F7CF8F3FB9F78091A7028460F1CF67
:1035E0004091AA028D3E59F48091AB0287FF0DC035
:1035F0001092AB0241110BC01092A60208C08E3E81
:1036000081F48091AB0218169CF3442381F08091E1
:10361000AC029091AD02892B09F05AC01092A5021C
:1036200008958F3E49F447FFF0CF1092AA0280918F
:10363000AB028111ECCFE0CF803F19F41416ACF34C
:10364000E4CF9091AC02893F29F41916F4F6109258
:10365000AC02DBCF8A3F19F497FFD7CFF8CF909118
:10366000AD028B3F29F497FFD0CF1092AD02CDCFA2
:103670008C3F19F41916CCF3C8CF9FE0980F9830FF
:1036800090F4815F990B21E030E0B90102C0660F30
:10369000771F8A95E2F7CB0180959091A902892343
:1036A0008093A902B2CF8D3F31F48091A7028E7F23
:1036B0008093A702AACF8E3F21F48091A7028D7F2D
:1036C000F7CF8F3F09F0A1CF8091A7028B7FF0CF7A
:1036D00008950E94312F9C019091AA028091AB0223
:1036E000982B21F03093A4022093A3029091AC0276
:1036F0008091AD02982B21F03093A2022093A10279
:1037000088EA92E00C94D32DEF92FF920F931F93CF
:10371000CF93DF9300D000D000D0CDB7DEB786E0E6
:10372000E8EAF2E0DE01119601900D928A95E1F748
:10373000E090AA02F090AB020091AC021091AD02B1
:103740001092AA021092AB021092AC021092AD023B
:103750008E2D8F2991F08091A3029091A4020E9456
:10376000492FAC019091A602992309F43FC08091A2
:103770009B018417150608F447C0802F812B91F018
:103780008091A1029091A2020E94492FAC019091D8
:10379000A502992309F477C0809197018417150633
:1037A00008F47FC08091AA029091AB02892B90917E
:1037B000AC02892B9091AD02892B11F00E94691BFC
:1037C00086E0FE013196A8EAB2E001900D928A955A
:1037D000E1F726960FB6F894DEBF0FBECDBFDF919E
:1037E000CF911F910F91FF90EF90089520919C0130
:1037F0008AE0289F900111242417350708F0BDCFD7
:103800009F5F9093A60202C09F3FD1F7EE2059F030
:103810000E94131A9FEF1E140CF491E0899F802DD3
:1038200011248093AA02FF2059F00E94131A9FEFDF
:103830001F140CF491E0899F802D11248093AB021A
:103840003091AA02332309F498CF2091AB022223AE
:1038500009F493CF45EB3403C0011124992359F0A7
:103860009093AA0245EB240390011124332339F0ED
:103870003093AB0282CF81E08093AA02F3CF81E044
:103880008093AB027ACF209198018AE0289F900123
:1038900011242417350708F085CF9F5F9093A50268
:1038A00002C09F3FD1F7002359F00E945D1A9FEF9D
:1038B00010160CF491E0899F802D11248093AC02A6
:1038C000112359F00E945D1A9FEF11160CF491E03C
:1038D000899F802D11248093AD023091AC02332357
:1038E00009F460CF2091AD02222309F45BCF45EBB0
:1038F0003403C0011124992359F09093AC0245EB95
:10390000240390011124332339F03093AD024ACFC0
:1039100081E08093AC02F3CF81E08093AD0242CF8F
:1039200086E0E8EAF2E0DF011D928A95E9F710925D
:10393000A6021092A5021092A7020895EF92FF929C
:103940000F931F93CF93DF93CDB7DEB72C970FB6AE
:10395000F894DEBF0FBECDBF7C838D839E831A8714
:103960002B873C875F1119C0662311F0061315C021
:103970008C81882319F09A8598130FC08E81882333
:1039800019F09C85981309C09D81992321F081E04D
:103990002B85291303C080E001C081E081702C9643
:1039A0000FB6F894DEBF0FBECDBFDF91CF911F9150
:1039B0000F91FF90EF900895EF92FF920F931F9356
:1039C000E090AE02F090AF020091B0021091B1020F
:1039D0002091B2023091B3024091B4025091B502ED
:1039E0006091B6027091B7028091B8029091B902CD
:1039F0000E949E1C882321F084EB92E00E94D32D2C
:103A00001092B6021092B7021092B8021092B90248
:103A100086E0E4EBF2E0AEEAB2E001900D928A9526
:103A2000E1F71F910F91FF90EF900895CF93DF93EF
:103A300000D000D000D0CDB7DEB786E0E4EBF2E0F6
:103A4000DE01119601900D928A95E1F729813A8164
:103A50004B815C816D817E8180E090E026960FB67F
:103A6000F894DEBF0FBECDBFDF91CF910895CF9305
:103A7000DF9300D000D000D0CDB7DEB749835A83A2
:103A80006B837C838D839E8386E0FE013196A4EB5D
:103A9000B2E001900D928A95E1F726960FB6F89460
:103AA000DEBF0FBECDBFDF91CF910895EF92FF92A1
:103AB0000F931F93CF93DF93EB01E82FD11110C029
:103AC000442321F0F0E0EE58FD4FE4916E2F7E2F5D
:103AD0008E2FDF91CF911F910F91FF90EF9008955E
:103AE0000D2F10E0282F30E0442329F02E583D4FB1
:103AF000F901249130E0F6E0CF9FC0011124EFEFEF
:103B0000F0E0BF010E945C36AB018C2F90E0880F83
:103B1000991FA5E5A49FB001A59F700D1124861BD8
:103B2000970B982F990F980FBF01601B710B629F25
:103B3000D001639FB00D729FB00D11248B2F9D9FFC
:103B4000B0011124672F7727EF01C61BD70BBE01E9
:103B5000629FE001639FD00D729FD00D11247F0101
:103B6000E91AF108E09EB001E19E700DF09E700D23
:103B70001124672F7727E61BF70BE29F8001E39F55
:103B8000100DF29F100D1124E12F722F42305105BC
:103B900099F048F44115510569F04130510581F023
:103BA000EB2F8D2F07C04430510569F080F046306F
:103BB0005105B1F76E2F8DCFE22F7B2F812FFACFDA
:103BC000E22F7D2FF7CFEB2F822F712FF3CF7B2F9B
:103BD000822FED2FEFCF41E00C94561D0895EDE9B3
:103BE000F1E08083618308950C94EB1DCF93DF9304
:103BF000762FE901682F842F0E94F41D7983688352
:103C00008A83DF91CF910895493708F048E70C94F3
:103C1000F61D80912403982F9E7F61F4817082604D
:103C20008093240380912703893718F088E78093D5
:103C3000270308958831B0F381708661F1CF88E061
:103C400090E00C94BE36CF92DF92EF92FF926B0120
:103C50007C010E94091EB701A60188E090E0FF9058
:103C6000EF90DF90CF900C94DC36E4E2F3E083E059
:103C7000808311828FEF828388E783831482A7EC8D
:103C8000B2E012968C911297836012968C936081A9
:103C90007181828193810C94231E8091240380FF83
:103CA00002C08695089580E008959091280393308E
:103CB00018F49F5F90932803882351F060912403A8
:103CC0007091250380912603909127030C94231E65
:103CD000089581E00C94551E90912803992319F0C2
:103CE000915090932803882351F0609124037091A0
:103CF000250380912603909127030C94231E089599
:103D000081E00C946C1E70E00C94252360919E0160
:103D10008091240380FF0AC080919D0123E0829F4F
:103D2000C0011124875D9C4F0C94831E80919F01DC
:103D30009091A00123E0829FF0011124E75DFC4FE8
:103D4000891750F71182108212828F5F3396F8CF55
:103D50009091240390FF14C090919F012091A001A5
:103D600033E0939FF0011124E75DFC4F921710F0B0
:103D70000C94861E8183608342839F5F3396F6CFC7
:103D80000895CF93DF9300D00F92CDB7DEB7909117
:103D9000240390FF0AC09E012F5F3F4F0E94041E24
:103DA0004B8169818A810E94A81E0F900F900F900D
:103DB000DF91CF910895CF93DF93EC01E4E2F3E03C
:103DC000438162818C810E94C11E8C818F5F8C83B4
:103DD000DF91CF910895EF92FF920F931F93CF93AE
:103DE000DF9300D00F92CDB7DEB7182FF62E042F39
:103DF000E22E8091240380FF39C0E82FE695F0E0A1
:103E0000E953FE4F90819093C7028E7F8230C1F5B7
:103E10009E012F5F3F4F812F0E94041E4B816981BD
:103E20008A810E94A81E80912503811308C0809179
:103E300026038F1104C080912703801729F08091F9
:103E4000C90282608093C90210932503F092260371
:103E500000932703EE2051F0609124037091250315
:103E600080912603909127030E94231E0F900F90AC
:103E70000F90DF91CF911F910F91FF90EF900895D8
:103E8000923089F610912503CECFE4E2F3E09181E0
:103E9000282F438162818AE0890F0C94EB1E81E018
:103EA0000C94451FE4E2F3E09181282F4381628165
:103EB00086EF890F0C94EB1E81E00C94521FE4E214
:103EC000F3E0628121E1620F08F46FEF282F438154
:103ED00081810C94EB1E81E00C945F1FE4E2F3E01F
:103EE000628121E1621B08F460E0282F4381818117
:103EF0000C94EB1E81E00C946E1FE4E2F3E043812E
:103F000021E1420F08F44FEF282F628181810C9448
:103F1000EB1E81E00C947D1FE4E2F3E0438121E19C
:103F2000421B08F440E0282F628181810C94EB1E33
:103F300081E00C948C1F20E00C94EB1E8F929F92DA
:103F4000AF92BF92CF92DF92EF92FF920F931F93A7
:103F5000CF93DF93EC018A81BB24BA9480FD02C029
:103F6000BB24B3948C8181110AC081E0B8122AC0AD
:103F70008091A10181508093BA0281E08C83A12CB1
:103F800046E3942E8091A101A816F8F00E94861EA7
:103F90008091BA0291E0B91261C081115AC080913A
:103FA000A10181508093BA021C82DF91CF911F91B1
:103FB0000F91FF90EF90DF90CF90BF90AF909F90C8
:103FC0008F9008951092BA02D8CF00919F01CA2C09
:103FD000D12C0C0D1D2D111DC801880F991F080F24
:103FE000191F075D1C4FF80111821082128234E004
:103FF000E32EF12C812C8091BA02880D87331CF1BD
:10400000692D0E944E36892F082E000C990BC81678
:10401000D90691F4809127038E9DA0018F9D500DAC
:10402000112455954795559547959801609126031C
:10403000809125030E94041E8B0CF1E0EF1AF10819
:10404000D1F6A3949FCF87FFDFCF9091A101890F75
:10405000DBCF81508093BA02BC82A7CF90E001965B
:104060006091A10170E00E9470368093BA028C8347
:104070009CCF0F931F93CF93DF93EC0110E000E0F0
:104080009091A1019017110609F06CF40E94861E10
:104090008C8190E00196817099278C83DF91CF917C
:1040A0001F910F91089520919F01A801420F511D6A
:1040B0009A01220F331F240F351F275D3C4F4C817F
:1040C000609126038091250396959017110651F073
:1040D0004CF0442349F0409127030E94041E0F5FD7
:1040E0001F4FCECF4423B9F340E0F7CF1092C9025F
:1040F000089525E0E4E2F3E0DC0101900D922A95B9
:10410000E1F72091C7023091C8024091C902FC0139
:104110002583368347830895E7ECF2E0118282819C
:10412000846082830895E4E2F3E080818E7F80835F
:104130000E948C20E7ECF2E08281816082832FEF85
:1041400080E792E0215080409040E1F700C00000FD
:104150000C94861E0E948C208091C50281110AC099
:1041600081E08093C5028091240381708093C40212
:104170000C9493200895E4E2F3E080818E7F8083A5
:1041800060817181828193810E94231E0E948C2014
:10419000E7ECF2E08281816082832FEF80E792E09A
:1041A000215080409040E1F700C000000C94861E32
:1041B00060912403669570E041E050E082EA91E06E
:1041C0000E949336892B19F481E08093C8020E94E3
:1041D000A12E9093BF028093BE028091C902846099
:1041E0008093C90208959091240390FF3AC0917082
:1041F00081112DC09260909324038091C902816047
:104200008093C902662351F06091240370912503C5
:1042100080912603909127030E94231E609124031E
:10422000669570E041E050E082EA91E00E949336AA
:10423000892BA1F00E948C2081E08093C1024091E3
:10424000270360912603809125030C949B1F8C30DB
:1042500010F09661D0CF880F982BCDCF0E94D82038
:10426000EBCF0895682F90912403969581E0890FF4
:104270008C3008F081E00C94F32081E00C94322122
:10428000682F9091240396958FEF890F09F48BE0A6
:104290000C94F32081E00C94402161E00C94F32015
:1042A000E4E2F3E080818160808386950C944D2167
:1042B0008091240380FD0C94BB200C94502160E07D
:1042C0000C94F3208091C602811133C00E94091220
:1042D000811104C00E94AE120E94351E0E941F1E52
:1042E0006093240370932503809326039093270300
:1042F0008091C90283608093C9026E7F61F40E943D
:10430000351E0E941F1E6093240370932503809323
:104310002603909327030E94091E0E948C208091FF
:10432000240380FF03C086950E945F2181E0809373
:10433000C6020895E4E2F3E080818160808386957F
:104340000C945F211092C5028091C40281110E94D9
:104350009A210C94D8201F93CF93DF93EC01162F52
:104360008F8180FF0CC0888180FF24C0809124034E
:10437000816080932403888186950E94F3208F8139
:1043800081FF06C0212F4B816A8189810E94EB1E2B
:104390008F8182FF05C08E81882379F00E94D8200A
:1043A0008F8183FF03C081E08093C102DF91CF91B1
:1043B0001F9108950E949320E2CF0E948C20F0CF9D
:1043C000EF92FF920F931F93CF93DF938091C802D8
:1043D000882309F462C08091C702E0912403E69526
:1043E000E81BE093C002823009F05EC0F0E0E159C2
:1043F000FD4FE491CE2FD0E00BED1EE18091C10284
:10440000882361F01092C1020E94A12E9093BF02F6
:104410008093BE021092C3021092C2020E94A12E8B
:10442000E091BE02F091BF029C012E1B3F0B2F3F7B
:104430003F4798F52091BD022223B1F01092BD02B2
:104440002091BB023091BC02821B930B8F3F9F4790
:1044500058F4205D3A483093BC022093BB0280910F
:10446000C90288608093C902E090C202F090C30242
:10447000CE0FDF1FD093BF02C093BE028EEB92E03F
:10448000F80109958091C2029091C302892B29F409
:10449000EF2819F081E08093BD02DF91CF911F9149
:1044A0000F91FF90EF900895853051F4E695F0E07C
:1044B000E459FD4FE491CE2FD0E00EE91FE19ECFED
:1044C000C4EFD1E009E310E28B3009F497CFC0EDDF
:1044D000D7E00EEE1DE192CFFA01811101C0FB0180
:1044E0000994CF93DF93C82FD62F0E944D1E8C17AF
:1044F00040F00E944D1E8D1720F4DF91CF910C9457
:104500003D218C2FDF91CF910C944D211F93CF93A0
:10451000DF93EC01FB01128111115FC00E94501169
:104520008272CC3CFCE5DF0709F481C0A8F5C73CEA
:10453000ECE5DE0709F467C0D8F4C43C9CE5D90774
:1045400009F457C030F4C33CDC4509F44FC011E016
:1045500044C0C53C9CE5D90709F450C04CE55FE177
:104560006FE47FE1C63CDC4591F70E946C2235C0C8
:10457000C93CFCE5DF0709F450C008F449C0CA3C57
:10458000ECE5DE0709F44EC049E85FE168E97FE148
:10459000CB3CDC4551F3DBCFC13D9CE5D907E9F0CD
:1045A00098F4CE3CFCE5DF0709F44BC008F444C0A6
:1045B000CF3CECE5DE0789F064E082E0C03DDC45FD
:1045C00031F60E94712209C0C73D8CE5D80750F42E
:1045D0006AE085E0C33DDC45A0F3812FDF91CF91F8
:1045E0001F910895CE35DD45C1F3B1CF0E9458210A
:1045F000F4CF4AE451E26DE371E2B7CF4DE351E20B
:104600006AE471E2B2CF4FE45FE16CE57FE1ADCFE8
:104610004AE75FE16BE67FE1A8CF4BE65FE16AE73F
:104620007FE1A3CF48E95FE169E87FE19ECF40E801
:104630005EE169E67EE199CF49E65EE160E87EE110
:1046400094CF81E00E944D21C8CF539A4BB1477F50
:104650005BB15860EFB7F8949B01220F331F260F10
:10466000371F280F391F2817390741F4EFBF8FE58F
:1046700094E00197F1F700C000000895DC016D910E
:10468000CD0178E05BB9000000C067FF4BB9660F51
:10469000000000C000C000C04BB900C07A9591F77F
:1046A000E2CF0895FC01680F791F8FEF91E36E1739
:1046B0007F0709F408952191822728E030E087FFE1
:1046C00006C0880F892721503109C9F7F0CF880F1C
:1046D000FACFCF92DF92EF92FF920F931F93CF9377
:1046E000DF936C017B0164E670E088E70E94F629A5
:1046F000EC0197FD12C010E000E0F601E00FF11FA1
:10470000849164E670E00E94702AEC01892B29F400
:104710000F5F1F4F0E151F0581F70E948A2BCE01D8
:10472000DF91CF911F910F91FF90EF90DF90CF908D
:104730000895EBECF3E080E092E0DF019C011D9234
:1047400021503040E1F7F093D205E093D1058FEF8F
:104750009FEF9093F6028093F50208950E94A006C1
:104760008093F10280FD0FC080E88093F0020E94E8
:10477000F0296DE070E089E893E00E946923892BBD
:1047800021F080E0089580E2F0CF8091F10263E0B3
:1047900070E081FD26C086E893E00E946923892BA2
:1047A00081F76DE070E086E793E00E946923892B32
:1047B00041F70E943D2F605A75418F4F9F4F609384
:1047C000CD057093CE058093CF059093D0050E94C0
:1047D000992381E08093F4028093F3021092F20215
:1047E000089583E893E0D9CF2091F00236E0839FCB
:1047F000C0011124629F800D911D1124811522E0BA
:10480000920714F090E080E085539C4F9093D2057E
:104810008093D10508952091D1053091D205255C72
:1048200033404091F002642F70E0C9010E945C3671
:10483000481B463010F4240F311D211582E0380743
:1048400010F030E020E025533C4F3093D205209308
:10485000D10508951F93CF93DF93162F8A3031F43B
:1048600081E0DF91CF911F910C94A4248D3011F43D
:1048700080E0F7CFC091D105D091D20596E0FE013E
:10488000AAECB2E001900D929A95E1F7803EC8F053
:1048900086E0FE0111928A95E9F711111EC0C091C0
:1048A000D105D091D20546E050E0BE018AEC92E0FD
:1048B0000E94A036892BF9F4DF91CF911F910C94BF
:1048C0000B24F6E08F9FB00111246A567C4F46E01E
:1048D00050E0CE010E948A36E0CFE091D105F09100
:1048E000D2059F012A5F3F4F2E173F07C1F28081FB
:1048F00080958193F9CFCB5CD340CE0125E096958E
:1049000087952A95E1F721E030E0A90102C0440F24
:10491000551F8A95E2F7CA014091F5025091F602BF
:10492000842B952B259645E0D695C7954A95E1F7BA
:1049300002C0220F331FCA95E2F7822B932B90936C
:10494000F6028093F502B8CFCF93382FE091D105CE
:10495000F091D205EB5CF3402091F002622F70E001
:10496000CF010E945C36281B822F332369F066E05A
:104970000E944236C82FC15010F4CF91089560E0D4
:1049800080E20E942A24F7CF9F01280F311D2115B4
:10499000324018F080E0F0E0E0E08E0F9F2F911D94
:1049A00085539C4F9093D2058093D105E6CF1F93FA
:1049B000CF93DF93EC01162FFE018491811104C087
:1049C000DF91CF911F910895612F0E942A24219693
:1049D000F3CF8091F402811103C08091F302089516
:1049E0000E943D2F605A75418F4F9F4F6093CD05B8
:1049F0007093CE058093CF059093D0058091F302FC
:104A00008111EBCF62E070E084E793E00E946923BC
:104A1000892B19F781E08093F302DFCF2F923F9229
:104A20005F926F927F928F929F92AF92BF92CF923E
:104A3000DF92EF92FF920F931F93CF93DF938091BA
:104A4000F402882369F02091F5023091F6022115D5
:104A5000310531F08091F20261E070E0882399F035
:104A6000DF91CF911F910F91FF90EF90DF90CF904A
:104A7000BF90AF909F908F907F906F905F903F908E
:104A80002F9008958F5F082F10E01B01082E02C0A1
:104A9000220C331C0A94E2F7A90142215321452B31
:104AA00089F39091F10290FD44C08295880F807641
:104AB0008093A501980136952795369527952093E3
:104AC000A801815E8093A6011092A90124E630E03E
:104AD00047E050E063EA71E088E70E94E72A892B0B
:104AE00009F0BECFA80125E0440F551F2A95E1F734
:104AF0008091F10280FD2BC045535C4F04E610E02D
:104B000020E230E060E488E70E940E2B892B09F058
:104B1000A7CF0E94E924E101C095D0958091F502CC
:104B20009091F602C823D923D093F602C093F502E0
:104B300097CF880F880F880F8093A5011092A80146
:104B4000895F8093A60183E08093A901BFCFE0ED48
:104B5000F2E080E2DF011D928A95E9F7A7EDB1E06E
:104B600003ED11E08BEDC82E81E0D82E97E0592E91
:104B7000772473948D91E80129918E01240F352FAC
:104B8000311D25533C4FE82FF0E0E053FD4F90E0FE
:104B900080E0652C681A872C082E01C0880C0A94C6
:104BA000EAF77901A12CE701B9907E01B820662DC2
:104BB0006A196770962E062E000C770BDB2D01C04C
:104BC000DD0F9A94EAF771956195710967707727FF
:104BD00001C0B6946A95EAF7BD2A6081962E9B289B
:104BE0009082A39468E0A612DECF019631968830B9
:104BF000910579F6CA16DB0609F0BCCF04E610E091
:104C000020E230E040ED52E07DCF8091F3029091C0
:104C1000F402911103C091E089270895882369F077
:104C200062E070E082E793E00E946923892B19F02B
:104C30008091F30208951092F3028091F302EBCF7A
:104C40000F931F938091F402882389F18091CB0503
:104C50009091CC050E94492FC29760F00E94312F9D
:104C60009093CC058093CB0560E080E00E94F42314
:104C70000E94AF060E940E258091F3028823B9F0AE
:104C80000E943D2F0091CD051091CE052091CF05BA
:104C90003091D005601B710B820B930B6F3F7F4FE0
:104CA0008F4F9F4720F41F910F910C9405261F9161
:104CB0000F9108950F931F93CF93DF93C42FD22F9B
:104CC000FC0182818823C9F04093F9020E94312FB0
:104CD0009093F8028093F70280E28C0F883008F0FE
:104CE00050C0C77081E001C0880FCA95EAF7DF9114
:104CF000CF911F910F910C94B6091091F9021413E2
:104D000035C08091F7029091F8020E94492F883CAB
:104D1000910560F5C0E2CD0F1D17B9F080E2810F5B
:104D2000883040F4177081E001C0880F1A95EAF7C7
:104D30000E94BD09C83048F481E09D2F977001C0E2
:104D4000880F9A95EAF70E94B609802F0E94AE0953
:104D5000C830B8F4D77081E001C0880FDA95EAF75F
:104D6000DF91CF911F910F910C94BD0980E28C0FC0
:104D7000883038F4C77081E001C0880FCA95EAF71F
:104D8000EFCFDF91CF911F910F9108950F939C0169
:104D9000CB01243F4CE5340759F1A8F4293DFCE54B
:104DA0003F0701F12A3D4CE53407D1F1283D3C4550
:104DB00091F406E221EE41EE68ED7CE50E945A2670
:104DC00080E00F910895263FFCE53F07E9F0B0F041
:104DD000273F3C45F9F0FC018281882339F110928C
:104DE000F902EFCF07E225EE45EE69ED7CE5E6CF6F
:104DF00006E221EE40EE64EF7CE5E0CF07E225EE2F
:104E000044EE65EF7CE5DACF06E221EE42EE66EF96
:104E10007CE5D4CF07E225EE46EE67EF7CE5CECF0A
:104E200008E221E045EE6AED7CE5C8CF81E0C9CF1C
:104E3000CF93DF93EC01FB018281882309F420C129
:104E4000C430FDE5DF07C8F5CB3F9CE5D90730F45A
:104E50009E0122503C452431310598F50E941C12D8
:104E60009093100380930F03C031FCE5DF0709F432
:104E7000E0C008F061C0C8309CE5D90709F4CBC098
:104E800088F5C430FCE5DF0709F4B3C0E8F4C230AC
:104E90009CE5D90709F4A7C080910F038260C33055
:104EA000DC4509F4A3C080910F03909110030E9488
:104EB0002A120E94100C80E004C0C236EDE5DE0725
:104EC00069F2DF91CF91089580910F038061C63020
:104ED000FCE5DF0709F48AC008F48FC080910F0356
:104EE000806284C080910F038D7FCC309CE5D90710
:104EF00009F47CC070F480910F038C60CA30FCE52B
:104F0000DF0709F473C008F48AC080910F038E7F15
:104F10006DC080910F03877FCE309CE5D90709F4DF
:104F200065C080910F038B7FCF30DC4508F45EC0F5
:104F300080910F038F7E5AC0CD3FFCE5DF0709F457
:104F400074C040F5C4319CE5D90709F48AC058F40F
:104F5000C231FCE5DF0709F474C008F46EC080912B
:104F60000F03837F43C0CB3F9CE5D90709F449C0B9
:104F700008F04DC0C531DC4509F095CF80910F0395
:104F800082FB992790F921E0922790FB82F990FB10
:104F900083F92CC0C1308DE5D80709F458C088F4D6
:104FA000809110038360CF3FECE5DE0769F18091CB
:104FB00010038D7FC115DD4538F1809110038C7F82
:104FC00023C0C3308DE5D80709F458C008F452C097
:104FD000C236DD4509F067CF90910F03892F8F7E90
:104FE00094FF806103C080910F03816080930F0361
:104FF0005ACF80910F038460F9CF80910F038860AE
:10500000F5CF809110038160809310034CCF809185
:1050100010038260F9CF80910F038064E7CF0E9474
:10502000100C80910F038068E1CF809110038E7F78
:10503000EBCF80910F038F7DD9CF80910F038F7BB2
:10504000D5CF0E94100C80910F038F77CFCF809126
:105050001003982F909591708E7F892B90FB81F98A
:10506000D3CF0E94100C90910F03892F97FB87F9E3
:105070008058BCCF81E00E94B01215CF80E0FBCFFA
:1050800081E01FCFCF93DF93EB0186319C4511F573
:105090000E9450119A81992399F08A7A91E009F43B
:1050A00090E09093FA02811109C089E20E940A11EE
:1050B0000E94961180E0DF91CF91089585E3F6CFAD
:1050C0008091FA02811104C089E20E941111F0CF8F
:1050D00085E3FBCF81E0EFCFCF93DF93EC0181E05D
:1050E000898B8F810E94531188850E9466110E94CE
:1050F0009611EA81FB81309739F06C897D89CE0168
:105100000696DF91CF910994DF91CF910895CF93C7
:10511000DF93EC018881823039F4FB018281938135
:105120000E946F0781E08B87DF91CF910895FC018A
:105130008081813029F4FB01808191810C946F077B
:10514000823021F4FB0182819381F8CF0895FC0124
:105150008081813029F4FB01808191810C94860744
:10516000823021F4FB0182819381F8CF0895EF9280
:10517000FF920F931F93CF93DF93EC018A858111E8
:1051800034C0EB80FC8087E5F81A26E12E9DC00133
:105190002F9D900D1124DC01AE5FBE4F1496ED9152
:1051A000FC911597309731F054966D917C91885F02
:1051B0009E4F099586E18E9D80018F9D100D1124D3
:1051C0000E5F1E4FF80187810E945911F8018085FA
:1051D0000E946C110E949611188219861B861E82ED
:1051E0001D821092FC021092FB02DF91CF911F9161
:1051F0000F91FF90EF900895DF92EF92FF920F933F
:105200001F93CF93DF937C01FB018281882399F068
:105210008091AA019091AB01019669F0C2E0D1E0C2
:1052200010E000E0DD24D3948091AA019091AB01BD
:105230008017910744F4DF91CF911F910F91FF9058
:10524000EF90DF9008958E818823D9F089859A8523
:105250008E159F0539F48091FB029091FC028E150A
:105260009F0579F0DF86FC86EB868989811103C072
:10527000CE010E946C28CE0106960E94B7280E949B
:1052800073110F5F1F4F6696CFCFEF92FF920F9370
:105290001F93CF93DF937C0197558F3F910509F0C2
:1052A000E0F52091AA013091AB012817390724F4C9
:1052B0009093AB018093AA01FB01228136E1389FD4
:1052C0008001399F100D1124E801CE5FDE4F288B3D
:1052D00092818E81992349F1FA86E9868F5F8E83C8
:1052E0000E94312F9E878D870E9479118F830E94A3
:1052F000501188870E9463119885892B8887E881DF
:10530000F981309731F06C897D89C801885F9E4FA3
:105310000995F092FC02E092FB0281E0DF91CF91CF
:105320001F910F91FF90EF9008958823B1F3898921
:10533000882399F3C801885F9E4F0E94B728EDCF5C
:10534000EF92FF920F931F93CF93DF938091AA0167
:105350009091AB0110E006E10196C1F5DF91CF918C
:105360001F910F91FF90EF900895089FF001099F02
:10537000F00D1124EE5FFE4FE288F388E114F10492
:1053800019F428ECE22EF12C089FE001099FD00DC2
:105390001124CE5FDE4F8E818823B9F08D859E85E6
:1053A0000E94492FE816F90680F4109F700111241D
:1053B0008989811105C0C7018E5F9E4F0E946C28AC
:1053C000C701885F9E4F0E94B7281F5F812F90E022
:1053D0002091AA013091AB012817390734F6BECFCE
:1053E0001092B9008CE08093B80008959F92AF921C
:1053F000BF92CF92DF92EF92FF920F931F93CF93C2
:10540000DF93B82EEB010E94312F6C01EE24E39460
:10541000F12CC431D10560F025E0E22EF12CCF3F14
:10542000DC0731F0CE0164E170E00E945C367B0164
:1054300084EAA82E94E8992E1092BC00A092BC0099
:105440000E94312F8C018091BC0087FF0DC080919C
:10545000B900887F883039F18091B900887F803128
:1054600011F10FEF1FEF09C00E94312F801B910B2C
:105470008E159F0540F30EEF1FEFCF3FDC07E1F2E3
:10548000C6010E94492F8C179D07B0F2C801DF9119
:10549000CF911F910F91FF90EF90DF90CF90BF9031
:1054A000AF909F900895B092BB009092BC000E9474
:1054B000312F8C018091BC0087FF0AC08091B90018
:1054C000887F883111F0803461F610E000E0DECF93
:1054D0000E94312F801B910B8E159F0558F3CBCF67
:1054E0000F931F93CF93DF93EB018093BB0084E86E
:1054F0008093BC000E94312F8C018091BC0087FFFB
:1055000011C02091B900287F81E090E0283211F489
:1055100090E080E0919581959109DF91CF911F9165
:105520000F910895CF3FDC0741F30E94312F801B7C
:10553000910B8C179D0708F38EEF9FEFEECF0F9323
:105540001F93CF93DF93EC0184EC8093BC000E9407
:10555000312F8C018091BC0087FF08C08091BB0077
:1055600090E0DF91CF911F910F910895CF3FDC071D
:1055700089F30E94312F801B910B8C179D0750F3EC
:105580008EEF9FEFEECF0F931F93CF93DF93EC013E
:1055900084E88093BC000E94312F8C018091BC0074
:1055A00087FF08C08091BB0090E0DF91CF911F91F1
:1055B0000F910895CF3FDC0789F30E94312F801BA4
:1055C000910B8C179D0750F38EEF9FEFEECFCF928C
:1055D000DF92EF92FF920F931F93CF93DF936B01B4
:1055E0008A017901B9010E94F629E6010C0D1D1D01
:1055F000C017D10761F424E92093BC00DF91CF915B
:105600001F910F91FF90EF90DF90CF90089597FD3D
:10561000F2CFB70189910E94702AEACFCF92DF9230
:10562000EF92FF920F931F93CF93DF93C62F6A01E0
:105630007901B8010E94F62997FD0CC0B8018C2FA2
:105640000E94702AE601EC0CFD1CCE15DF0511F05E
:1056500097FF0CC024E92093BC00DF91CF911F91EC
:105660000F91FF90EF90DF90CF900895B80189914E
:105670000E94702AEACFCF92DF92EF92FF920F93AF
:105680001F93CF93DF93F82EE62EEA016901B8014C
:105690000E94F62997FD15C0B8018E2D0E94702A30
:1056A00097FD0FC0B8018F2D81600E94F629F12C63
:1056B000E12C21E0C21AD108EC14FD0400F597FF9B
:1056C00011C024E92093BC001816190614F490E0C8
:1056D00080E0DF91CF911F910F91FF90EF90DF90CD
:1056E000CF900895C8010E949F2A97FD04C0FE0133
:1056F000EE0DFF1D80832FEFE21AF20ADDCF97FD3A
:10570000E0CFC8010E94C32A97FDDBCFCC0DDD1D81
:105710008883D7CF84E98093BC0008958EE14A9BAB
:1057200002C08150E1F74A9BFECF08955A9880E26B
:105730008A95F1F75A9A0895FC013BE03A95F1F702
:1057400098E020E080E031E040E14A95F1F7880FF1
:105750004A9B02C08160232742E04A95F1F700008E
:1057600040E14A95F1F7915079F790E19A95F1F778
:1057700099B132E03A95F1F7000040E14A95F1F72E
:1057800092FB992790F992272081920F9083089598
:10579000EF92FF920F931F93CF93DF930F92CDB7AA
:1057A000DEB719828C017C01E60EF11C0E151F0577
:1057B00061F481E09981911180E00F90DF91CF91A8
:1057C0001F910F91FF90EF9008950E948E2BCE01B4
:1057D00001960E949C2BF80181938F01E7CF529A8A
:1057E0005A9A089552985A9AEA9AE9E6F0E0808126
:1057F0008F7C808308956150770B91E001C0990FF1
:105800006A95EAF720E031E0911108C0222391F077
:105810005A9A80E28A95F1F75A980895492F4823B9
:1058200039F05A9A232740E24A95F1F79695ECCF42
:105830005A98F9CF5A98EDCFFF920F931F93CF93B9
:10584000DF93EC018C01060F111DC017D10731F455
:10585000DF91CF911F910F91FF900895F9900E94D1
:10586000962B68E08F2D0E94FB2BEFCF1F920F929B
:105870000FB60F921124EF92FF920F931F932F9365
:105880003F934F935F936F937F938F939F93AF93C8
:10589000BF93EF93FF93CF93DF930F92CDB7DEB714
:1058A00019820E948E2BCE0101960E949C2BA82F5C
:1058B000A695A695A695282F229525709A2F9570C6
:1058C000290F922F937026952695920F98279770FF
:1058D0008981982B09F075C0A53008F072C080E16D
:1058E0008A95F1F75A9A529AB2E0BA95F1F700C048
:1058F0005A98EA2EF12CEAE0AE9FD0011124A35968
:10590000BE4F1896ED91FC9119973097B1F06091C8
:10591000C5017091C60116962D913C911797260FDF
:10592000371F13968D919C911497680F791F1596C8
:105930004C91159712968C9109958AE08E9DF001F5
:105940008F9DF00D1124E359FE4F6581662351F0C0
:105950002091C5013091C60186819781820F931FE6
:105960000E941C2C0E94962BF0E1FA95F1F75A98B0
:1059700052985A9A80E18A95F1F78AE08E9D8001CB
:105980008F9D100D112403591E4FD80112966C9152
:105990001297662371F12091C5013091C6011396CB
:1059A0008D919C91820F931F0E94C82BD801ED917D
:1059B000FC91882311F088E001C082E080830E947E
:1059C0008E2B0F90DF91CF91FF91EF91BF91AF910F
:1059D0009F918F917F916F915F914F913F912F9107
:1059E0001F910F91FF90EF900F900FBE0F901F909F
:1059F0001895ED91FC91DFCF0F931F93CF93DF9319
:105A0000EC0105970CF0A9C08AE08C9FF0018D9FF6
:105A1000F00D1124E359FE4F80819181892B09F407
:105A20009CC0F894529A5A9885E08A95F1F7000044
:105A30008C2F869585709C2F9570890F982F937069
:105A400086958695890F8E0193E0000F111F9A9518
:105A5000E1F7082B0E94962B00C068E0802F0E947F
:105A6000FB2BA0E1AA95F1F752985A9A4A9B27C0BE
:105A700087E090E04A9925C08AE08C9F80018D9F45
:105A8000100D112403591E4FF80165816623A1F101
:105A90002091C5013091C60186819781820F931FA5
:105AA0000E94C82B811128C0529A5A9AD801ED91B0
:105AB000FC9182E08083789482E090E016C000C080
:105AC000D5CF0197B9F4529A5A9A8AE08C9FF00187
:105AD0008D9FF00D1124E359FE4F0190F081E02DD0
